:100000005FC200007AC2000078C2000076C2000021
:1000100074C2000072C2000070C200006EC2000014
:100020006CC200006AC200000C9491250C945D26FD
:100030000C94902062C2000060C200005EC200000A
:100040005CC200005AC2000058C2000056C2000044
:1000500054C200000C94072150C200004EC20000A0
:100060004CC200004AC2000048C2000046C2000064
:1000700044C2000042C2000040C200003EC2000074
:100080003CC200003AC2000038C2000036C2000084
:1000900034C2000032C2000030C200002EC2000094
:1000A0002CC200002AC2000028C20000A900AA0039
:1000B000447E407E417E427E437E1E0F0500047FCB
:1000C0003F1F643214643214783C1E1E140A052249
:1000D00023252628292A2C2D2F3032333536383A3D
:1000E0003B3D3E4042434547494A4C4E5051535593
:1000F00057595A5C5E6062646668696B6D6F7173B4
:100100007577797B7D7F81838587898A8C8E9092B4
:100110009496989A9C9E9FA1A3A5A7A8AAACAEAFBF
:10012000B1B3B4B6B8B9BBBCBEBFC1C2C3C5C6C704
:10013000C9CACBCCCDCED0D1D2D2D3D4D5D6D7D7B5
:10014000D8D9D9DADADBDBDBDCDCDCDCDCDDDDDDFD
:10015000DDDCDCDCDCDCDBDBDBDADAD9D9D8D7D7F9
:10016000D6D5D4D3D2D2D1D0CECDCCCBCAC9C7C6A6
:10017000C5C3C2C1BFBEBCBBB9B8B6B4B3B1AFAEE4
:10018000ACAAA8A7A5A3A19F9E9C9A98969492908A
:100190008E8C8A89878583817F7D7B797775737162
:1001A0006F6D6B6968666462605E5C5A595755533F
:1001B00051504E4C4A4947454342403E3D3B3A38F8
:1001C00036353332302F2D2C2A292826252322FF9D
:1001D000AA7F554000010101010101010101020254
:1001E00002020202020202030303030303030304E5
:1001F00004040404040405050505050606060606B0
:10020000070707070708080808090909090A0A0A69
:100210000B0B0B0C0C0C0D0D0D0E0E0E0F0F0F100B
:100220001011111112121313141415151616171795
:10023000181819191A1A1B1B1C1D1D1E1E1F202001
:10024000212222232424252626272829292A2B2C4B
:100250002D2D2E2F30313232333435363738393A6E
:100260003B3C3D3E3F404142434445464748494A66
:100270004C4D4E4F50515354555658595A5B5D5E34
:100280005F616264656668696B6C6D6F70727375CF
:1002900077787A7B7D7E8082838587888A8C8E8F33
:1002A00091939596989A9C9EA0A2A3A5A7A9ABAD61
:1002B000AFB1B3B5B7BABCBEC0C2C4C6C9CBCDCF4F
:1002C000D1D4D6D8DBDDDFE2E4E7E9EBEEF0F3F5FD
:1002D000F8FAFDFF00000000000000002A2B2800B3
:1002E00000000000000000000000000000000029E5
:1002F000000000002C1E3420212224342627252E25
:10030000362D3738271E1F2021222324252633335C
:10031000362E37381F0405060708090A0B0C0D0E88
:100320000F101112131415161718191A1B1C1D2F54
:100330003130232D350405060708090A0B0C0D0E74
:100340000F101112131415161718191A1B1C1D2F34
:100350003130354C000000000000000000000000BB
:10036000000000000000000000000000000000008D
:1003700000000000000000007E0F00D4FFFFFFC758
:100380000000007810036200690067004B004E0017
:100390004F00420000001E036C0065006100660013
:1003A0006300750074007400650072006C006100E9
:1003B0006200730000000403090409025B000301EA
:1003C00000A0FA0904000001030101000921110144
:1003D000000122440007058103080001090401000F
:1003E000020300000009211101000122220007057B
:1003F0008203200001070503032000010904020015
:10040000010300000009211101000122320007054B
:1004100084032000011201000200000008EBCE0757
:10042000000100010200010660FF0961A1010962EB
:10043000150026FF00952075088102096315002626
:10044000FF00952075089102C005010980A1018572
:100450000319012AB700150126B70095017510810F
:1004600000C0050C0901A101850419012AA002158B
:100470000126A002950175108100C005010906A1A1
:1004800001050719E029E715002501950875018187
:10049000029501750881010507190029FF1500263D
:1004A000FF0095067508810005081901290515004A
:1004B0002501950575019102950175039101C00013
:1004C00011241FBECFEFDAE0DEBFCDBF11E0A0E008
:1004D000B1E0E6EEF5E502C005900D92AE3EB10743
:1004E000D9F723E0AEEEB1E001C01D92A333B2070D
:1004F000E1F70E940F120C94AB2A82CDCF93C0E09B
:100500002C2F40E060E080E00E94C614CF5FC53031
:10051000B9F7CF910895CF93DF93C42F242F40E0F4
:1005200060E080E00E94C614D0E0C051DE4F188227
:1005300080E090E0BC01DF91CF9108950F931F936D
:10054000CF93DF93C82F8B01282F4FEF6FEF85E5F7
:100550000E94C6142C2F30E0E901C051DE4FE88123
:10056000B80180E090E0E11551F0A801BC018E2FA8
:100570000E94E01CDF91CF911F910F9108954BE8ED
:1005800052E00E94CE1C8883F5CF0F931F93CF9328
:100590000E94101881E00E94EA1700EF11E0C0E00D
:1005A0002C2F40E060E080E00E94C614F801119218
:1005B0008F01CF5FC530A1F7CF911F910F910895A3
:1005C000A0E0B0E0E6EEF2E00C94A42980910401F2
:1005D000909105018D01E801A92FAA0FAA0BBA2F4E
:1005E0006C017D01B601C7010E945928DC01CB01D5
:1005F0006D2F7C2F9801AB01BC01CD010E94E52835
:1006000018162CF0CDB7DEB7E8E00C94C0294FEFF8
:100610006FEF8BE20E94AE148FE79AE126E08150E3
:1006200090402040E1F700C0000068DF8FE79AE1CA
:1006300026E0815090402040E1F700C0000020E01B
:1006400030E04AE753E4AD2FBC2FB801CD010E9442
:10065000F3278B01D82FC92FC5CFCF93FB0182344D
:100660002EE7920781F150F480342EE79207F9F0DB
:1006700081349E4711F181E0CF91089583342EE7B4
:10068000920739F184349E47B1F78581811599F33A
:100690008091F5019091F601009711F491DFEBCF75
:1006A0006091040170910501815048DFE4CF85819C
:1006B000811509F381E0CEE111C085818115D9F260
:1006C00082E0CFE10BC085818115A9F283E0C0E211
:1006D00005C08581811579F284E0C1E28093F5013E
:1006E0001092F6010BDF6091040170910501809179
:1006F000F501815023DF87E48BD28FEF97EE23E063
:10070000815090402040E1F700C0000087E480D293
:100710008FEF97EE23E0815090402040E1F700C03A
:1007200000008C2F75D28FEF97EE23E08150904020
:100730002040E1F700C0000088E26AD29CCF862BFF
:1007400069F4453058F4E42FF0E0EE0FFF1FE05558
:10075000FF4F85919491282F822F089521E090E0FA
:10076000FBCFEDCF0895862B61F481E04827E42F7D
:10077000F0E0EE0FFF1FE455FF4F25913491C901C2
:10078000089581E090E00895EECF08959C01915086
:100790009F31B0F4832F817034FF0AC08295807F2F
:1007A00031FD806232FD806433FF0BC080680895A4
:1007B00031FD826032FD846033FF03C0886008959C
:1007C00080E00895CF93DF93EB01E0DFFE01099510
:1007D000DF91CF910895CF93DF93EC01805E910973
:1007E000089720F06AE178E0209711F46FE076E056
:1007F000CE01E8DF8C2F94D1DF91CF910895CF9374
:10080000DF93EC01C8D1CE01805E9109089720F0FA
:100810006FE178E0209711F464E176E0CE01D2DF59
:10082000DF91CF9108950F931F93CF93DF938C01A6
:10083000EB01D1DF209739F4C801E1DFDF91CF91DF
:100840001F910F9108958FE99FE00197F1F700C084
:1008500000002197EFCF60E570E08933910511F03A
:1008600060E070E0E0CF81E0089581E00895FBCF83
:10087000089581E00895F1CE089508950895FDCF7B
:10088000089508950895A6E0B0E0E9E4F4E00C943A
:10089000A92949835A839E833091FC0189819A81D9
:1008A000311117C03E81311589F0211579F015D528
:1008B000182F682F89819A81EAD469817A81812FE2
:1008C0000E94460F2696E3E00C94C529F3D4182F16
:1008D000F4CF03D569817A81F3CFFC01262F4081C3
:1008E00051816281738184819581CDCFCF93DF93D4
:1008F000EC0161E0F2DFBE01B8DF811529F061E0B3
:10090000CE01EBDFBE01B3DFDF91CF9108950F93EE
:100910001F93CF93DF93EC0160E0DFDF8C01BE011A
:10092000ADDFBE01C801ABDFDF91CF911F910F9109
:1009300008950F931F93CF93DF93EC0161E0CDDF18
:100940008C018D8181110E94C818BE01C80191DF00
:10095000811106C080E0DF91CF911F910F91089522
:10096000BE01C80188DF8115A9F3BE01C8010E943C
:10097000D918811579F3BE01C8010E94FB1E8115AB
:1009800049F3BE01C8010E941D1D811519F3BE0166
:10099000C8010E94F41C8115E9F2BE01C8010E9441
:1009A00029128115B9F2BE01C8010E9453108115A8
:1009B00089F2BE01C8010E946510811559F2BE017D
:1009C000C8010E947F10C7CF21E030E002C0220F93
:1009D000331F8A95E2F7C90195C3CF93C82F81E0F1
:1009E00090E00C2E02C0880F991F0A94E2F70E9433
:1009F0006A0D8C2FE9DFCF91089581E0089581E0A1
:100A00000895FBCF0895CF93C82F2BD38C2FF7DFFA
:100A10008C2FF7DF8FEF94E32CE081509040204043
:100A2000E1F700C00000CF91089581E0ECDF0C9465
:100A30002B2180E0E8DF0C943C2123DF0E946D2015
:100A40001BD00C9463171AD00E9418181BDF0C944B
:100A5000712081E008950895CF93DF93C82FF9DFC7
:100A6000D82F811511F08C2FF6DF8D2FDF91CF91CC
:100A700008950895F1CF089580E0FCCF0E94401FB3
:100A8000F9CFCF930E94401FC82F8091F7018C1798
:100A900071F0C093F7010E94FB206093F8017093FE
:100AA000F9018093FA019093FB018C2FE3DFCF9142
:100AB0000895ADE0B0E0EFE5F5E00C94AA29488791
:100AC00059876A877B878C879D87911117D71F82EB
:100AD00086E0FE0138969E012F5F3F4FD9010190BD
:100AE0000D928A95E1F78D8181110CC029813A819F
:100AF0004B815C816D817E818F8148D62D96E2E0AD
:100B00000C94C629CE010196F1DE8111EFCFF6CF0C
:100B1000FC012481213019F48081918111C4089550
:100B2000CF93C82F811581F08450813A78F48C2FAF
:100B30000E94C01F811521F08C2F0E94022047D7F0
:100B40008C2F0E94FC1F43D7CF9108958C2F805E7D
:100B5000883048F481E0C1FD84E0C0FD880FC2FD0B
:100B60008295AAD6F0CF8C2F855A833030F48C2F03
:100B70008452990B0E945E1FE7CFC85ACB3120F7F1
:100B8000EC2FF0E0EE0FFF1FE55DFE4F80819181BD
:100B90000E94851FD9CF811521F1982F9450913A49
:100BA00018F40E94022013C7982F905E983050F4DA
:100BB000982F81E091FD84E090FD880F92FD829551
:100BC00081D6F1CF982F955A933020F480E090E0B1
:100BD0000C945E1F885A8B3120F480E090E00C94D6
:100BE000851F08951F93CF93DF93182FEB0198DF94
:100BF000209731F4812FCFDFDF91CF911F9108959E
:100C00008FE99FE00197F1F700C000002197F0CF36
:100C100060E570E0893311F060E070E0E3CF8115AA
:100C200011F04AD6D4C60895811511F04BD6CFC61F
:100C30000895A0E0B0E0EFE1F6E00C94A4296C0187
:100C4000D62FC72FFC011581068102950F7029D67A
:100C5000E82E8115E9F0E12E1115D1F08C2F807F5F
:100C6000803461F08D2F805E883098F18C2F807EEB
:100C7000803221F4D23068F1011559F180910503D9
:100C800082FF27C082E0BFD60CD691E08927E82EEC
:100C90008C2F82958F70883009F4CAC068F5843033
:100CA000D0F4823008F438C08C2F8F70F82EC07FBB
:100CB000C03219F0F29480EFF822D13008F456C017
:100CC00009F47EC0111509F487C0011509F467C045
:100CD00036C0E12CDDCF09F48FC0E11409F4D8C08F
:100CE000DCD580FDD5C0F6011582D1D53BD2C60139
:100CF00083D1CDD545D2CCC0893009F40BC18A5FF0
:100D00008F70823050F7D23F09F011C18C2F8F7154
:100D100011110BC127D2B9C00C2F0F70C03110F0C8
:100D20000295007F111581F0011549F08D2F805E2D
:100D3000883010F0D11105C0802FBED548D68D2F38
:100D400021C0802FCDD5FACF8D2F25DF011509F4D5
:100D5000C4CF8D2F805E883010F0D11103C0802F5A
:100D6000B1D502C0802FC2D532D6B7CF809105034E
:100D700082FD11C0111541F0F11419F08F2D9CD591
:100D800026D680E0CDDEA9CF80E005DFF11409F49E
:100D9000A4CF8F2DE5CF111551F0013018F48F2D10
:100DA0003EDF9BCF09F099CF8F2DBCD596CF011197
:100DB00094CF8F2D39DF8F2DC0D58F2DA5D58DCF19
:100DC000111521F0063008F088CFE9CF053008F082
:100DD00084CF8F2D29DF81CF0115D9F3D93349F481
:100DE0008FEF97EE23E0815090402040E1F700C064
:100DF00000008D2FD0DE71CF8C2F86958695837065
:100E0000813060F009F069CF8D2F9C2F9370111104
:100E100002C080E090E00E94851F5FCF8D2F9C2F45
:100E20009370111102C080E090E00E945E1F55CFC8
:100E30008C2F8370C1F5111128C04D2F4295469516
:100E40004770440F440F2D2F2F7030E0042E02C046
:100E5000220F331F0A94E2F780E090E0D4FF09C02C
:100E60008FE090E002C0880F991F4A95E2F78095C5
:100E70009095C695C695C370822B932BC23079F09E
:100E8000C33079F0C13049F046D10E94401FF2DDF5
:100E9000CDB7DEB7E8E00C94C02936D1F6CF42D109
:100EA000F4CF30D1F2CF111559F1C0FFEECF4D2F55
:100EB000429546954770440F440F2D2F2F7030E018
:100EC000042E02C0220F331F0A94E2F780E090E064
:100ED000D4FF09C08FE090E002C0880F991F4A95A7
:100EE000E2F780959095C695C695C370822B932B9B
:100EF000C23061F0C33061F0C13031F066D1C5CF8E
:100F0000823008F4C2CFD3CF59D1BFCF65D1BDCF86
:100F100016D1BBCFCF70111529F08C2F23D18D2F77
:100F20007EDEB3CF8D2F80DE8C2F2AD1AECF58F44A
:100F3000D03FB1F0D13F79F01115B9F1011591F120
:100F40008D2FEEDDA2CFD33FB1F0D43FA9F7809132
:100F5000050382FD18C08C2F8F71111531F3DACE85
:100F6000111539F0053008F090CF8C2F8F7118D102
:100F70008CCF0630F8CF111521F08C2F8F71E9D06E
:100F800084CFE4D082CF111529F063E08C2F8F71CC
:100F900023D57BCF81E037D5023008F476CF82E0CD
:100FA00032D573CF8C2F8F71B5CE011571F0D93337
:100FB00049F48FEF97EE23E0815090402040E1F715
:100FC00000C000008D2FE7DD60CF8C2F8F71ADCF7B
:100FD0000F931F93CF93DF93EC01688179818D810B
:100FE000B8D18C0100D18DD0B801CE0122DEDF91C5
:100FF000CF911F910F910895CF93DF93EC018C81D6
:10100000811581F0CE0195DC81110FC04AD4811584
:1010100049F08D81811531F08091050382FF02C076
:1010200082E0F1D4DF91CF910895CE01D1DFCE01DE
:101030006EDCF8CF811511F053D4C9C40895811521
:1010400011F054D4C4C4089580E090E00E945E1F63
:1010500080E090E00E94851F51D4B9C40E9408200E
:10106000F3CF3BD4FBCF282F92959F70963099F009
:1010700060F4925F9F70923030F4203FB1F038F40A
:1010800081E0283E38F080E008959A5FF3CF81E058
:10109000243FC9F7089591E0813F09F090E081E095
:1010A000283E08F080E0892B089581E00895FC0136
:1010B0002481211521F08081918142D1D4CF80E01B
:1010C0000895A6E0B0E0E7E6F8E00C94AA29269699
:1010D000E2E00C94C629A7E0B0E0E1E7F8E00C9468
:1010E000AA292796E2E00C94C6290895FECF089518
:1010F000FDCF0895FADFFCDF80930702909308028A
:1011000008950895F7CF08952091070230910802BD
:10111000822B932BEFCF209107023091080282237C
:101120009323E8CF2091070230910802822793276A
:10113000E1CFDBCF0895FDCF0895D7CF0895FDDF30
:10114000FADF8093050290930602089580E090E014
:10115000F6CF21E030E002C0220F331F8A95E2F77C
:10116000C901EDCF21E030E002C0220F331F8A9584
:10117000E2F78091050290910602822B932BDFCF3C
:1011800021E030E002C0220F331F8A95E2F720955C
:101190003095809105029091060282239323CFCF50
:1011A00021E030E002C0220F331F8A95E2F78091E0
:1011B00005029091060282279327C1CF2091050254
:1011C00030910602822B932BBACF209105023091E9
:1011D000060282239323B3CF2091050230910602A9
:1011E00082279327ACCF0895CF93C1E061FDC4E07F
:1011F00060FDCC0F62FDC29593E0769567959A9558
:10120000E1F7660F771F660F771F460F571FFA012A
:1012100040E050E090E06191DF019C01042E02C0AB
:10122000369527950A94E2F72695220B26272C233C
:1012300026272E934F5F5F4F4430510561F7CF91C2
:101240000895A82FA77023E0969587952A95E1F732
:10125000880F991F880F991F680F791FFB0140E0C5
:1012600050E080E0219130E00A2E02C036952795AB
:101270000A94E2F72170042E01C0220F0A94EAF7C3
:10128000822B4F5F5F4F4430510561F70895282F3F
:10129000862F911107C0622F70E041E052E02530A7
:1012A00040F008959C5F9230E0F7622F70E04DEFC0
:1012B00051E09ACF282F892F911105C061E072E08B
:1012C000253030F008958C5F823028F46DEF71E0A6
:1012D000822F90E0B6CF80E00895CF92DF92FF9208
:1012E0000F931F93CF93DF936C0100910502109130
:1012F00006028091070290910802082B192BCFE07B
:10130000D0E081E090E00C2E02C0880F991F0A9473
:10131000E2F780239123892B61F4219790F7F12C38
:101320008F2DDF91CF911F910F91FF90DF90CF9084
:101330000895FC2EB6018C2FC0D5019771F3F0CF24
:10134000CF93DF93EC01C9DFBE01B7D5DF91CF9119
:1013500008950F931F93CF938B019091FC019115EA
:1013600031F0CB01EDDFCF911F910F9108958115E1
:1013700051F0CB01B2DFC82F682FC80188DFB80158
:101380008C2F9BD5F0CFCB0195DFC82FF8CF0F93D3
:101390001F930091090280910A02801303C01F91DC
:1013A0000F91089587E0089FF0011124E55FFD4F3C
:1013B00020813181428153816481758186818BDEF8
:1013C0000F5F1F4F0770E7CF209143023091440217
:1013D0004091450250914602609147027091480247
:1013E0008091490278CE80914902803170F48091D9
:1013F0004802811551F0E091090220910A023091D2
:101400004402409143022E1301C00895BF0187E0BA
:10141000E89FF0011124DF01A55FBD4F14968C9168
:101420001497811549F111968C911197831324C05B
:101430008C91841321C015968C91159781111CC035
:1014400012968D919D91A0914502B09146028A1B02
:101450009B0B883C910580F4809149028F708061DC
:1014600080934902EF5EFD4F80818F7080618083A1
:1014700083E492E0C1DD8BCF6F5F7F4FFB01E770AC
:10148000C2CFE091090290910A02E91302C080E004
:1014900008959F0157E0E59FF0011124E55FFD4F9E
:1014A0005181561306C05081581303C055815413FF
:1014B00005C02F5F3F4FF901E770E7CF81E0089546
:1014C0008F929F92AF92BF92DF92EF92FF920F9313
:1014D0001F93CF93DF93CDB7DEB72D970FB6F89458
:1014E000DEBF0FBECDBF8C0186E0F801DE0118968D
:1014F00001900D928A95E1F7F801F580848193E4DB
:10150000892E92E0992E90914702911117C0811572
:1015100009F4EFC0F11409F42EC1C801C8DD81152A
:1015200009F429C187E0F801D40101900D928A9550
:10153000E1F7C401EDDA57DF47DFDBC0E080A280CE
:10154000B380D09048022091450230914602A50117
:10155000421B530BD11409F4CFC0483C510508F08D
:101560009EC0811509F4C5C090914402918080917C
:101570004902803108F065C0991226C0909143025B
:101580009E1122C0F11057C08F7080618093490274
:101590001BDF83E492E030DD80914902F80186830D
:1015A000F12C8F2D2D960FB6F894DEBF0FBECDBF58
:1015B000DF91CF911F910F91FF90EF90DF90BF903F
:1015C000AF909F908F900895F11035C040E0692D45
:1015D0008E2D57DF40E0692D8E2D53DFF82E8111BF
:1015E000DFCF88859985ACDE292F22952F70903426
:1015F00050F49F70223078F0911591F0F8019681A7
:10160000903170F4CECF2A5F2F70223070F0C80175
:10161000F3DCFD2CC6CF911519F0811509F4C1CF6B
:10162000805E883008F4BDCFF2CF803F08F4B9CF98
:10163000815F8330F7CF80914902816080934902B6
:10164000AFCF991207C0909143029E1103C0F114CD
:1016500009F473C0C8012BDD811509F48CC0F114A5
:1016600009F489C080914902803280F020914302C0
:101670003091440229833A83AB82BC829091470225
:101680009D831E828F83CE010196B6DC87E0F80130
:10169000A3E4B2E001900D928A95E1F74CCF9091CE
:1016A0004902903188F4488559856A857B858C8507
:1016B0009D8507DD83E492E09FDCF40187E01192D1
:1016C0008A95E9F781DE6CCF811599F0209144026B
:1016D00081812813BFCF809143028E11BBCFF110BF
:1016E000B9CF9683C80188DCF40187E011928A950E
:1016F000E9F7FF24F39455CF483C510508F03EC06C
:101700008115B9F3F114B9F19091440281819813D4
:1017100029C0809143028E1125C08091490280FD2D
:1017200018C08031B0F08683807F803F39F0868199
:10173000982F907F905F8F70892B8683C8015CDC27
:1017400087E0F801A3E4B2E001900D928A95E1F7F9
:10175000F3CE87E0F801A3E4B2E001900D928A9500
:10176000E1F7C7CFC801A3DC811190CF8091490276
:10177000816080934902C8013FDCBBCF4885598511
:101780006A857B858C859D859CDC97CFAEE0B0E03B
:10179000ECECFBE00C94A929288739874A875B8702
:1017A0006C877D878E87CE0108968ADE6C858115D1
:1017B00099F0611539F0288539854A855B857D85E5
:1017C0008E8589DC8091090290910A0289133DC0BF
:1017D0002E96E3E00C94C52987E09E01285F3F4FD9
:1017E000F90127503109D90101900D928A95E1F74D
:1017F000611541F3A0910A028A2F90E083958770CA
:1018000090E0AC01209109022417150691F097E0B1
:101810009A9FD0011124A55FBD4F9E012F5F3F4FBE
:10182000F90101900D929A95E1F740930A02AFDD1C
:10183000C9CF17DC10920A0210920902E3E4F2E029
:1018400087E011928A95E9F7BDCF17E0189FC00194
:101850001124855F9D4F34DE811509F4B9CFE091E5
:1018600009021E9FF0011124E55FFD4F20813181A7
:10187000428153816481758186812DDC80910902CA
:1018800090910A0201968770809309029BCF809104
:1018900052028695869586950895809152028770AA
:1018A000089590915202977081E0911101C080E0FB
:1018B000089580915E02089590915E02982B909316
:1018C0005E0208958095982F80915E02892380930F
:1018D0005E02089580935E02089510925E0208955C
:1018E00090915D02982B90935D0208958095982FBA
:1018F00080915D02892380935D02089510925D02BC
:1019000008950895FECF089590915302292F28231A
:1019100029F08095892380935302F4CF0895089588
:10192000FECF089590915402292F2823281721F0E3
:10193000982B90935402F4CF089590915402292F3C
:10194000282329F08095892380935402E9CF0895B4
:1019500080915402811521F01092540280E0E0CF72
:1019600008950F931F93CF93DF9380910601909179
:1019700007018C01C0915E0280915D02C82B8091AD
:101980005402811529F0C82B0E94AC1F8111E0DFA1
:10199000F801C083C0910601D091070148E050E0F2
:1019A0006AE472E0CE010E94332A892B59F088E064
:1019B000FE01AAE4B2E001900D928A95E1F7CE0112
:1019C0000E94511FDF91CF911F910F910895C9CFB0
:1019D00008950895FECF08959091050392FF0EC0DB
:1019E000982F990F990F990F962B90935202BADB6B
:1019F00080915202869586958695ECCFB3CB109256
:101A0000520280E0E7CF9091520280958923809323
:101A10005202282F277059F4891749F09091050335
:101A200092FF05C0869586958695AADBE8CF089536
:101A30009091050392FB222720F9281749F080FB9B
:101A400092F99093050384E093E048D082E0DBCFE5
:101A5000089580910503002482FF0394802DE8CF30
:101A600081E0E6CF80E0E4CF80E090E0BC010CC4F0
:101A700080E090E0BC0102D4F7CFA4E0B0E0E3E462
:101A8000FDE00C94AA2955D360D31C82CE010496A4
:101A900073D381E090E0809307021092080278D31C
:101AA000198284E18A83CE01019683D3D7D51B8224
:101AB000CE01039690D3DCDF2496E2E00C94C62995
:101AC000DCCF089548C3089535C308954AC30895E7
:101AD00059C308955DC3089560C308956AC3089506
:101AE0006FC3089578C308957CC30895AEC3089565
:101AF000D1C30895A6E0B0E0E0E8FDE00C94A82989
:101B00000E94EF208C0180915F029091600280170B
:101B1000910779F019821A820E94EF20BC01498155
:101B20005A8180E090E00E94590500935F02109373
:101B300060022696E4E00C94C4290E94FB20609386
:101B40006A0270936B0280936C0290936D026093B3
:101B50006602709367028093680290936902089509
:101B60000E94FB2060936A0270936B0280936C0268
:101B700090936D026093620270936302809364029B
:101B800090936502089508950895FDCF08950895EE
:101B9000FEDFFBCF0C94C50208950895FEDFFACF57
:101BA00081E590E151D4F0DFF3CF81E0089581E049
:101BB0000895FBCF0895089508950895FCDFFCDF94
:101BC000FCCF82DF811101C07BDF8EE692E07EDFF9
:101BD00084E093E081DF7CDF95DA809105029091CB
:101BE0000602A9CA0E94E6200E94321AB2D3E9DF97
:101BF0000E9439050E9421190E94EC17CFCFA6E060
:101C0000B0E0E5E0FEE00C94A529D1DF81110DC024
:101C100071DF0E94C9180E948D1A8111A1DF0E94F4
:101C200041052696E7E00C94C1299BD310916102EF
:101C300080E03BD3181761F380916E0281FD3BD3A6
:101C4000B8DFD82E80E031D3E82E80916102E8120F
:101C500002C073DFDECF8E25182F00E0FF24F3943F
:101C6000812F8F2139F40F5FFF0C0530C9F7E09207
:101C70006102EFCFD114B9F309831A820E94EF20D9
:101C80008B839C8381E08D8391E08E2D8F2109F4DD
:101C900090E049815A816B817C818D810E94590538
:101CA000E2CF0F931F93CF93DF9309D1EC01D2358D
:101CB00008F050C0D03508F0C8C0C03ED10530F59E
:101CC000CD3CD10508F09DC0C83AD10578F4C53A9D
:101CD000D10508F093C0C130D105B1F1CE01049710
:101CE000813A910588F1C0E0D0E02EC0CE01885A3B
:101CF00091094B97C0F7C85AD0E0CC0FDD1FCF59E0
:101D0000DE4F0990D881C02DD4641EC0D034A8F411
:101D1000D03208F0ADC0C83ED105B0F0CE01915030
:101D20009F3108F78D2F6ED1082F8C2F90E0C7D0F0
:101D3000D02FDF71C82FD92B07C08C2F90E0BFD0D8
:101D4000DF70C82FD92BD06ACE01DF91CF911F91C0
:101D50000F910895C03882E5D807B8F5C03682E5FE
:101D6000D80708F056C0C03482E5D807C8F4C0329E
:101D700082E5D80708F047C08C2F8695869520E22B
:101D8000829FC0011124C37021E030E002C0220F05
:101D9000331FCA95E2F7E901C82BD92BDD68D4CFF0
:101DA0008C2F86958695877020E2829FC001112432
:101DB000C37021E030E002C0220F331FCA95E2F762
:101DC000E901C82BD92BDC68BFCFC03C82E5D8071E
:101DD00050F48C2F8F71C03AD24580F5982F84EF44
:101DE000906AEC01B1CFCE01805C9245809708F0FB
:101DF0007ACFDC2FDF71C0EFD06AA6CFA497D06472
:101E0000A3CFD065A1CF8C2F8F71D82FC1EFD06A0F
:101E10009BCF8C2F86958695877020E2829FC0018C
:101E20001124C37021E030E002C0220F331FCA9595
:101E3000E2F7E901C82BD92BDA6886CFE3D0982FD7
:101E400080E09F71EC01D0627FCF8C2F8F71DAD050
:101E500053E0CC0FDD1F5A95E1F7DF70282F84FF88
:101E600004C090E1899F90011124C22FD0696CCFEA
:101E70008D2F8F71C7D0082F8C2F90E020D0302F5E
:101E80003F71282F392B3062E9015ECF462F711147
:101E900005C0653078F460E00C94B1037D3F31F407
:101EA000611108C041E060E00C94C4037C3F11F470
:101EB0006115C9F380E090E00895E8DFF2CE803E3E
:101EC0009105D1F1C8F48133910509F481C048F43A
:101ED0008932910509F471C08A32910509F47FC0F5
:101EE000089589339105E1F082389105C9F0853371
:101EF000910509F45DC00895843E9105D1F148F43F
:101F0000823E910531F1833E910541F181EE90E0F1
:101F10000895863E9105C1F1873E9105F1F108953E
:101F200020910403237009F064C02091050323FF6E
:101F300014C089E290E008952091040320FD45C07B
:101F40003091050330FF09C024FD24C083EE90E0EA
:101F500008952091040322FDF7CF089520910403F2
:101F600022FD44C03091050330FD43C024FFF5CF6E
:101F700011C02091050321FFF0CF8091040384FD5F
:101F800009C087EE90E008952091040323FFE5CF78
:101F900024FFF7CF80E090E008952091040323FD13
:101FA0002BC03091050331FFE1CF84EE90E008951E
:101FB0002091040325FFD1CFBCCF2091040325FD40
:101FC0001EC02091050323FFC8CF89E390E0089548
:101FD0002091040326FFC1CF8AE290E0089520916A
:101FE000040326FFBACF81E390E0089582EE90E0EB
:101FF000089580EE90E0089586EE90E0089585E3E0
:1020000090E008959091040392FF10C041E0282FC2
:102010002471243009F040E031E0282F2871283065
:1020200009F030E0431711F02CE0822793FF10C035
:1020300041E0282F2471243109F040E031E0282FBD
:102040002871283109F030E0431711F02CE0822785
:102050003091050330FF10C051E0282F217121304D
:1020600009F050E041E0282F2871283009F040E0C5
:10207000541711F029E0822731FF10C041E0282FCA
:102080002171213109F040E031E0282F28712831F9
:1020900009F030E0431711F029E0822794FD877E94
:1020A000089580E00895CF939C01205E3245C1E001
:1020B0002032310538F4FB01C581C11103C08F7195
:1020C0000E94ED048C2FCF9108959C01FB01858126
:1020D000811599F02B359CE7390769F02C359CE781
:1020E000390721F02A353C4721F00895B2DC80E021
:1020F0000895B6DCFCCFB6DCFACF81E008959C01F0
:10210000FB018581811599F021309CE7390761F049
:1021100023309CE7390739F021153C4749F40E94E8
:10212000150580E00895CEDC0E941905FACF81E004
:102130000895089580E090E00E94562A9C0181E075
:10214000233E3E4F09F080E0089563EE7EEF80E08D
:1021500090E00C94752A6FEF7FEF80E090E00C9494
:10216000752ACF93DF93EC0182E090E00E94492A28
:102170008883DF91CF910895FC01608182E090E037
:102180000C945B2A83E090E00E94492A90E0089535
:10219000682F83E090E00C945B2ACF93DF93EC01EF
:1021A00084E090E00E94562A88839983DF91CF9142
:1021B0000895FC016081718184E090E00C94752A9F
:1021C000CF93DF93EC018CE090E00E94492A888352
:1021D000DF91CF910895FC0160818CE090E00C9438
:1021E0005B2A8F929F92AF92BF92CF92DF92EF9233
:1021F000FF920F93CF93DF93EC0188E090E00E9471
:10220000512A4B015C01688399828A83BB821C82BC
:102210001D821E821F8283E290E00E94492A94015F
:10222000A50188823983AA825B838C831D821E82EA
:102230001F82DF91CF910F91FF90EF90DF90CF90B1
:10224000BF90AF909F908F9008950F93CF93DF939F
:10225000EC01488159816A817B8188E090E00E948D
:102260006D2A6C81262F60E070E0CB01622F83E243
:102270000E945B2ADF91CF910F910895AB01BC01C1
:102280008FE090E00C946D2AAB01BC0183E190E0FB
:102290000C946D2A682F8EE090E00C945B2A0895D0
:1022A000FECF08950895FECF0895E82FF0E0E95F8E
:1022B000FC4F808108950895CF93DF93A7E9B1E0A3
:1022C0002CE931E061E08D918F3F31F42A173B0713
:1022D000D1F7DF91CF910895E82FE295EF70F0E00C
:1022E00041A18F70C62F01C0CC0F8A95EAF79C2FB1
:1022F0009095942391A392A18C2F892B82A3E6CF52
:10230000CF93AC0185E0689FD0011124A956BE4F40
:1023100070E0C1E080E09D919F3F79F0E92FE29568
:10232000EF70E05EF0E0208130E09F7002C03595F4
:1023300027959A95E2F79C2F20FD90E0892B7F5FEF
:10234000CC0F753041F7460F511DFA018083CF91B4
:102350000895B2DF109207031092060381E023D0A4
:102360009FCFA1E0B0E0E7EBF1E10C94A92919823D
:1023700060E0CE010196C4DF90910603898121E0DF
:1023800098130EC020E041E067E073E086E093E040
:102390000BD0182F88DF812F2196E3E00C94C529FC
:1023A00080930603F0CF0895A0E0B0E0EAEDF1E1FC
:1023B0000C94A4297C016B01042FC22F211579F004
:1023C00081E0809371020E94EF2080936F029093CE
:1023D000700280E0CDB7DEB7E8E00C94C029D09160
:1023E0007102D115B1F380916F02909170020E9439
:1023F0008020059770F310E0A801B701C6010E9484
:10240000332A892B31F0A801B701C6010E94402A66
:10241000CD2F109271028C2FDDCFF1CB08950E9449
:1024200089200E94A322BCDB0E94BB22DBDB0E942E
:10243000C4220E94C722F1DF0E94DD220E948C216B
:102440000E94ED1CBBDBF5CF8093EE019093EF0172
:102450000895CF93DF93EC01FB018581811104C0C6
:1024600081E0DF91CF91089524DA8272FE01E0527B
:10247000F847EB30F105A0F7E355F54D0C948429AE
:10248000A3D580E0EECF811521F092D5FACF81154A
:10249000E1F382D5F6CF811521F02AD2F2CF811552
:1024A000E1F31CD2EECF811521F03CD2EACF8115A9
:1024B000E1F32BD2E6CF811521F04ED2E2CF811588
:1024C000E1F33DD2DECF811521F0F3D0DACF8115D3
:1024D000E1F3E0D0D6CFA0E0B0E0E1E7F2E10C9488
:1024E000A329062FB72EE82F71110EC0411521F038
:1024F000F0E0EC52FE4FE4916E2F7E2F8E2FCDB781
:10250000DEB7E9E00C94BF29411521F0F0E0EC5270
:10251000FE4FE49186E0089FE00111242FEF30E0A8
:10252000CE01B9010E943B29AB01C801880F991F58
:10253000F5E5F49FB001F59F700D1124861B682FFF
:10254000660F680FC9018B199109E89FD001E99FB7
:10255000B00D11248B2FB69E60011124CD2CD12CEF
:1025600089010C191D096801E09F7001E19FF00CC1
:1025700011244330510551F18901061B1109B09E08
:102580006001B19ED00C1124CD2CD12C2C193D0909
:10259000E29F8001E39F100D1124712FCC3FD340A7
:1025A00050F441305105B1F04230510561F47E2FB5
:1025B000EB2F812F08C04430510579F0463051058A
:1025C00011F07B2F8F2D6E2FE82F98CF7F2D8E2F20
:1025D000EB2FF9CF7E2FEF2DF6CF8E2FE12F7B2F14
:1025E000F2CF41E078CF0895FCCF089590910B0190
:1025F000291B922FE091C901F091CA01242F462F87
:10260000682F892F90E009950895CF93DF93762F57
:10261000E901682F842FE8DF962F672F9E01482F4E
:10262000892FE4DFDF91CF910895413808F040E829
:10263000ECCF80910803843060F4837084608093D1
:10264000080380910B03813818F080E880930B0316
:1026500008958C3AB0F38370886AF1CF85E0809357
:102660000803109209038FEF80930A0310920B0363
:1026700010920C0388E093E039CA90910C039330D8
:1026800018F49F5F90930C03811519F088E093E094
:102690002DCA089581E0F1CF90910C03911519F0A6
:1026A000915090930C03811519F088E093E01ECAB5
:1026B000089581E0F1CF0F931F93CF93809108038A
:1026C00080FF09C0E091CD01F091CE010995CF9135
:1026D0001F910F910895C0910D018091C9019091B2
:1026E000CA018C0180910E01C81760F780910B011F
:1026F0009C2F981B20E040E060E0892F90E0F801DB
:102700000995CF5FEFCFEF92FF920F931F93CF9377
:10271000DF93D82FF62EE42E8091080380FF0CC0A3
:10272000C0910D018091C9019091CA018C018091E5
:102730000E01C81730F0BFDFCDB7DEB7E6E00C946E
:10274000C22980910B019C2F981B2E2D4F2D6D2F90
:10275000892F90E0F8010995CF5FE9CF762F90910E
:10276000080390FF0BC0413808F040E8682F842F21
:102770003BDF962F672F482F892FC5CF0895CF9322
:10278000DF93EC01EC81F0E0E153FF4F4491E8E08E
:10279000F3E062818181E2DF8C818F5F8C83DF9146
:1027A000CF910895CF93DF93EC01E8E0F3E043810C
:1027B00062818C81D3DF8C818F5F8C83DF91CF919D
:1027C0000895CF93DF93EC0120910B039C81892F17
:1027D000817090FD822F692F627091FD622F492FC9
:1027E000447092FD422F8FDF8C81019687708C831D
:1027F000DF91CF910895A0E0B0E0E1E0F4E10C9426
:10280000A529D82FE62EC42FD22E9091080390FF31
:1028100024C0292F26952695E22FF0E0E456FE4F9E
:102820008081809396029C7F9430E1F4842F41381C
:1028300008F080E86D2F7E2DD7DE962F672F482F6A
:10284000892F61DFD0930903E0920A03C0930B0341
:10285000D11419F088E093E049D9CDB7DEB7E7E0AD
:102860000C94C129823019F4C0910B03EBCF863050
:1028700019F4D0910903E6CF8930D9F3893111F7E2
:1028800087EEF82EF20EEF2DE695F0E0E153FE4FC5
:10289000049110E060910F01161710F00CDFD2CFF9
:1028A000109FC001112470E00E943B29862F8D0FDC
:1028B000F0FE02C08D2F861B20910D01210F3327C2
:1028C000331F4C2F6E2DB1DE1F5FE4CFE8E0F3E045
:1028D000282F438162818181885F8DCF81E0F6CF8F
:1028E000E8E0F3E0282F438162818181885083CF23
:1028F00081E0F6CFE8E0F3E0628121E1620F08F4C5
:102900006FEF282F4381818176CF81E0F3CFE8E01C
:10291000F3E0628121E1621B08F460E0282F43812B
:10292000818169CF81E0F3CFE8E0F3E0438121E1E9
:10293000420F08F44FEF282F628181815CCF81E044
:10294000F3CFE8E0F3E0438121E1421B08F440E0EB
:10295000282F628181814FCF81E0F3CF20E04BCFE0
:102960009091080390FF11C0253078F490910B01ED
:10297000291B922FE091C901F091CA01242F462F03
:10298000682F892F90E0099596CE0895CF93762FE2
:10299000C22F9091080390FF0CC0413808F040E826
:1029A000682F842F21DE962F672F2C2F482F892FF9
:1029B000D7DFCF9108950F931F93CF938C01C0E081
:1029C00060910F01C61768F076DEF801848192816C
:1029D00090FF1DC08F5FF8018483CF911F910F91ED
:1029E000089520910D012C0F3327331F70E08FEFD6
:1029F00090E00E944F29F801848140910B03C69F0B
:102A0000800D112460910A0310DECF5FD9CF815071
:102A1000E2CFAF92BF92DF92EF92FF920F931F939C
:102A2000CF93DF93FC018281D1E080FDDFEFC0E036
:102A30008091C9019091CA015C0180910F01C81772
:102A4000B8F039DE80917302D13009F050C08111A5
:102A500002C080910F01815080937302DF91CF916A
:102A60001F910F91FF90EF90DF90BF90AF9008956E
:102A700080910D0190910B01891B8C0F20E040E0AB
:102A800060E090E0F501099504E010E0D12CEC2E17
:102A9000F12C809173028D0D86301CF165E00E944F
:102AA0002E29892F082E001C00088E150F0499F47A
:102AB00080910D019701280F311D40910B030403F4
:102AC000A0011124559547955595479560910A03A6
:102AD00080910903AADDDD0E01501040D1F6CF5FD1
:102AE000ACCF87FFDFCF90910F01890FDBCF90E054
:102AF000019660910F0170E00E944F29ADCF0F93B6
:102B00001F93CF93C0910D018091C9019091CA018B
:102B10008C0180910E01C81750F1C0E08091C9016D
:102B20009091CA018C0160910F01C61768F1C3DD55
:102B30008091090190917202980F909372022091F6
:102B40000A01280F20930A01121654F420910F0154
:102B50002150330B092E001C0008921703061CF0AD
:102B6000819580930901CF911F910F9108958091D4
:102B70000B019C2F981B20E040E060E0892F90E043
:102B8000F8010995CF5FC5CFEC2FF0E070E0CF01E1
:102B90000E944F2920910D01820F90917202092EFF
:102BA000001C0008E917F0059CF090910A01092E1D
:102BB000001C00089E170F065CF0282F30E04091A3
:102BC0000B0360910A03809109032FDDCF5FABCF28
:102BD00090910B01891B20E040E060E090E0F8015B
:102BE0000995F4CFA0E0B0E0E8EFF5E10C94A2295C
:102BF000EC01FC812F2F30E0D9010E9413299B01A9
:102C0000AC010E9490297B018C0180E290E08F1B37
:102C10009109FC01A5E59701A8010E9490295B019B
:102C20006C019F01DF010E940D299B010E948A29EE
:102C30009B01AC012E0D3F1D401F511FB501C60168
:102C40000E946229022F30E00A3220F5A901440FC8
:102C5000551F420F531F55954795142F1095F12C72
:102C600085E5801BE82E80910F01F81600F123DD29
:102C70009C8181E0911519F0903219F48FEF8093C7
:102C8000080180910801890F8C83CDB7DEB7EAE097
:102C90000C94BE2985E590E0821B930BAC01440F98
:102CA000551F480F591FBAF64F5F5F4FD4CF8E2D77
:102CB000F1FC802F20910D012F0D3327331F412F61
:102CC00060910A03B2DCF394CECF0F931F93CF939E
:102CD000DF938C01C0E0D0E090910F01C917D105BE
:102CE0005CF0E9DCF8018481019681708483DF91D6
:102CF000CF911F910F910895F801448180910D01AA
:102D00009E01280F311D60910A0380910903969559
:102D1000C917D1053CF4411539F040910B0385DC0E
:102D20002196DACF4115C9F340E0F9CFA0E0B0E039
:102D3000ECE9F6E10C949E29FC018281882E9480B6
:102D400081E08483EFECF0E0A490EEE4F1E0E49124
:102D5000C0910B03C695C158D0E0CC0FDD1FED2EFE
:102D6000F12CB12C05E01FEFEA198E2F90E03C0109
:102D700080910F01B81630F09EDCCDB7DEB7EEE0E3
:102D80000C94BA29CB2CD12C882D833058F40B9D70
:102D9000F0011124EC58FD4F80910903808380914C
:102DA0000A03818391101BC00C9DF0010D9DF00D55
:102DB0001124EC58FD4F1382128280910D0196016F
:102DC000280F311D0C9DF0010D9DF00D1124EC58C4
:102DD000FD4F42816181808128DCB394C9CF0C9D75
:102DE000E0010D9DD00D1124CC58DD4F8B81811554
:102DF000E1F081508B83189FC00111246C8170E039
:102E00000E943B2970E0FB01E153FF4F84918A1936
:102E1000189FC0011124B3010E943B2980910B032C
:102E2000689FB00111247A83C8CF0E94182A6FEFDF
:102E300070E00E944F298E159F050CF0BECF882DA3
:102E4000833090F00E94182A6FEF70E00E944F29A3
:102E500088830E94182A20910A032695622F70E029
:102E60000E944F29280F29830C9DF0010D9DF00D24
:102E70001124EC58FD4F128280910B03893C58F0CD
:102E800088EC0C9DF0010D9DF00D1124EC58FD4FC8
:102E90008483838392CF8431A0F784E1F2CF809141
:102EA00008038E7F8093080388E093E00E94760DEC
:102EB0001092970200CC809108038E7F80930803C4
:102EC00010929702F8CB1092970280919402811190
:102ED00009C081E0809394028091080381708093FF
:102EE0009302E9CF0895609108036695669570E0B6
:102EF0004BE050E080E191E00E94262A892B19F4F2
:102F000081E0809397020E94EF2080938D0290933E
:102F10008E0208959091080390FF2CC0811559F1FD
:102F20008B3258F58F73880F880F90910803937038
:102F3000892B80930803611521F088E093E00E94BB
:102F4000760D609108036695669570E04BE050E061
:102F500080E191E00E94262A892B89F01092970245
:102F600081E08093900240910B0360910A0380916D
:102F70000903F4CC089581E0D6CF8AE2D4CFB3DF41
:102F8000EFCF682F9091080396959695892F8F5FC4
:102F90008B3208F081E0BECF81E0F3CF682F9091B3
:102FA000080396959695892F815009F48AE2B2CF4D
:102FB00081E0F4CF61E0AECF80910803816080931F
:102FC000080386958695F6CF8091080380FF01C09F
:102FD00066CFF2CF60E09ECF8091950281111FC035
:102FE00088E093E00E94740D80910803843028F4F7
:102FF00035DB88E093E00E94740D1BDB1092970292
:10300000E091C701F091C80109958091080380FF04
:1030100003C086958695DEDF81E080939502089552
:103020008091080381608093080386958695D2CFAE
:1030300010929402809193028111F2DF54CF0F938A
:103040001F93CF93DF9380919702811509F441C0BC
:1030500080919602E0910803E695E695E81BE093DF
:103060008F02853109F48BC008F044C0893009F41F
:103070007CC0A0F5823009F466C0863009F46CC0CB
:10308000C0EDD7E003EF12E180919002811561F06D
:10309000109290020E94EF2080938D0290938E02F6
:1030A00010929102109292020E94EF2020918D02C4
:1030B00030918E02821B930B8F3F9F4750F42C0F51
:1030C0003D1F20938D0230938E028DE892E0F8012F
:1030D0000995DF91CF911F910F9108958F3081F65F
:1030E000E695F0E0EE53FF4FE491CE2FD0E009E0FB
:1030F00015E1CACFC4EFD1E005E616E1843221F232
:1031000088F4C8E2D0E002EF15E1883109F4BCCFC1
:10311000833209F0B5CFEDEBF0E0C591D49101EE2B
:1031200013E1B2CF853209F0ABCF8E2F63E00E945E
:103130002229E92FF0E0E654FF4FE491CE2FD0E0B2
:1031400006E916E1A1CFF0E0E553FF4FE491CE2F61
:10315000D0E00FEB13E198CFF0E0E853FF4FE4919C
:10316000CE2FD0E002ED13E18FCFE695F0E0EB53E8
:10317000FF4FE491CE2FD0E00BED14E185CFF0E0CE
:10318000E154FF4FE491CE2FD0E00FE715E17CCF63
:10319000089555CF08950895FB012581211539F033
:1031A00097FF05C09F77BC0180E090E01AD181E0D5
:1031B00008950F931F93CF93DF93EC018B01FB01D5
:1031C0008581811581F00E94590C8272FE01E053C5
:1031D000FC47E830F10538F4E854F54D0C948429A7
:1031E000811559F042D0B801CE01D6DFDF91CF91E1
:1031F0001F910F9108958115A9F336D0F4CF80E087
:1032000027D0F1CF81E0FCCF82E0FACF83E0F8CF86
:1032100084E0F6CF85E0F4CF90911103923069F409
:103220008A3048F4875F90E06AE070E00E944F299E
:10323000875A0C9408068650FCCF6DC50895FECFC2
:10324000089581E193E00E94700D80911103F7CF02
:10325000CF93C82F8093110381E193E00E94720DF8
:103260008C2FEDDFCF9108950895089518D680939F
:10327000100390911103913029F481FF03C089E379
:103280000E9408060E94590C809312030E946D0C44
:103290000E947E0C809111038230B9F030F48111CC
:1032A0000FC082EE0E94900504C0843011F1853079
:1032B00029F18FE39CE90197F1F700C00000089520
:1032C00088E193E00E942B04F4CF8091100380FDED
:1032D00003C083E50E94080682EE0E9490058FE3FA
:1032E0009CE90197F1F700C0000087E50E940806FD
:1032F000E0CF86EE0E94080688E1F8CF8BE191E0EE
:103300000E942B0485E290E00E942B0488E290E06A
:10331000D9CF809111038230D1F030F481110CC0EB
:1033200082EE0E94CB0504C08430D1F08530D1F00C
:10333000809112030C946A0C8CE20E940806809122
:10334000100381FFF5CF89E30E940806F1CF82EEDA
:103350000E94CB058091100380FDEACF83E5F4CF76
:1033600088E2F2CF88E290E00E942B04E1CFA0E057
:10337000B0E0EDEBF9E10C94A2295B016C01D09176
:1033800011038CE1E82EF12C07E010E021E0C501EB
:10339000D6010E2C04C0B695A795979587950A94EB
:1033A000D2F7C82FCF70211531F0D43041F4CA3094
:1033B00030F080E031DF8C2F2FDF20E005C0C1111D
:1033C000FACF04301105BCF30150110984E0E81A6A
:1033D000F1080F3F1007D9F6CDB7DEB7EAE00C943D
:1033E000BE29CF92DF92EF92FF926B017C0181E1C7
:1033F000E816F10438F40E2C0F2849F080911103DF
:10340000823049F4FF90EF90DF90CF9008952EDF47
:10341000B601C70121C02ADF809111038111F8CFC5
:1034200081E0E81AF1088D2D9E2DAF2DB0E0A69514
:1034300097958795A695979587959852AF4FBF4FCB
:10344000BC01CD0194DF83E0D822E12CF12CB60140
:10345000C70174528F4F9F4F8ADF5BDFD3CF0C942D
:10346000D50D0895E9E9F2E088E011928A95E9F72F
:10347000F5C0FC01228130E02395237030E0938178
:1034800081E09217130609F080E008950F931F93CF
:10349000CF93DF93EC01162F042FEBDF811114C0C3
:1034A0008A81FE01E80FF11D912F00FB97F99483AB
:1034B0008F5F83708A8388818F5F888381E0DF914B
:1034C000CF911F910F91089580E0F9CFFC01A38166
:1034D00082818A17B1F0AE0FBF2FB11D14968C9167
:1034E00087FB992790F98F77DB018C93DA019C9306
:1034F00083818F5F8370838381818F5F818381E08C
:10350000089580E00895462F682F89E992E0BECFA4
:10351000AB01BC0189E992E0D9CFAEE0B0E0E3E9CC
:10352000FAE10C94A42980919802811551F010922F
:10353000980280919B0280939C02809199028093D3
:103540009A02C6D08CDFE82E811551F1E12C0CEFE8
:103550008DEFF82E1DC0CD84DE84D982C11429F1EF
:10356000FA823DD632E0E32EBC0149815A818E2D8C
:1035700091E00E945905DF82C114E1F0F8862FD650
:10358000BC014F8158858E2D90E00E945905E12E97
:10359000CE010D96BC010196BBDF182F8111DBCF48
:1035A0008E2D2E96E8E00C94C0290A8318D623E0CD
:1035B000E22EDACF0887E3CF8FE891E00197F1F7A9
:1035C00000C00000089522E9611101C020E93AB16C
:1035D0002F7081E001C0880F2A95EAF7982F909507
:1035E00093239AB99BB1892B8BB9089522E9611174
:1035F00001C020E989B190E02F7002C095958795B0
:103600002A95E2F7817008950895CF93DF93C0E083
:103610008091A102C81750F0CFDFC0E08091A102D5
:10362000C81760F0F1DFDF91CF91089560E08C2F33
:10363000CADF61E08C2FC7DFCF5FEACF60E08C2F5D
:10364000D5DFD82F61E08C2FD1DFEC2FF0E0ED55E6
:10365000FD4F880F8D2B8083CF5FE0CF81E080937B
:10366000A102D3CF1F93CF93DF93182F440F642B66
:10367000C82FD0E0DE01AD55BD4FEC918E2F837089
:10368000681711F1EE0FEE0FE62BEC93EF70F0E000
:10369000E153FE4FCE55DD4F80819881890F88839D
:1036A00084301CF060E0812F2EDF88818D3F1CF478
:1036B00061E0812F28DF8881982F990F990B64E0B2
:1036C00070E00E944F298883DF91CF911F91089568
:1036D000CF93DF93C0E08091A102C81718F0DF916B
:1036E000CF91089561E08C2F81DFD82F60E08C2F7F
:1036F0007DDF4D2F682F8C2FB5DFCF5FECCF3F9A4A
:103700000895FC01EE0FFF1FE80FF91FED5EFC4F5F
:103710006183408322830895FF920F931F93CF9379
:10372000DF93182F062FF42EC0E0D0E02F2D402F6E
:10373000612FCE01E6DF2196C530D105B9F7CDB7AF
:10374000DEB7E5E00C94C32938B13F7728B1206893
:103750004FB7F89483E193E0FC010196508168E053
:1037600028B9000000C057FF38B9550F000000C04D
:1037700000C000C038B900C06A9591F753E08232AA
:10378000950751F74FBF8FE594E00197F1F700C01F
:10379000000008958F929F92AF92BF92EF92FF9296
:1037A0000F931F93CF93DF93FC0149015A010097B8
:1037B00061F480E0DF91CF911F910F91FF90EF9026
:1037C000BF90AF909F908F9008956115710589F318
:1037D00081149104A104B10461F30115110549F3A9
:1037E000EC0180E090E02881211130C04091F0028E
:1037F000942F9F5F911511F1DF0120E030E08C9153
:103800008917E1F02F5F3F4F199626173707B9F751
:10381000892F8093F002911561F28883ECD4860E93
:10382000971EA81EB91E89829A82AB82BC820D8324
:103830001E83EF82F8868091F002BCCF892F8F5FC4
:10384000491711F0982FD6CF90E0E3CF0196299633
:103850008617970741F6ADCFEF92FF920F931F9314
:10386000CF93DF9378018901009731F161157105DC
:1038700019F1E114F10401051105F1F04115E1F030
:10388000EC0180E090E02881241311C0B4D46E0DC7
:103890007F1D801F911F8B019C0169831A838B837D
:1038A0003C8381E0CDB7DEB7E6E00C94C2290196F7
:1038B00029968617970739F780E0F4CF8F929F9269
:1038C000BF92CF92DF92EF92FF920F931F93CF930D
:1038D000DF938C014B01EA018ED46B017C0188815E
:1038E0009981AA81BB819601A701281B390B4A0B3C
:1038F0005B0BC901DA01181619061A061B0654F4E7
:10390000C882D982EA82FB82E80100E010E0081553
:10391000190561F4DF91CF911F910F91FF90EF9006
:10392000DF90CF90BF909F908F900895B880B11492
:1039300039F169817A818B819C819B01AC012C19C1
:103940003D094E095F0909F0DAF44F815885ED8190
:10395000FE810995AB01BC0188818B1111C0411515
:1039600051056105710581F089819A81AB81BC8126
:10397000840F951FA61FB71F89839A83AB83BC83CF
:103980000F5F1F4F2996C3CF188219821A821B829C
:103990001C821D821E821F821886F2CFEF92FF9238
:1039A0000F931F9379018A019B01AC0168E070E0DD
:1039B00084EA92E0EFDE1F910F91FF90EF9008955F
:1039C0000F931F938A019B01482F68E070E084EAFF
:1039D00092E042DF1F910F9108954CEE52E068E0B3
:1039E00070E084EA92E06ACFCF93DF93EB018631F7
:1039F0009C4709F50E94590C9D81911599F08A7A8E
:103A000091E0811101C090E09093F102811541F0A5
:103A100085E3F2D20E94E70C80E0DF91CF91089518
:103A200089E2F7CF8091F102811519F085E3EAD29E
:103A3000F1CF89E2FCCF81E0F0CFCF93DF93EC01AF
:103A4000FB018581811509F4CBC09E0130572332DB
:103A5000310508F0ABC084E093E00E946C0DFE01DC
:103A6000E150F047E232F10520F4E054F54D0C94BA
:103A700084298091040381608093040390C0809125
:103A800005038860809305038AC0809104038260E7
:103A9000F3CF809104038460EFCF809104038860AA
:103AA000EBCF809105038160EDCF809105038260AB
:103AB000E9CF809104038061DFCF809104038062AD
:103AC000DBCF809104038064D7CF0E9431088091BE
:103AD00004038068D1CF809104038C60CDCF8091A6
:103AE00005038360CFCF809104038E7FC5CF809183
:103AF0000503877FC7CF809104038D7FBDCF809161
:103B000004038B7FB9CF80910403877FB5CF809169
:103B100005038E7FB7CF809105038D7FB3CF809152
:103B200004038F7EA9CF809104038F7DA5CF809160
:103B300004038F7BA1CF0E943108809104038F770B
:103B40009BCF80910403837F97CF809105038C7F67
:103B500099CF90910403892F8B7F92FF8460877F98
:103B600092FF886089CF80910503982F909590FBF4
:103B700080F990FB81F986CF90910403892F8F7B88
:103B800096FF806479CF0E94310890910403892FB9
:103B900097FB87F9805870CF81E00E94780D84E010
:103BA00093E00E946E0D0E94310880E0DF91CF917A
:103BB000089580E0F2CF90910403892F8F7E94FFC7
:103BC00080615ACF90910403892F8E7F90FF81608E
:103BD00053CF90910503892F877F93FF886052CF41
:103BE00081E0E4CFA0E0B0E0E8EFFDE10C94A32990
:103BF000E82FF0E0EC52FD4F9491B92E282F269536
:103C00002695269530E0F901EC58FC4FE49087703A
:103C1000F12C082E02C0F594E7940A94E2F7F9011A
:103C2000EC59FC4FC490D12C082E02C0D594C794F7
:103C30000A94E2F72C5A3C4FF901049110E002C0BB
:103C4000159507958A95E2F7C62FD0E0E0FC25C0D0
:103C5000C0FE06C086EE0E949005CE01009759F581
:103C6000BE018B2D0E94F205CE01009761F5C0FCCC
:103C700032C0E0FE06C081EE0E94CB05CE01009767
:103C8000C1F500FF05C08CE20E9408062097C9F527
:103C9000CDB7DEB7E9E00C94BF2981EE0E94900514
:103CA000CE010097A9F2EFE9FFE03197F1F700C0EC
:103CB00000000197F6CFEFE9FFE03197F1F700C080
:103CC00000000197CBCFEFE9FFE03197F1F700C09B
:103CD00000000197CACF86EE0E94CB05CE01009767
:103CE00041F2EFE9FFE03197F1F700C000000197E2
:103CF000F6CFEFE9FFE03197F1F700C00000019740
:103D0000BECF8FE99FE00197F1F700C00000219737
:103D1000BDCF60E067CF982F9F709A50963010F01B
:103D2000805DF7CF895AFDCF0F931F93CF93DF9319
:103D3000C42FD22FFC0185818115C9F04093F40274
:103D40004ED28093F2029093F3028C2F805E8830E3
:103D500048F481E0C1FD84E0C0FD880FC2FD82957A
:103D60000E940F06DF91CF911F910F91089510913E
:103D7000F402141333C08091F2029091F302C0D187
:103D8000883C910558F5CD2FC05E1D17C1F0812FDD
:103D9000805E883048F481E011FD84E010FD880FDA
:103DA00012FD82950E941406C83048F481E0D1FDCE
:103DB00084E0D0FD880FD2FD82950E940F06802FEF
:103DC0000E94080681E0D1FD84E0D0FD880FD2FD7D
:103DD0008295C83038F60E941406C4CF8C2F805EBE
:103DE000883008F0BFCF81E0C1FD84E0C0FD880FBE
:103DF000C2FD8295F0CF0F93FC01CB01E851FC4747
:103E0000E730F10588F5EE51F54D0C94842906E272
:103E100021EE41EE6AE17CE787DF80E00F910895B3
:103E200007E225EE45EE6BE17CE7F6CF06E221EEF8
:103E300040EE68E17CE7F0CF07E225EE44EE69E171
:103E40007CE7EACF06E221EE42EE6CE17CE7E4CFCC
:103E500007E225EE46EE6DE17CE7DECF08E221E0E9
:103E600045EE6EE17CE7D8CFFB0185818111109290
:103E7000F40281E0D3CF8093F9029093FA0208957F
:103E8000E091F902F091FA02309739F00190F08157
:103E9000E02D309711F00995089580E00895F0CF56
:103EA0000895E091F902F091FA02309731F0028022
:103EB000F381E02D309709F009950895A3E0B0E073
:103EC000E4E6FFE10C94AA292091F7023091F80270
:103ED00028173907B1F08093F7029093F802E09128
:103EE000F902F091FA02309761F00084F185E02D3B
:103EF000309739F023E029838A839B83CE01019692
:103F000009952396E2E00C94C629A3E0B0E0EBE823
:103F1000FFE10C94AA292091F5023091F6022817AE
:103F20003907B1F08093F5029093F602E091F9021F
:103F3000F091FA02309761F00084F185E02D30971E
:103F400039F024E029838A839B83CE010196099569
:103F50002396E2E00C94C629409106015091070196
:103F60009A012E5F3F4F485F5F4F80E0F9019081DB
:103F70002F5F3F4F91118F5F42175307B9F7089595
:103F8000811591F02091060130910701F9013296D7
:103F9000285F3F4F9081981731F03196E217F30771
:103FA000C9F780E0089581E008959C01FC013296F4
:103FB00080E09FEF4081461759F031969F3F19F4FA
:103FC000411101C0982F8F5F8630A1F79F3F09F400
:103FD0000895290F311D97FD3A95F90162830895DF
:103FE000FC01329608962191261302C0DF011E9231
:103FF000E817F907C1F70895682F8091060190919D
:104000000701D3CF682F8091060190910701E8CF77
:10401000E0910601F0910701329686E011928A95AF
:10402000E9F708950895FECF08958F5F80931E01EC
:1040300060911B0170911C0180911D0190911E01E6
:10404000F2CF83E080931E0160911B0170911C01EF
:1040500080911D0190911E01E6CFE7CF089581E088
:1040600080931E0160911B0170911C0180911D01C4
:1040700090911E01D8CFF3CF089591E0811101C036
:1040800090E090931D0160911B0170911C01809143
:104090001D0190911E01C7CF80911D01089580934D
:1040A0001C0160911B0170911C0180911D01909178
:1040B0001E01B9CF80911C01089580931B0160916E
:1040C0001B0170911C0180911D0190911E01ABCFCD
:1040D00080911B01089508950895FECF08950895D5
:1040E0000895F9CF0895FBDF0E94B111F9DF80E058
:1040F0000E945511982F81E0911101C080E0089530
:10410000CF93DF93EC016BD08C1B9D0BDF91CF9194
:10411000089585B7806885BF85B7806885BF089595
:104120001F921FB61F9211248F939F93AF93BF933B
:104130008091FB02811113C080912203909123038F
:10414000A0912403B09125034196A11DB11D809338
:10415000220390932303A0932403B0932503BF91DC
:10416000AF919F918F911F901FBE1F9018958091C6
:104170002A03843031F10E941D051092FB0288E170
:1041800090E020E40FB6F894A895809360000FBEED
:104190002093600083B7817F846083BF83B7816091
:1041A00083BF7894889583B78E7F83BF0FB6F894CA
:1041B000A8958091600088618093600010926000F3
:1041C0000FBE08950E9431080C94230582E084BD3F
:1041D00093E095BD9AEF97BD80936E0008952FB739
:1041E000F8948091220390912303A0912403B0912D
:1041F00025032FBF08952FB7F89460912203709183
:10420000230380912403909125032FBF0895789470
:104210001F921FB61F9211248F939F93AF93BF934A
:104220008091220390912303A0912403B091250350
:104230000196A11DB11D8093220390932303A093A7
:104240002403B0932503BF91AF919F918F911F904D
:104250001FBE1F90189587E797E7809300089093FB
:10426000010888E19AE00FB6F894A8958093600061
:104270000FBE90936000FFCF88E19AE00FB6F894EC
:10428000A895809360000FBE90936000FFCF0895C3
:1042900008959B01BA0190912A039430D9F48F704C
:1042A0008093E9009FEF8091E80085FD06C085EDD1
:1042B0008A95F1F700009150B1F78091E80085FFF1
:1042C00009C040E050E0C901ECD18091E8008E7750
:1042D0008093E8000895603229F440E250E0BC0188
:1042E00082E0D7CF089543E050E0BC0184E0D1CF15
:1042F000CF93DF93EC01D0DE48E050E0BE0181E0D7
:10430000C8DF88E0FE01ACEFB2E001900D928A9523
:10431000E1F7DF91CF910895A0E2B0E0E2E9F1E2A8
:104320000C94AA2980912A038430F9F483E08093C5
:10433000E9008091E80082FF18C08091E80090E0D9
:1043400085FF07C040E050E0BD01CE010196F5D1E8
:1043500091E08091E8008B778093E800911529F037
:1043600060E2CE0101960E94CB18A096E2E00C9488
:10437000C62980912903811107C066D3B6D38091E5
:10438000E20084608093E20008951092290308956A
:1043900066DE81E072CE6091260381E0611101C08A
:1043A00080E04FCE90912A0381E0943009F080E0C4
:1043B0006091260352CE42E061EC81E0C1D242E23C
:1043C00061EC84E0BDD242E261EC82E0B9D242E22B
:1043D00060EC83E0B5D290912A0381E0943009F03B
:1043E00080E06091260321CE80912C03893081F1F9
:1043F00048F4823009F497C0833009F458C0813002
:1044000041F008958A3009F481C08B3009F469C005
:10441000089580912B03813A09F048C08091E8000B
:10442000877F8093E80080912F0390913003892B40
:1044300059F060E080E090E070E0CBD18091E8003E
:104440008B778093E800089568E08CEF92E0F4CFDA
:1044500080912B03813251F580912F03909130038D
:104460008D7F892B19F58091E800877F8093E80084
:104470008091E80082FF16C02091F3008091F20045
:10448000922F029731F48091F100813011F0863043
:1044900019F48091F10003DE8091E8008B7780931E
:1044A000E80082C280912A038111E2CF08958091B1
:1044B0002B03813AD9F780912F0390913003892BF8
:1044C000A9F78091E800877F8093E8008091E80059
:1044D00080FFFCCFE1DD8093F1008091E8008E77D2
:1044E000DECF80912B03813209F780912F039091C9
:1044F0003003892BD9F68091E800877F8093E8000C
:1045000053D280912D03B9DD0C94310880912B0397
:10451000813261F68091E800877F8093E80044D281
:1045200080912E03CACD80912B03813A09F0BECF32
:104530008091E800877F8093E8008091E80080FF09
:10454000FCCFC6DDC8CF84B7877F84BF0FB6F89491
:10455000A89580916000886180936000109260004F
:104560000FBE80E890E00FB6F894809361009093BE
:1045700061000FBE80CD68D2B8D2E2EEF0E080815B
:1045800084608083789415C58FE191E074CC80912C
:104590002A03853029F480912A03853011F012CE48
:1045A0000895E5DDA0DD8115B1F380912803811523
:1045B00091F361D00E943108EECF08959A014091A5
:1045C00031035091320300C0492F50E04330510570
:1045D000D1F078F44130510509F448C0423051051A
:1045E00071F48BE590E04AEB53E0F901408351838D
:1045F000089541325105E9F04232510539F180E028
:1046000090E040E0F2CF482F50E0813061F042303E
:10461000510561F0E6EBF3E04115510581F7849116
:1046200090E0AF01E2CFE6E9F3E0F9CFE4E8F3E0B0
:10463000F6CF6330710518F7660F771FFB01E8515D
:10464000FE4F4081518189E090E0CFCF633071050A
:10465000B0F6FB01EE0FFF1FEE51FE4F408151817E
:1046600061527E4FFB01808190E0BFCF82E190E0FC
:1046700045E154E0BACF80E189BD82E189BD09B44A
:1046800000FEFDCF8091D8008F7D8093D80080916F
:10469000E00082608093E0008091E00081FDFCCF2B
:1046A0000895AF92BF92CF92DF92EF92FF921F9345
:1046B000CF93DF937C01EB016A0195D1182F811113
:1046C00022C0C114D10439F0F60180819181C81B48
:1046D000D90BE80EF91EA12CB12C2097A1F08091E6
:1046E000E80085FD20C08091E8008E778093E80087
:1046F000C114D10499F0F601808191818A0D9B1D2E
:104700008083918315E0812FDF91CF911F91FF90DE
:10471000EF90DF90CF90BF90AF90089564D1811556
:10472000F1F2182FF0CFF70181917F018093F10012
:1047300021978FEFA81AB80AD0CFAF92BF92CF922D
:10474000DF92EF92FF921F93CF93DF937C01EB01F7
:104750006A0149D1182F811122C0C114D10439F046
:10476000F60180819181C81BD90BE80EF91EA12C9E
:10477000B12C2097A1F08091E80085FD20C08091A8
:10478000E8008B778093E800C114D10499F0F6011A
:10479000808191818A0D9B1D8083918315E0812FFB
:1047A000DF91CF911F91FF90EF90DF90CF90BF905E
:1047B000AF90089518D18115F1F2182FF0CF8091A4
:1047C000F100F70181937F0121978FEFA81AB80AB2
:1047D000D0CFFC0180913103909132038617970767
:1047E00020F06115710561F0CB0140E0009771F494
:1047F00041110CC08091E80082FF36C080E008952E
:104800008091E8008E778093E800EECF20912A0314
:104810002115B1F12530B1F12091E80023FD2EC022
:104820002091E80022FDE6CF2091E80020FFDECFB6
:104830004091F3002091F200342F009719F02830B6
:10484000310558F041E02830310509F040E0209171
:10485000E8002E772093E800C9CF41914093F10002
:1048600001972F5F3F4FE9CF80912A03811541F0D7
:10487000853041F08091E80083FFBCCF81E008954E
:1048800082E0089583E00895FC01809131039091C6
:1048900032038617970720F06115710561F0CB018F
:1048A00040E0009771F441110CC08091E80082FF54
:1048B00037C080E008958091E8008E778093E8000B
:1048C000EECF20912A032115B9F12530B9F12091BD
:1048D000E80023FD2FC02091E80022FDE6CF2091C3
:1048E000E80020FFDECF4091F3002091F200342F4A
:1048F000009719F02830310558F041E02830310593
:1049000009F040E02091E8002E772093E800C9CF1D
:1049100044914093F100319601972F5F3F4FE8CFCC
:1049200080912A03811541F0853041F08091E800A3
:1049300083FFBBCF81E0089582E0089583E008956E
:10494000982F973028F08F708093E90081E00895C8
:104950009093E900242F762F50E0981731F0709152
:10496000EC002091ED005091F00021FD02C09F5F0E
:10497000E8CF3091EB003E7F3093EB003091ED00BB
:104980003D7F3093ED003091EB0031603093EB00D0
:104990007093EC002093ED005093F0002091EE0016
:1049A00027FDE5CF80E0089580912B0387FF13C09A
:1049B0008091E80082FF06C08091E8008B778093A9
:1049C000E800089580912A038111F2CF0895809123
:1049D0002A038115D9F38091E80080FFF8CF8091F8
:1049E000E8008E77ECCF2091E4003091E50095E669
:1049F000A9012091EC00822F817020FF06C08091D8
:104A0000E80080FF06C080E008952091E80022FDC4
:104A10001AC080912A03811589F0853089F0809130
:104A2000EB0085FD0FC02091E4003091E5004217B6
:104A30005307F9F29150E1F684E0089582E0089579
:104A400083E0089581E008955FD066D0E0EEF0E065
:104A5000808181608083E8ED80818F77808319BCBD
:104A6000A7EDB0E08C918E7F8C9380818F7E8083C8
:104A7000109229030895CF93DF9346D04DD0C8ED0F
:104A8000D0E088818F778883888180688883888157
:104A90008F7D888319BC10922A03109226031092EE
:104AA000280310922703E0EEF0E080818B7F808363
:104AB00088818160888342E060E080E041DFE1EE50
:104AC000F0E080818E7F8083E2EE80818160808350
:104AD000808188608083E0EE80818E7F8083888102
:104AE00080618883DF91CF910895E8EDF0E08081C7
:104AF0008F7E8083E7ED80818160808384E082BF48
:104B000081E080932903B7CFE8EDF0E080818E7FCC
:104B100080831092E20008951092DA001092E10072
:104B200008951F920F920FB60F9211242F933F9367
:104B30004F935F936F937F938F939F93AF93BF93A5
:104B4000EF93FF938091E10082FF0AC08091E20021
:104B500082FF06C08091E1008B7F8093E10028D224
:104B60008091DA0080FF18C08091D80080FF14C0C7
:104B70008091DA008E7F8093DA008091D90080FFE7
:104B80008FC080E189BD82E189BD09B400FEFDCFFF
:104B900081E080932A03EDDB8091E10080FF18C063
:104BA0008091E20080FF14C08091E2008E7F8093AC
:104BB000E2008091E20080618093E2008091D80061
:104BC00080628093D80019BC85E080932A03E3DBE0
:104BD0008091E10084FF28C08091E20084FF24C01E
:104BE00080E189BD82E189BD09B400FEFDCF8091DD
:104BF000D8008F7D8093D8008091E1008F7E8093D4
:104C0000E1008091E2008F7E8093E2008091E200DB
:104C100081608093E20080912603811509F445C0EC
:104C200084E080932A03BEDB8091E10083FF27C0EC
:104C30008091E20083FF23C08091E100877F809311
:104C4000E10082E080932A03109226038091E10024
:104C50008E7F8093E1008091E2008E7F8093E2005E
:104C60008091E20080618093E20042E060E080E0B9
:104C700067DE8091F00088608093F00089DBFF910F
:104C8000EF91BF91AF919F918F917F916F915F91C4
:104C90004F913F912F910F900FBE0F901F9018953D
:104CA00019BC10922A0371DB77CF8091E30087FF54
:104CB00002C083E0B6CF81E0B4CF1F920F920FB64F
:104CC0000F9211241F932F933F934F935F936F93F2
:104CD0007F938F939F93AF93BF93CF93DF93EF9384
:104CE000FF93E9EEF0E080811091EC008F7010FBF3
:104CF000112717F9182B1082C0EFD0E08881877F29
:104D0000888378941CD0E9EEF0E010828881886076
:104D100088831F701083FF91EF91DF91CF91BF9136
:104D2000AF919F918F917F916F915F914F913F9143
:104D30002F911F910F900FBE0F901F901895AAE210
:104D4000B0E0E4EAF6E205C38BE293E0FC010196F1
:104D50002091F100208323E083339207B9F744DBED
:104D60008091E80083FF37C080912B0390912C0342
:104D70009A3088F5E92FF0E0E751F54DC5C280384B
:104D800089F0823841F580912F038F70873018F5B4
:104D90008093E9008091EB0085FB882780F91092D1
:104DA000E90006C080912803880F90912703892B82
:104DB0009091E800977F9093E8008093F100109223
:104DC000F1008091E8008E7722C0811115C080919A
:104DD0002D03813001F18091E80083FF0AC08091AA
:104DE000E800877F8093E8008091EB0080628093E9
:104DF000EB00AA96E3E0C9C2823069F780912D03E7
:104E0000811579F01092E9008091E800877F809306
:104E1000E800CADDE0CF933009F080E080932803FA
:104E2000F1CF80912F038F70282F2150263098F6D4
:104E30008093E9002091EB0020FFE4CF933031F420
:104E40008091EB0080628093EB00DCCF9091EB00CF
:104E500090619093EB0021E001C0220F8A95EAF760
:104E60002093EA001092EA008091EB008860EBCF7B
:104E70008111B1CF80912D038F77182F8091E3009E
:104E80008078812B8093E3008091E800877F809376
:104E9000E8008ADD8091E80080FFFCCF8091E3008C
:104EA00080688093E30083E0111101C082E0809369
:104EB0002A0391CF8058823008F08DCF80912D0346
:104EC00090912E038C3D23E0920789F583E08A833D
:104ED0008AE289834FB7F894DE01139620E03EE022
:104EE00051E2E32FF0E050935700849120FF03C07C
:104EF00082958F703F5F8F708A30B8F0895C8D9398
:104F00001D922F5F243169F74FBF8091E800877FA2
:104F10008093E8006AE270E0CE0101965ADC80914D
:104F2000E8008B778093E80056CF805DE8CF6091F2
:104F30002F03709130039E012F5F3F4FA9013EDB8D
:104F4000BC01892B09F447CF9091E800977F90939B
:104F5000E80089819A8198DCE2CF803809F03BCF64
:104F60008091E800877F8093E800809126038093FA
:104F7000F10027CF81112FCF90912D03923008F0AF
:104F80002ACF8091E800877F8093E80090932603E2
:104F90000BDD80912603811529F084E080932A039C
:104FA0000ADA19CF8091E30087FDF7CF81E0F6CFD1
:104FB0000895CF9380912A03811591F08091E900A3
:104FC000C091EC008F70C0FBCC27C7F9C82B1092A2
:104FD000E9008091E80083FDB2DECF70C093E90064
:104FE000CF9108955058BB27AA270ED0B4C0A5D0A2
:104FF00030F0AAD020F031F49F3F11F41EF49AC093
:105000000EF4E095E7FB90C0E92FB6D080F3BA1715
:10501000620773078407950718F071F49EF5CEC0F8
:105020000EF4E0950B2EBA2FA02D0B01B9019001C3
:105030000C01CA01A0011124FF27591B99F0593F07
:1050400050F4503E68F11A16F040A22F232F342F4F
:105050004427585FF3CF469537952795A795F0409D
:105060005395C9F77EF41F16BA0B620B730B840BB2
:10507000BAF09150A1F0FF0FBB1F661F771F881F6A
:10508000C2F70EC0BA0F621F731F841F48F48795C2
:1050900077956795B795F7959E3F08F0B3CF9395B1
:1050A000880F08F09927EE0F979587950895E89453
:1050B00009C097FB3EF490958095709561957F4F60
:1050C0008F4F9F4F9923A9F0F92F96E9BB2793950E
:1050D000F695879577956795B795F111F8CFFAF41E
:1050E000BB0F11F460FF1BC06F5F7F4F8F4F9F4F4F
:1050F00016C0882311F096E911C0772321F09EE8AD
:10510000872F762F05C0662371F096E8862F70E012
:1051100060E02AF09A95660F771F881FDAF7880FEC
:105120009695879597F9089597F99F6780E870E0BD
:1051300060E008959FEF80EC089500240A9416160D
:10514000170618060906089500240A941216130675
:10515000140605060895092E0394000C11F4882303
:1051600052F0BB0F40F4BF2B11F460FF04C06F5F1F
:105170007F4F8F4F9F4F089557FD9058440F551FF5
:1051800059F05F3F71F04795880F97FB991F61F0C9
:105190009F3F79F087950895121613061406551F40
:1051A000F2CF4695F1DF08C0161617061806991FAC
:1051B000F1CF86957105610508940895E894BB27A1
:1051C00066277727CB0197F9089503D008F48FEF6E
:1051D0000895990F0008550FAA0BE0E8FEEF161688
:1051E0001706E807F907C0F012161306E407F507DB
:1051F00098F0621B730B840B950B39F40A2661F04F
:10520000232B242B252B21F408950A2609F4A140F1
:10521000A6958FEF811D811D089505D0332312F4CB
:105220008A1B9B0B78C0A29FB001B39FC001A39FB4
:10523000700D811D1124911DB29F700D811D1124CF
:10524000911D0895992778E0880F991F961708F007
:10525000961B881F7A95C9F78095089587FB082EBD
:10526000062687FD819567FD6195ECDF0EF491952B
:1052700007FC81950895AA1BBB1B51E107C0AA1F1B
:10528000BB1FA617B70710F0A61BB70B881F991FE7
:105290005A95A9F780959095BC01CD01089597FB8B
:1052A000072E16F4009406D077FD08D0E4DF07FC43
:1052B00005D03EF4909581959F4F08957095619526
:1052C0007F4F0895A1E21A2EAA1BBB1BFD010DC042
:1052D000AA1FBB1FEE1FFF1FA217B307E407F507A6
:1052E00020F0A21BB30BE40BF50B661F771F881F82
:1052F000991F1A9469F760957095809590959B0118
:10530000AC01BD01CF010895EE0FFF1F0590F49190
:10531000E02D099488DFB7FF0895821B930B089551
:1053200082DFA59F900DB49F900DA49F800D911DCD
:10533000112408952F923F924F925F926F927F9225
:105340008F929F92AF92BF92CF92DF92EF92FF9295
:105350000F931F93CF93DF93CDB7DEB7CA1BDB0B41
:105360000FB6F894DEBF0FBECDBF09942A883988E6
:1053700048885F846E847D848C849B84AA84B984ED
:10538000C884DF80EE80FD800C811B81AA81B981F9
:10539000CE0FD11D0FB6F894DEBF0FBECDBFED010D
:1053A00008958F929F92AF92BF92CF92DF92EF9229
:1053B000FF92CF93DF93EC01688179818A819B8191
:1053C000611571058105910521F464E279ED8BE5A4
:1053D00097E02DE133EF41E050E09BD049015A01C5
:1053E0009B01AC01A7EAB1E49BDF6B017C01ACEE51
:1053F000B4EFA5019401ABD0DC01CB018C0D9D1D58
:10540000AE1DBF1DB7FF03C00197A109B048888337
:105410009983AA83BB839F77DF91CF91FF90EF9011
:10542000DF90CF90BF90AF909F908F900895B9CFAD
:1054300080E091E0B6CFB0E0A0E0809300019093CF
:105440000101A0930201B09303010895FC014150B2
:10545000504030F001900616D1F73197CF010895F2
:10546000882799270895FB01DC0104C08D910190E4
:10547000801921F441505040C8F7881B990B0895BA
:10548000FB01DC0102C001900D9241505040D8F761
:105490000895F999FECF92BD81BDF89A992780B5FC
:1054A0000895A6E1B0E044E050E025C0A8E1B0E0F6
:1054B00042E050E020C0262FF999FECF92BD81BD79
:1054C000F89A019700B4021639F01FBA20BD0FB642
:1054D000F894FA9AF99A0FBE08950396272FECDFF5
:1054E000EADF252FE9DF242FE7CF0196272FE4DF1E
:1054F000E2CFDC01CB01FC01F999FECF06C0F2BD81
:10550000E1BDF89A319600B40D9241505040B8F781
:105510000895052E97FB16F400940FD057FD05D083
:10552000D1DE07FC02D046F408C050954095309576
:1055300021953F4F4F4F5F4F0895909580957095FF
:1055400061957F4F8F4F9F4F0895B7FFE9CEE8DEFB
:10555000821B930B0895F894FFCF40124312471219
:105560004B124F12531257125B125F1263126712E3
:10557000F018FB18FF1802190419061908190A195E
:10558000731DE21D7B1D451D491D7F1D4D1D831D86
:105590008F1D591DDB1D5D1D931D611D971DBC1DBC
:1055A000651D9B1DC31D6B1DA11DA91D511D871DC3
:1055B000551D8B1D6F1DA51DB31DCC1DD91D3F1D78
:1055C000771DE91D161F1C1F071F101F221F281FF4
:1055D0002E1FBF26E526EB26E526EB2638275A2781
:0655E000EB26AD27BA27FF
:1055E60001000000E803550201010200050005055F
:1055F60001191A1B1C1D1E1F202122000001005A22
:105606002078214821472173216B21E200E900EA35
:1056160000B500B600B700CD008301CC008A019228
:105626000194012102230224022502260227022ACE
:1056360002B300B4006F0070009F01CB019F02A06F
:1056460002E200E900EA00B500B600B700CD00832B
:1056560001CC008A01920194012102230224022531
:1056660002260227022A02B300B4006F0070009FD0
:1056760001CB019F02A002379496F6F700010202C1
:1056860002020606060909090909090F0F0F0F0F7D
:105696000F15151518191919191919191919192381
:1056A600242525252525257F1B811B8C1BA41B0056
:1056B600FF0100010000FFFF0000010001FF0044A0
:0E56C60022327B0427044904CC03E5030504CB
:00000001FF
