:100000005FC200007AC2000078C2000076C2000021
:1000100074C2000072C2000070C200006EC2000014
:100020006CC200006AC200000C9432240C94FE24BE
:100030000C94321F62C2000060C200005EC2000069
:100040005CC200005AC2000058C2000056C2000044
:1000500054C200000C94A91F50C200004EC2000000
:100060004CC200004AC2000048C2000046C2000064
:1000700044C2000042C2000040C200003EC2000074
:100080003CC200003AC2000038C2000036C2000084
:1000900034C2000032C2000030C200002EC2000094
:1000A0002CC200002AC2000028C20000A900AA0039
:1000B000447E407E417E427E437E1E0F0500047FCB
:1000C0003F1F643214643214783C1E1E140A052249
:1000D00023252628292A2C2D2F3032333536383A3D
:1000E0003B3D3E4042434547494A4C4E5051535593
:1000F00057595A5C5E6062646668696B6D6F7173B4
:100100007577797B7D7F81838587898A8C8E9092B4
:100110009496989A9C9E9FA1A3A5A7A8AAACAEAFBF
:10012000B1B3B4B6B8B9BBBCBEBFC1C2C3C5C6C704
:10013000C9CACBCCCDCED0D1D2D2D3D4D5D6D7D7B5
:10014000D8D9D9DADADBDBDBDCDCDCDCDCDDDDDDFD
:10015000DDDCDCDCDCDCDBDBDBDADAD9D9D8D7D7F9
:10016000D6D5D4D3D2D2D1D0CECDCCCBCAC9C7C6A6
:10017000C5C3C2C1BFBEBCBBB9B8B6B4B3B1AFAEE4
:10018000ACAAA8A7A5A3A19F9E9C9A98969492908A
:100190008E8C8A89878583817F7D7B797775737162
:1001A0006F6D6B6968666462605E5C5A595755533F
:1001B00051504E4C4A4947454342403E3D3B3A38F8
:1001C00036353332302F2D2C2A292826252322FF9D
:1001D000AA7F554000010101010101010101020254
:1001E00002020202020202030303030303030304E5
:1001F00004040404040405050505050606060606B0
:10020000070707070708080808090909090A0A0A69
:100210000B0B0B0C0C0C0D0D0D0E0E0E0F0F0F100B
:100220001011111112121313141415151616171795
:10023000181819191A1A1B1B1C1D1D1E1E1F202001
:10024000212222232424252626272829292A2B2C4B
:100250002D2D2E2F30313232333435363738393A6E
:100260003B3C3D3E3F404142434445464748494A66
:100270004C4D4E4F50515354555658595A5B5D5E34
:100280005F616264656668696B6C6D6F70727375CF
:1002900077787A7B7D7E8082838587888A8C8E8F33
:1002A00091939596989A9C9EA0A2A3A5A7A9ABAD61
:1002B000AFB1B3B5B7BABCBEC0C2C4C6C9CBCDCF4F
:1002C000D1D4D6D8DBDDDFE2E4E7E9EBEEF0F3F5FD
:1002D000F8FAFDFF00000000000000002A2B2800B3
:1002E00000000000000000000000000000000029E5
:1002F000000000002C1E3420212224342627252E25
:10030000362D3738271E1F2021222324252633335C
:10031000362E37381F0405060708090A0B0C0D0E88
:100320000F101112131415161718191A1B1C1D2F54
:100330003130232D350405060708090A0B0C0D0E74
:100340000F101112131415161718191A1B1C1D2F34
:100350003130354C000000000000000000000000BB
:10036000000000000000000000000000000000008D
:1003700000000000000000007E0F00D4FFFFFFC758
:100380000000007810036200690067004B004E0017
:100390004F00420000001E036C0065006100660013
:1003A0006300750074007400650072006C006100E9
:1003B0006200730000000403090409025B000301EA
:1003C00000A0FA0904000001030101000921110144
:1003D000000122440007058103080001090401000F
:1003E000020300000009211101000122220007057B
:1003F0008203200001070503032000010904020015
:10040000010300000009211101000122320007054B
:1004100084032000011201000200000008EBCE0757
:10042000000100010200010660FF0961A1010962EB
:10043000150026FF00952075088102096315002626
:10044000FF00952075089102C005010980A1018572
:100450000319012AB700150126B70095017510810F
:1004600000C0050C0901A101850419012AA002158B
:100470000126A002950175108100C005010906A1A1
:1004800001050719E029E715002501950875018187
:10049000029501750881010507190029FF1500263D
:1004A000FF0095067508810005081901290515004A
:1004B0002501950575019102950175039101C00013
:1004C00011241FBECFEFDAE0DEBFCDBF11E0A0E008
:1004D000B1E0E8E2F3E502C005900D92AE3EB1074F
:1004E000D9F722E0AEEEB1E001C01D92A13EB20705
:1004F000E1F70E94DF110C944C2982CDCF93C0E02C
:100500002C2F40E060E080E00E949414CF5FC43064
:10051000B9F7CF9108950E94DE1781E00C94B817C7
:10052000A0E0B0E0E6E9F2E00C94452880910401F7
:10053000909105018D01E801A92FAA0FAA0BBA2FEE
:100540006C017D01B601C7010E94FA26DC01CB01D6
:100550006D2F7C2F9801AB01BC01CD010E94862735
:1005600018162CF0CDB7DEB7E8E00C9461284FEFF9
:100570006FEF8BE20E947C148FE79AE126E08150B6
:1005800090402040E1F700C00000B8DF8FE79AE11B
:1005900026E0815090402040E1F700C0000020E0BC
:1005A00030E04AE753E4AD2FBC2FB801CD010E94E3
:1005B00094268B01D82FC92FC5CFCF93FB0182344E
:1005C0002EE7920709F440C050F480342EE79207DA
:1005D00079F181349E4791F181E0CF910895833480
:1005E0002EE79207B9F184349E47B1F785818115D2
:1005F00099F32091F0013091F1012115310511F4A9
:100600008FDFEACF21504FEF6FEF85E50E94941402
:100610008091040190910501009711F46FDFDCCF08
:10062000EFE9FFE03197F1F700C000000197F4CF48
:100630008581811589F281E0CEE112C08581811525
:1006400059F282E0CFE10CC08581811529F283E067
:10065000C0E206C08581811509F4BECF84E0C1E205
:100660008093F0011092F10149DF2091F0012150B7
:100670004FEF6FEF85E50E94941487E499D28FEFD6
:1006800091EE24E0815090402040E1F700C000004E
:1006900087E48ED28FEF91EE24E08150904020408D
:1006A000E1F700C000008C2F83D28FEF91EE24E0A1
:1006B000815090402040E1F700C0000088E278D2ED
:1006C0008091040190910501009709F4A7CFEFE90B
:1006D000FFE03197F1F700C000000197F5CF862BBE
:1006E00069F4453058F4E42FF0E0EE0FFF1FE055B9
:1006F000FF4F85919491282F822F089521E090E05B
:10070000FBCFEDCF0895862B61F481E04827E42FDD
:10071000F0E0EE0FFF1FE455FF4F25913491C90122
:10072000089581E090E00895EECF08959C019150E6
:100730009F31B0F4832F817034FF0AC08295807F8F
:1007400031FD806232FD806433FF0BC08068089504
:1007500031FD826032FD846033FF03C088600895FC
:1007600080E00895CF93DF93EB01E0DFFE01099570
:10077000DF91CF910895CF93DF93EC01805E9109D3
:10078000089720F06AEE77E0209711F46FED75E09E
:10079000CE01E8DF8C2F94D1DF91CF910895CF93D4
:1007A000DF93EC01C8D1CE01805E9109089720F05B
:1007B0006FEE77E0209711F464EE75E0CE01D2DFA2
:1007C000DF91CF9108950F931F93CF93DF938C0107
:1007D000EB01D1DF209739F4C801E1DFDF91CF9140
:1007E0001F910F9108958FE99FE00197F1F700C0E5
:1007F00000002197EFCF60E570E08933910511F09B
:1008000060E070E0E0CF81E0089581E00895FBCFE3
:10081000089581E00895D1CE089508950895FDCFFB
:10082000089508950895A6E0B0E0E9E1F4E00C949D
:100830004A2849835A839E833091F70189819A819E
:10084000311117C03E81311589F0211579F015D588
:10085000182F682F89819A81EAD469817A81812F42
:100860000E94160F2696E3E00C946628F3D4182F06
:10087000F4CF03D569817A81F3CFFC01262F408123
:1008800051816281738184819581CDCFCF93DF9334
:10089000EC0161E0F2DFBE01B8DF811529F061E013
:1008A000CE01EBDFBE01B3DFDF91CF9108950F934F
:1008B0001F93CF93DF93EC0160E0DFDF8C01BE017B
:1008C000ADDFBE01C801ABDFDF91CF911F910F916A
:1008D00008950F931F93CF93DF93EC0161E0CDDF79
:1008E0008C018D8181110E949418BE01C80191DF95
:1008F000811106C080E0DF91CF911F910F91089583
:10090000BE01C80188DF8115A9F3BE01C8010E949C
:10091000A518811579F3BE01C8010E949D1D81159E
:1009200049F3BE01C8010E94BF1B811519F3BE0126
:10093000C8010E94961B8115E9F2BE01C8010E9400
:10094000F7118115B9F2BE01C8010E94231081156B
:1009500089F2BE01C8010E943510811559F2BE010D
:10096000C8010E944F10C7CF21E030E002C0220F23
:10097000331F8A95E2F7C90195C3CF93C82F81E051
:1009800090E00C2E02C0880F991F0A94E2F70E9493
:100990003A0D8C2FE9DFCF91089581E0089581E031
:1009A0000895FBCF0895CF93C82F2BD38C2FF7DF5B
:1009B0008C2FF7DF8FEF94E32CE0815090402040A4
:1009C000E1F700C00000CF91089581E0ECDF0C94C6
:1009D000CD1F80E0E8DF0C94DE1F23DF0E940F1F95
:1009E0001BD00C9431171AD00E94E6171BDF0C9411
:1009F000131F81E008950895CF93DF93C82FF9DF87
:100A0000D82F811511F08C2FF6DF8D2FDF91CF912C
:100A100008950895F1CF089580E0FCCF0E94E21D73
:100A2000F9CFCF930E94E21DC82F8091F2018C175D
:100A300071F0C093F2010E949D1F6093F3017093C7
:100A4000F4018093F5019093F6018C2FE3DFCF91B1
:100A50000895ADE0B0E0EFE2F5E00C944B28488754
:100A600059876A877B878C879D87911117D71F824B
:100A700086E0FE0138969E012F5F3F4FD90101901D
:100A80000D928A95E1F78D8181110CC029813A81FF
:100A90004B815C816D817E818F8148D62D96E2E00D
:100AA0000C946728CE010196F1DE8111EFCFF6CFCD
:100AB000FC012481213019F48081918111C40895B1
:100AC000CF93C82F811581F08450813A78F48C2F10
:100AD0000E94621E811521F08C2F0E94A41E47D710
:100AE0008C2F0E949E1E43D7CF9108958C2F805E3D
:100AF000883048F481E0C1FD84E0C0FD880FC2FD6C
:100B00008295AAD6F0CF8C2F855A833030F48C2F63
:100B10008452990B0E94001EE7CFC85ACB3120F7B0
:100B2000EC2FF0E0EE0FFF1FE55DFE4F808191811D
:100B30000E94271ED9CF811521F1982F9450913A08
:100B400018F40E94A41E13C7982F905E983050F49A
:100B5000982F81E091FD84E090FD880F92FD8295B1
:100B600081D6F1CF982F955A933020F480E090E011
:100B70000C94001E885A8B3120F480E090E00C9495
:100B8000271E08951F93CF93DF93182FEB0198DF53
:100B9000209731F4812FCFDFDF91CF911F910895FE
:100BA0008FE99FE00197F1F700C000002197F0CF97
:100BB00060E570E0893311F060E070E0E3CF81150B
:100BC00011F04AD6D4C60895811511F04BD6CFC680
:100BD0000895A0E0B0E0EFEEF5E00C9445286C013C
:100BE000D62FC72FFC011581068102950F7029D6DB
:100BF000E82E8115E9F0E12E1115D1F08C2F807FC0
:100C0000803461F08D2F805E883098F18C2F807E4B
:100C1000803221F4D23068F1011559F18091B3028C
:100C200082FF27C082E0BFD60CD691E08927E82E4C
:100C30008C2F82958F70883009F4CAC068F5843093
:100C4000D0F4823008F438C08C2F8F70F82EC07F1B
:100C5000C03219F0F29480EFF822D13008F456C077
:100C600009F47EC0111509F487C0011509F467C0A5
:100C700036C0E12CDDCF09F48FC0E11409F4D8C0EF
:100C8000DCD580FDD5C0F6011582D1D53BD2C60199
:100C900083D1CDD545D2CCC0893009F40BC18A5F50
:100CA0008F70823050F7D23F09F011C18C2F8F71B5
:100CB00011110BC127D2B9C00C2F0F70C03110F029
:100CC0000295007F111581F0011549F08D2F805E8E
:100CD000883010F0D11105C0802FBED548D68D2F99
:100CE00021C0802FCDD5FACF8D2F25DF011509F436
:100CF000C4CF8D2F805E883010F0D11103C0802FBB
:100D0000B1D502C0802FC2D532D6B7CF8091B30201
:100D100082FD11C0111541F0F11419F08F2D9CD5F1
:100D200026D680E0CDDEA9CF80E005DFF11409F4FE
:100D3000A4CF8F2DE5CF111551F0013018F48F2D70
:100D40003EDF9BCF09F099CF8F2DBCD596CF0111F7
:100D500094CF8F2D39DF8F2DC0D58F2DA5D58DCF79
:100D6000111521F0063008F088CFE9CF053008F0E2
:100D700084CF8F2D29DF81CF0115D9F3D93349F4E1
:100D80008FEF97EE23E0815090402040E1F700C0C4
:100D900000008D2FD0DE71CF8C2F869586958370C5
:100DA000813060F009F069CF8D2F9C2F9370111165
:100DB00002C080E090E00E94271E5FCF8D2F9C2F05
:100DC0009370111102C080E090E00E94001E55CF88
:100DD0008C2F8370C1F5111128C04D2F4295469577
:100DE0004770440F440F2D2F2F7030E0042E02C0A7
:100DF000220F331F0A94E2F780E090E0D4FF09C08D
:100E00008FE090E002C0880F991F4A95E2F7809525
:100E10009095C695C695C370822B932BC23079F0FE
:100E2000C33079F0C13049F046D10E94E21DF2DDB5
:100E3000CDB7DEB7E8E00C94612836D1F6CF42D1C9
:100E4000F4CF30D1F2CF111559F1C0FFEECF4D2FB5
:100E5000429546954770440F440F2D2F2F7030E078
:100E6000042E02C0220F331F0A94E2F780E090E0C4
:100E7000D4FF09C08FE090E002C0880F991F4A9507
:100E8000E2F780959095C695C695C370822B932BFB
:100E9000C23061F0C33061F0C13031F066D1C5CFEE
:100EA000823008F4C2CFD3CF59D1BFCF65D1BDCFE7
:100EB00016D1BBCFCF70111529F08C2F23D18D2FD8
:100EC0007EDEB3CF8D2F80DE8C2F2AD1AECF58F4AB
:100ED000D03FB1F0D13F79F01115B9F1011591F181
:100EE0008D2FEEDDA2CFD33FB1F0D43FA9F7809193
:100EF000B30282FD18C08C2F8F71111531F3DACE39
:100F0000111539F0053008F090CF8C2F8F7118D162
:100F10008CCF0630F8CF111521F08C2F8F71E9D0CE
:100F200084CFE4D082CF111529F063E08C2F8F712C
:100F300023D57BCF81E037D5023008F476CF82E02D
:100F400032D573CF8C2F8F71B5CE011571F0D93397
:100F500049F48FEF97EE23E0815090402040E1F775
:100F600000C000008D2FE7DD60CF8C2F8F71ADCFDB
:100F70000F931F93CF93DF93EC01688179818D816B
:100F8000B8D18C0100D18DD0B801CE0122DEDF9125
:100F9000CF911F910F910895CF93DF93EC018C8136
:100FA000811581F0CE0195DC81110FC04AD48115E5
:100FB00049F08D81811531F08091B30282FF02C02A
:100FC00082E0F1D4DF91CF910895CE01D1DFCE013F
:100FD0006EDCF8CF811511F053D4C9C40895811582
:100FE00011F054D4C4C4089580E090E00E94001E23
:100FF00080E090E00E94271E51D4B9C40E94AA1E2E
:10100000F3CF3BD4FBCF282F92959F70963099F069
:1010100060F4925F9F70923030F4203FB1F038F46A
:1010200081E0283E38F080E008959A5FF3CF81E0B8
:10103000243FC9F7089591E0813F09F090E081E0F5
:10104000283E08F080E0892B089581E00895FC0196
:101050002481211521F08081918142D1D4CF80E07B
:101060000895A6E0B0E0E7E3F8E00C944B2826965C
:10107000E2E00C946728A7E0B0E0E1E4F8E00C942B
:101080004B282796E2E00C9467280895FECF089538
:10109000FDCF0895FADFFCDF8093020290930302F4
:1010A00008950895F7CF0895209102023091030228
:1010B000822B932BEFCF20910202309103028223E7
:1010C0009323E8CF209102023091030282279327D5
:1010D000E1CFDBCF0895FDCF0895D7CF0895FDDF91
:1010E000FADF8093000290930102089580E090E07F
:1010F000F6CF21E030E002C0220F331F8A95E2F7DD
:10110000C901EDCF21E030E002C0220F331F8A95E4
:10111000E2F78091000290910102822B932BDFCFA6
:1011200021E030E002C0220F331F8A95E2F72095BC
:101130003095809100029091010282239323CFCFBA
:1011400021E030E002C0220F331F8A95E2F7809140
:1011500000029091010282279327C1CF20910002C3
:1011600030910102822B932BBACF20910002309153
:10117000010282239323B3CF209100023091010218
:1011800082279327ACCF0895CF93C1E061FDC4E0DF
:1011900060FDCC0F62FDC29593E0769567959A95B8
:1011A000E1F7660F771F660F771F460F571FFA018B
:1011B00040E050E090E06191DF019C01042E02C00C
:1011C000369527950A94E2F72695220B26272C239D
:1011D00026272E934F5F5F4F4430510561F7CF9123
:1011E0000895A82FA77023E0969587952A95E1F793
:1011F000880F991F880F991F680F791FFB0140E026
:1012000050E080E0219130E00A2E02C0369527950B
:101210000A94E2F72170042E01C0220F0A94EAF723
:10122000822B4F5F5F4F4430510561F70895282F9F
:10123000862F911107C0622F70E04CEF51E02530EE
:1012400040F008959C5F9230E0F7622F70E048EF25
:1012500051E09ACF282F892F911105C06CEF71E0D2
:10126000253030F008958C5F823028F468EF71E00B
:10127000822F90E0B6CF80E00895CF92DF92FF9268
:101280000F931F93CF93DF936C0100910002109195
:1012900001028091020290910302082B192BCFE0EA
:1012A000D0E081E090E00C2E02C0880F991F0A94D4
:1012B000E2F780239123892B61F4219790F7F12C99
:1012C0008F2DDF91CF911F910F91FF90DF90CF90E5
:1012D0000895FC2EB6018C2FC0D5019771F3F0CF85
:1012E000CF93DF93EC01C9DFBE01B7D5DF91CF917A
:1012F00008950F931F93CF938B019091F701911550
:1013000031F0CB01EDDFCF911F910F910895811541
:1013100051F0CB01B2DFC82F682FC80188DFB801B8
:101320008C2F9BD5F0CFCB0195DFC82FF8CF0F9333
:101330001F930091040280910502801303C01F9146
:101340000F91089587E0089FF0011124EA5FFD4F97
:1013500020813181428153816481758186818BDE58
:101360000F5F1F4F0770E7CF20913E0230913F0281
:1013700040914002509141026091420270914302BB
:101380008091440278CE80914402803170F4809143
:101390004302811551F0E091040220910502309141
:1013A0003F0240913E022E1301C00895BF0187E025
:1013B000E89FF0011124DF01AA5FBD4F14968C91C4
:1013C0001497811549F111968C911197831324C0BC
:1013D0008C91841321C015968C91159781111CC096
:1013E00012968D919D91A0914002B09141028A1B6D
:1013F0009B0B883C910580F4809144028F70806142
:1014000080934402E45FFD4F80818F708061808310
:101410008EE392E0C1DD8BCF6F5F7F4FFB01E77002
:10142000C2CFE091040290910502E91302C080E06E
:1014300008959F0157E0E59FF0011124EA5FFD4FF9
:101440005181561306C05081581303C0558154135F
:1014500005C02F5F3F4FF901E770E7CF81E00895A6
:101460008F929F92AF92BF92DF92EF92FF920F9373
:101470001F93CF93DF93CDB7DEB72D970FB6F894B8
:10148000DEBF0FBECDBF8C0186E0F801DE011896ED
:1014900001900D928A95E1F7F801F58084819EE331
:1014A000892E92E0992E90914202911117C08115D8
:1014B00009F4EFC0F11409F42EC1C801C8DD81158B
:1014C00009F429C187E0F801D40101900D928A95B1
:1014D000E1F7C401EDDA57DF47DFDBC0E080A2802F
:1014E000B380D09043022091400230914102A50187
:1014F000421B530BD11409F4CFC0483C510508F0EE
:101500009EC0811509F4C5C090913F0291808091E1
:101510004402803108F065C0991226C090913E02C5
:101520009E1122C0F11057C08F70806180934402D9
:101530001BDF8EE392E030DD80914402F801868368
:10154000F12C8F2D2D960FB6F894DEBF0FBECDBFB8
:10155000DF91CF911F910F91FF90EF90DF90BF909F
:10156000AF909F908F900895F11035C040E0692DA5
:101570008E2D57DF40E0692D8E2D53DFF82E81111F
:10158000DFCF88859985ACDE292F22952F70903486
:1015900050F49F70223078F0911591F0F801968107
:1015A000903170F4CECF2A5F2F70223070F0C801D6
:1015B000F3DCFD2CC6CF911519F0811509F4C1CFCC
:1015C000805E883008F4BDCFF2CF803F08F4B9CFF9
:1015D000815F8330F7CF8091440281608093440221
:1015E000AFCF991207C090913E029E1103C0F11433
:1015F00009F473C0C8012BDD811509F48CC0F11406
:1016000009F489C080914402803280F020913E022A
:1016100030913F0229833A83AB82BC82909142028F
:101620009D831E828F83CE010196B6DC87E0F80190
:10163000AEE3B2E001900D928A95E1F74CCF909124
:101640004402903188F4488559856A857B858C856C
:101650009D8507DD8EE392E09FDCF40187E0119227
:101660008A95E9F781DE6CCF811599F020913F02D0
:1016700081812813BFCF80913E028E11BBCFF11024
:10168000B9CF9683C80188DCF40187E011928A956E
:10169000E9F7FF24F39455CF483C510508F03EC0CC
:1016A0008115B9F3F114B9F190913F02818198133A
:1016B00029C080913E028E1125C08091440280FD98
:1016C00018C08031B0F08683807F803F39F08681FA
:1016D000982F907F905F8F70892B8683C8015CDC88
:1016E00087E0F801AEE3B2E001900D928A95E1F750
:1016F000F3CE87E0F801AEE3B2E001900D928A9557
:10170000E1F7C7CFC801A3DC811190CF80914402DB
:10171000816080934402C8013FDCBBCF4885598576
:101720006A857B858C859D859CDC97CFAEE0B0E09B
:10173000ECE9FBE00C944A28288739874A875B87C5
:101740006C877D878E87CE0108968ADE6C85811531
:1017500099F0611539F0288539854A855B857D8545
:101760008E8589DC809104029091050289133DC029
:101770002E96E3E00C94662887E09E01285F3F4F99
:10178000F90127503109D90101900D928A95E1F7AD
:10179000611541F3A09105028A2F90E0839587702F
:1017A00090E0AC01209104022417150691F097E017
:1017B0009A9FD0011124AA5FBD4F9E012F5F3F4F1A
:1017C000F90101900D929A95E1F740930502AFDD82
:1017D000C9CF17DC1092050210920402EEE3F2E08A
:1017E00087E011928A95E9F7BDCF17E0189FC001F5
:1017F00011248A5F9D4F34DE811509F4B9CFE09141
:1018000004021E9FF0011124EA5FFD4F2081318107
:10181000428153816481758186812DDC809104022F
:101820009091050201968770809304029BCF80916E
:101830004D02869586958695089580914D02877014
:10184000089590914D02977081E0911101C080E060
:10185000089580915902089590915902982B909380
:10186000590208958095982F809159028923809379
:1018700059020895809359020895109259020895CB
:1018800090915802982B9093580208958095982F24
:10189000809158028923809358020895109258022B
:1018A00008950895FECF089590914E02292F282380
:1018B00029F08095892380934E02F4CF08950895EE
:1018C000FECF089590914F02292F2823281721F049
:1018D000982B90934F02F4CF089590914F02292FA7
:1018E000282329F08095892380934F02E9CF08951A
:1018F00080914F02811521F010924F0280E0E0CFDD
:1019000008950F931F93CF93DF93809106019091D9
:1019100007018C01C091590280915802C82B809117
:101920004F02811529F0C82B0E944E1E8111E0DF65
:10193000F801C083C0910601D091070148E050E052
:1019400065E472E0CE010E94D428892B59F088E02A
:10195000FE01A5E4B2E001900D928A95E1F7CE0177
:101960000E94F31DDF91CF911F910F910895C9CF70
:1019700008950895FECF08959091B30292FF0EC08E
:10198000982F990F990F990F962B90934D02BADBD0
:1019900080914D02869586958695ECCFB3CB1092BB
:1019A0004D0280E0E7CF90914D028095892380938E
:1019B0004D02282F277059F4891749F09091B302EE
:1019C00092FF05C0869586958695AADBE8CF089597
:1019D0009091B30292FB222720F9281749F080FB4F
:1019E00092F99093B30282EB92E048D082E0DBCF91
:1019F00008958091B302002482FF0394802DE8CFE4
:101A000081E0E6CF80E0E4CF80E090E0BC010CC450
:101A100080E090E0BC0102D4F7CFA4E0B0E0E3E1C5
:101A2000FDE00C944B2855D360D31C82CE01049664
:101A300073D381E090E0809302021092030278D386
:101A4000198284E18A83CE01019683D3D5D51B8286
:101A5000CE01039690D3DCDF2496E2E00C94672855
:101A6000DCCF089548C3089535C308954AC3089547
:101A700059C308955DC3089560C308956AC3089566
:101A80006FC3089578C308957CC30895AEC30895C5
:101A9000D1C30895A6E0B0E0E0E5FDE00C9449284C
:101AA0000E94911F8C0180915A0290915B028017D5
:101AB000910779F019821A820E94911FBC01498115
:101AC0005A8180E090E00E94290500935A02109309
:101AD0005B022696E4E00C9465280E949D1F6093AB
:101AE0006502709366028093670290936802609328
:101AF000610270936202809363029093640208957E
:101B00000E949D1F60936502709366028093670236
:101B10009093680260935D0270935E0280935F020F
:101B200090936002089508950895FDCF0895089553
:101B3000FEDFFBCF0C948B0208950895FEDFFACFF1
:101B400081E290E14FD4F0DFF3CF81E0089581E0AE
:101B50000895FBCF0895089508950895FCDFFCDFF4
:101B6000FCCF82DF811101C07BDF89E692E07EDF5E
:101B700082EB92E081DF7CDF95DA80910002909128
:101B80000102A9CA0E94881F0E94FE19B2D3E9DF90
:101B90000E9409050E94ED180E94BA17CFCFA6E057
:101BA000B0E0E5EDFDE00C944628D1DF81110DC0D9
:101BB00071DF0E9495180E94591A8111A1DF0E94BD
:101BC00011052696E7E00C9462289BD310915C02E5
:101BD00080E03BD3181761F38091690281FD3BD30C
:101BE000B8DFD82E80E031D3E82E80915C02E81275
:101BF00002C073DFDECF8E25182F00E0FF24F394A0
:101C0000812F8F2139F40F5FFF0C0530C9F7E09267
:101C10005C02EFCFD114B9F309831A820E94911F9D
:101C20008B839C8381E08D8391E08E2D8F2109F43D
:101C300090E049815A816B817C818D810E942905C8
:101C4000E2CF0F931F93CF93DF9309D1EC01D235ED
:101C500008F050C0D03508F0C8C0C03ED10530F5FE
:101C6000CD3CD10508F09DC0C83AD10578F4C53AFD
:101C7000D10508F093C0C130D105B1F1CE01049770
:101C8000813A910588F1C0E0D0E02EC0CE01885A9B
:101C900091094B97C0F7C85AD0E0CC0FDD1FCF5940
:101CA000DE4F0990D881C02DD4641EC0D034A8F472
:101CB000D03208F0ADC0C83ED105B0F0CE01915091
:101CC0009F3108F78D2F6ED1082F8C2F90E0C7D051
:101CD000D02FDF71C82FD92B07C08C2F90E0BFD039
:101CE000DF70C82FD92BD06ACE01DF91CF911F9121
:101CF0000F910895C03882E5D807B8F5C03682E55F
:101D0000D80708F056C0C03482E5D807C8F4C032FE
:101D100082E5D80708F047C08C2F8695869520E28B
:101D2000829FC0011124C37021E030E002C0220F65
:101D3000331FCA95E2F7E901C82BD92BDD68D4CF50
:101D40008C2F86958695877020E2829FC001112492
:101D5000C37021E030E002C0220F331FCA95E2F7C2
:101D6000E901C82BD92BDC68BFCFC03C82E5D8077E
:101D700050F48C2F8F71C03AD24580F5982F84EFA4
:101D8000906AEC01B1CFCE01805C9245809708F05B
:101D90007ACFDC2FDF71C0EFD06AA6CFA497D064D2
:101DA000A3CFD065A1CF8C2F8F71D82FC1EFD06A70
:101DB0009BCF8C2F86958695877020E2829FC001ED
:101DC0001124C37021E030E002C0220F331FCA95F6
:101DD000E2F7E901C82BD92BDA6886CFE3D0982F38
:101DE00080E09F71EC01D0627FCF8C2F8F71DAD0B1
:101DF00053E0CC0FDD1F5A95E1F7DF70282F84FFE9
:101E000004C090E1899F90011124C22FD0696CCF4A
:101E10008D2F8F71C7D0082F8C2F90E020D0302FBE
:101E20003F71282F392B3062E9015ECF462F7111A7
:101E300005C0653078F460E00C9481037D3F31F497
:101E4000611108C041E060E00C9494037C3F11F400
:101E50006115C9F380E090E00895E8DFF2CE803E9E
:101E60009105D1F1C8F48133910509F481C048F49A
:101E70008932910509F471C08A32910509F47FC055
:101E8000089589339105E1F082389105C9F08533D1
:101E9000910509F45DC00895843E9105D1F148F49F
:101EA000823E910531F1833E910541F181EE90E052
:101EB0000895863E9105C1F1873E9105F1F108959F
:101EC0002091B202237009F064C02091B30223FF75
:101ED00014C089E290E008952091B20220FD45C02F
:101EE0003091B30230FF09C024FD24C083EE90E09E
:101EF00008952091B20222FDF7CF08952091B202F9
:101F000022FD44C03091B30230FD43C024FFF5CF21
:101F100011C02091B30221FFF0CF8091B20284FD65
:101F200009C087EE90E008952091B20223FFE5CF2B
:101F300024FFF7CF80E090E008952091B20223FDC6
:101F40002BC03091B30231FFE1CF84EE90E00895D1
:101F50002091B20225FFD1CFBCCF2091B20225FD46
:101F60001EC02091B30223FFC8CF89E390E00895FB
:101F70002091B20226FFC1CF8AE290E0089520911D
:101F8000B20226FFBACF81E390E0089582EE90E09E
:101F9000089580EE90E0089586EE90E0089585E340
:101FA00090E008959091B20292FF10C041E0282F76
:101FB0002471243009F040E031E0282F28712830C6
:101FC00009F030E0431711F02CE0822793FF10C096
:101FD00041E0282F2471243109F040E031E0282F1E
:101FE0002871283109F030E0431711F02CE08227E6
:101FF0003091B30230FF10C051E0282F2171213001
:1020000009F050E041E0282F2871283009F040E025
:10201000541711F029E0822731FF10C041E0282F2A
:102020002171213109F040E031E0282F2871283159
:1020300009F030E0431711F029E0822794FD877EF4
:10204000089580E00895CF939C01205E3245C1E061
:102050002032310538F4FB01C581C11103C08F71F5
:102060000E94BD048C2FCF9108959C01FB018581B6
:10207000811599F02B359CE7390769F02C359CE7E1
:10208000390721F02A353C4721F00895B2DC80E081
:102090000895B6DCFCCFB6DCFACF81E008959C0150
:1020A000FB018581811599F021309CE7390761F0AA
:1020B00023309CE7390739F021153C4749F40E9449
:1020C000E50480E00895CEDC0E94E904FACF81E0C7
:1020D0000895089580E090E00E94F7289C0181E037
:1020E000233E3E4F09F080E0089563EE7EEF80E0EE
:1020F00090E00C9416296FEF7FEF80E090E00C9455
:102100001629CF93DF93EC0182E090E00E94EA2849
:102110008883DF91CF910895FC01608182E090E097
:102120000C94FC2883E090E00E94EA2890E0089557
:10213000682F83E090E00C94FC28CF93DF93EC01B0
:1021400084E090E00E94F72888839983DF91CF9103
:102150000895FC016081718184E090E00C9416295F
:10216000CF93DF93EC018CE090E00E94EA28888313
:10217000DF91CF910895FC0160818CE090E00C9498
:10218000FC288F929F92AF92BF92CF92DF92EF92F4
:10219000FF920F93CF93DF93EC0188E090E00E94D1
:1021A000F2284B015C01688399828A83BB821C827E
:1021B0001D821E821F8283E290E00E94EA28940121
:1021C000A50188823983AA825B838C831D821E824B
:1021D0001F82DF91CF910F91FF90EF90DF90CF9012
:1021E000BF90AF909F908F9008950F93CF93DF9300
:1021F000EC01488159816A817B8188E090E00E94EE
:102200000E296C81262F60E070E0CB01622F83E203
:102210000E94FC28DF91CF910F910895AB01BC0182
:102220008FE090E00C940E29AB01BC0183E190E0BB
:102230000C940E29682F8EE090E00C94FC280895F1
:10224000FECF08950895FECF0895E82FF0E0EB54F7
:10225000FD4F808108950895CF93DF93A7E9B1E002
:102260002CE931E061E08D918F3F31F42A173B0773
:10227000D1F7DF91CF910895E82FE295EF70F0E06C
:1022800041A18F70C62F01C0CC0F8A95EAF79C2F11
:102290009095942391A392A18C2F892B82A3E6CFB2
:1022A000CF93AC0185E0689FD0011124A956BE4FA1
:1022B00070E0C1E080E09D919F3F79F0E92FE295C9
:1022C000EF70E05EF0E0208130E09F7002C0359555
:1022D00027959A95E2F79C2F20FD90E0892B7F5F50
:1022E000CC0F753041F7460F511DFA018083CF9115
:1022F0000895B2DF1092B5021092B40281E023D0AB
:102300009FCFA1E0B0E0E7E8F1E10C944A28198200
:1023100060E0CE010196C4DF9091B402898121E092
:1023200098130EC020E041E065EB72E084EB92E090
:102330000BD0182F88DF812F2196E3E00C946628BC
:102340008093B402F0CF0895A0E0B0E0EAEAF1E1B2
:102350000C9445287C016B01042FC22F211579F0C4
:1023600081E080936C020E94911F80936A02909397
:102370006B0280E0CDB7DEB7E8E00C946128D09125
:102380006C02D115B1F380916A0290916B020E94A8
:10239000221F059770F310E0A801B701C6010E9443
:1023A000D428892B31F0A801B701C6010E94E12889
:1023B000CD2F10926C028C2FDDCFF1CB08950E94AF
:1023C0002B1F0E944421BCDB0E945C21DBDB0E94AE
:1023D00065210E946821F1DF0E947E210E942E204B
:1023E000BDDBF7CF8093EE019093EF010895CF937B
:1023F000DF93EC01FB018581811104C081E0DF9155
:10240000CF91089526DA8272FE01E052F847EB3050
:10241000F105A0F7E25BF64D0C942528A3D580E0EA
:10242000EECF811521F092D5FACF8115E1F382D557
:10243000F6CF811521F02AD2F2CF8115E1F31CD21B
:10244000EECF811521F03CD2EACF8115E1F32BD2FA
:10245000E6CF811521F04ED2E2CF8115E1F33DD2D6
:10246000DECF811521F0F3D0DACF8115E1F3E0D092
:10247000D6CFA0E0B0E0EFE3F2E10C944428062FC1
:10248000B72EE82F71110EC0411521F0F0E0EC528B
:10249000FE4FE4916E2F7E2F8E2FCDB7DEB7E9E091
:1024A0000C946028411521F0F0E0EC52FE4FE491CD
:1024B00086E0089FE00111242FEF30E0CE01B90142
:1024C0000E94DC27AB01C801880F991FF5E5F49F36
:1024D000B001F59F700D1124861B682F660F680FE1
:1024E000C9018B199109E89FD001E99FB00D112412
:1024F0008B2FB69E60011124CD2CD12C89010C1993
:102500001D096801E09F7001E19FF00C1124433028
:10251000510551F18901061B1109B09E6001B19E60
:10252000D00C1124CD2CD12C2C193D09E29F800117
:10253000E39F100D1124712FCC3FD34050F4413054
:102540005105B1F04230510561F47E2FEB2F812F00
:1025500008C04430510579F04630510511F07B2F09
:102560008F2D6E2FE82F98CF7F2D8E2FEB2FF9CF49
:102570007E2FEF2DF6CF8E2FE12F7B2FF2CF41E074
:1025800078CF0895FCCF089590910B01291B922FCD
:10259000E091C901F091CA01242F462F682F892F9D
:1025A00090E009950895CF93DF93762FE901682F86
:1025B000842FE8DF962F672F9E01482F892FE4DFB5
:1025C000DF91CF910895413808F040E8ECCF809139
:1025D000B602843060F4837084608093B602809188
:1025E000B902813818F080E88093B90208958C3AD6
:1025F000B0F38370886AF1CF85E08093B6021092C1
:10260000B7028FEF8093B8021092B9021092BA020B
:1026100086EB92E03BCA9091BA02933018F49F5F28
:102620009093BA02811519F086EB92E02FCA0895B3
:1026300081E0F1CF9091BA02911519F091509093E9
:10264000BA02811519F086EB92E020CA089581E064
:10265000F1CF0F931F93CF938091B60280FF09C0F3
:10266000E091CD01F091CE010995CF911F910F918D
:102670000895C0910D018091C9019091CA018C010A
:1026800080910E01C81760F780910B019C2F981B59
:1026900020E040E060E0892F90E0F8010995CF5FED
:1026A000EFCFEF92FF920F931F93CF93DF93D82F2B
:1026B000F62EE42E8091B60280FF0CC0C0910D0171
:1026C0008091C9019091CA018C0180910E01C817B7
:1026D00030F0BFDFCDB7DEB7E6E00C946328809121
:1026E0000B019C2F981B2E2D4F2D6D2F892F90E0C5
:1026F000F8010995CF5FE9CF762F9091B60290FF50
:102700000BC0413808F040E8682F842F3BDF962F3C
:10271000672F482F892FC5CF0895CF93DF93EC0102
:10272000EC81F0E0E153FF4F4491E6EBF2E062818F
:102730008181E2DF8C818F5F8C83DF91CF9108955F
:10274000CF93DF93EC01E6EBF2E0438162818C8171
:10275000D3DF8C818F5F8C83DF91CF910895CF93EE
:10276000DF93EC012091B9029C81892F817090FD4B
:10277000822F692F627091FD622F492F447092FD64
:10278000422F8FDF8C81019687708C83DF91CF91F0
:102790000895A0E0B0E0EFECF3E10C944628D82FC8
:1027A000E62EC42FD22E9091B60290FF24C0292F7E
:1027B00026952695E22FF0E0E456FE4F8081809327
:1027C00091029C7F9430E1F4842F413808F080E836
:1027D0006D2F7E2DD7DE962F672F482F892F61DF33
:1027E000D093B702E092B802C093B902D11419F0A5
:1027F00086EB92E04BD9CDB7DEB7E7E00C946228C8
:10280000823019F4C091B902EBCF863019F4D0911F
:10281000B702E6CF8930D9F3893111F787EEF82E68
:10282000F20EEF2DE695F0E0E153FE4F049110E03B
:1028300060910F01161710F00CDFD2CF109FC0016E
:10284000112470E00E94DC27862F8D0FF0FE02C05D
:102850008D2F861B20910D01210F3327331F4C2F05
:102860006E2DB1DE1F5FE4CFE6EBF2E0282F43814F
:1028700062818181885F8DCF81E0F6CFE6EBF2E067
:10288000282F438162818181885083CF81E0F6CFF8
:10289000E6EBF2E0628121E1620F08F46FEF282F8E
:1028A0004381818176CF81E0F3CFE6EBF2E0628174
:1028B00021E1621B08F460E0282F4381818169CF08
:1028C00081E0F3CFE6EBF2E0438121E1420F08F42F
:1028D0004FEF282F628181815CCF81E0F3CFE6EB5F
:1028E000F2E0438121E1421B08F440E0282F62819D
:1028F00081814FCF81E0F3CF20E04BCF9091B602A2
:1029000090FF11C0253078F490910B01291B922F74
:10291000E091C901F091CA01242F462F682F892F19
:1029200090E0099596CE0895CF93762FC22F90917F
:10293000B60290FF0CC0413808F040E8682F842FA1
:1029400021DE962F672F2C2F482F892FD7DFCF918D
:1029500008950F931F93CF938C01C0E060910F01F6
:10296000C61768F076DEF8018481928190FF1DC061
:102970008F5FF8018483CF911F910F91089520916B
:102980000D012C0F3327331F70E08FEF90E00E9472
:10299000F027F80184814091B902C69F800D11246F
:1029A0006091B80210DECF5FD9CF8150E2CFAF92F5
:1029B000BF92DF92EF92FF920F931F93CF93DF931B
:1029C000FC018281D1E080FDDFEFC0E08091C90190
:1029D0009091CA015C0180910F01C817B8F039DEEF
:1029E00080916E02D13009F050C0811102C08091F7
:1029F0000F01815080936E02DF91CF911F910F9153
:102A0000FF90EF90DF90BF90AF90089580910D01FF
:102A100090910B01891B8C0F20E040E060E090E07A
:102A2000F501099504E010E0D12CEC2EF12C8091F9
:102A30006E028D0D86301CF165E00E94CF27892F34
:102A4000082E001C00088E150F0499F480910D01CA
:102A50009701280F311D4091B9020403A0011124F0
:102A600055954795559547956091B8028091B70265
:102A7000AADDDD0E01501040D1F6CF5FACCF87FF4D
:102A8000DFCF90910F01890FDBCF90E0019660912D
:102A90000F0170E00E94F027ADCF0F931F93CF93EB
:102AA000C0910D018091C9019091CA018C01809162
:102AB0000E01C81750F1C0E08091C9019091CA0180
:102AC0008C0160910F01C61768F1C3DD8091090187
:102AD00090916D02980F90936D0220910A01280F3A
:102AE00020930A01121654F420910F012150330B48
:102AF000092E001C0008921703061CF08195809394
:102B00000901CF911F910F91089580910B019C2F86
:102B1000981B20E040E060E0892F90E0F8010995E3
:102B2000CF5FC5CFEC2FF0E070E0CF010E94F0271F
:102B300020910D01820F90916D02092E001C00085A
:102B4000E917F0059CF090910A01092E001C00087D
:102B50009E170F065CF0282F30E04091B90260917B
:102B6000B8028091B7022FDDCF5FABCF90910B0100
:102B7000891B20E040E060E090E0F8010995F4CF87
:102B8000A0E0B0E0E6ECF5E10C944328EC01FC8118
:102B90002F2F30E0D9010E94B4279B01AC010E9485
:102BA00031287B018C0180E290E08F1B9109FC01B0
:102BB000A5E59701A8010E9431285B016C019F01E6
:102BC000DF010E94AE279B010E942B289B01AC01D4
:102BD0002E0D3F1D401F511FB501C6010E94032845
:102BE000022F30E00A3220F5A901440F551F420F91
:102BF000531F55954795142F1095F12C85E5801B93
:102C0000E82E80910F01F81600F123DD9C8181E010
:102C1000911519F0903219F48FEF8093080180918B
:102C20000801890F8C83CDB7DEB7EAE00C945F28EA
:102C300085E590E0821B930BAC01440F551F480FB4
:102C4000591FBAF64F5F5F4FD4CF8E2DF1FC802F06
:102C500020910D012F0D3327331F412F6091B802B2
:102C6000B2DCF394CECF0F931F93CF93DF938C01FD
:102C7000C0E0D0E090910F01C917D1055CF0E9DC0C
:102C8000F8018481019681708483DF91CF911F9137
:102C90000F910895F801448180910D019E01280F44
:102CA000311D6091B8028091B7029695C917D10580
:102CB0003CF4411539F04091B90285DC2196DACF18
:102CC0004115C9F340E0F9CFA0E0B0E0EAE6F6E153
:102CD0000C943F28FC018281882E948081E08483BB
:102CE000EFECF0E0A490EEE4F1E0E491C091B902E1
:102CF000C695C158D0E0CC0FDD1FED2EF12CB12CC4
:102D000005E01FEFEA198E2F90E03C0180910F0142
:102D1000B81630F09EDCCDB7DEB7EEE00C945B2841
:102D2000CB2CD12C882D833058F40B9DF00111242D
:102D3000E159FD4F8091B70280838091B802818371
:102D400091101BC00C9DF0010D9DF00D1124E15957
:102D5000FD4F1382128280910D019601280F311DC3
:102D60000C9DF0010D9DF00D1124E159FD4F4281A4
:102D70006181808128DCB394C9CF0C9DE0010D9D59
:102D8000D00D1124C159DD4F8B818115E1F08150A7
:102D90008B83189FC00111246C8170E00E94DC2796
:102DA00070E0FB01E153FF4F84918A19189FC00125
:102DB0001124B3010E94DC278091B902689FB00101
:102DC00011247A83C8CF0E94B9286FEF70E00E9467
:102DD000F0278E159F050CF0BECF882D833090F024
:102DE0000E94B9286FEF70E00E94F02788830E944C
:102DF000B9282091B8022695622F70E00E94F02732
:102E0000280F29830C9DF0010D9DF00D1124E1592F
:102E1000FD4F12828091B902893C58F088EC0C9DDC
:102E2000F0010D9DF00D1124E159FD4F8483838342
:102E300092CF8431A0F784E1F2CF8091B6028E7FE9
:102E40008093B60286EB92E00E94460D10929202A9
:102E500000CC8091B6028E7F8093B60210929202CF
:102E6000F8CB1092920280918F02811109C081E00B
:102E700080938F028091B602817080938E02E9CF99
:102E800008956091B6026695669570E04BE050E05B
:102E900080E191E00E94C728892B19F481E080939A
:102EA00092020E94911F8093880290938902089554
:102EB0009091B60290FF2CC0811559F18B3258F5D4
:102EC0008F73880F880F9091B6029370892B80932F
:102ED000B602611521F086EB92E00E94460D6091EA
:102EE000B6026695669570E04BE050E080E191E0B7
:102EF0000E94C728892B89F01092920281E080936A
:102F00008B024091B9026091B8028091B702F4CC73
:102F1000089581E0D6CF8AE2D4CFB3DFEFCF682F18
:102F20009091B60296959695892F8F5F8B3208F017
:102F300081E0BECF81E0F3CF682F9091B6029695E5
:102F40009695892F815009F48AE2B2CF81E0F4CFBF
:102F500061E0AECF8091B60281608093B602869523
:102F60008695F6CF8091B60280FF01C066CFF2CF82
:102F700060E09ECF8091900281111FC086EB92E0AD
:102F80000E94440D8091B602843028F435DB86EB34
:102F900092E00E94440D1BDB10929202E091C70167
:102FA000F091C80109958091B60280FF03C0869513
:102FB0008695DEDF81E08093900208958091B602CD
:102FC00081608093B60286958695D2CF10928F024B
:102FD00080918E028111F2DF54CF0F931F93CF9314
:102FE000DF9380919202811509F43FC08091910294
:102FF000E091B602E695E695E81BE0938A028531FA
:1030000009F489C008F042C0893009F47AC090F50B
:10301000823009F464C0863009F46AC0C0EDD7E09C
:1030200001EC12E180918B02811559F010928B0214
:1030300078D7809388029093890210928C02109224
:103040008D026FD72091880230918902821B930BE9
:103050008F3F9F4750F42C0F3D1F209388023093E1
:10306000890288E892E0F8010995DF91CF911F91DC
:103070000F9108958F3091F6E695F0E0EE53FF4FF3
:10308000E491CE2FD0E007ED14E1CCCFC4EFD1E036
:1030900003E316E1843231F288F4C8E2D0E000ECB8
:1030A00015E1883109F4BECF833209F0B7CFEDEBDB
:1030B000F0E0C591D4910FEA13E1B4CF853209F065
:1030C000ADCF8E2F63E00E94C327E92FF0E0E654D6
:1030D000FF4FE491CE2FD0E004E616E1A3CFF0E05D
:1030E000E553FF4FE491CE2FD0E00DE813E19ACFE6
:1030F000F0E0E853FF4FE491CE2FD0E000EA13E177
:1031000091CFE695F0E0EB53FF4FE491CE2FD0E066
:1031100009EA14E187CFF0E0E154FF4FE491CE2FAC
:10312000D0E00DE415E17ECF089557CF08950895BE
:10313000FB012581211539F097FF05C09F77BC0160
:1031400080E090E01AD181E008950F931F93CF9310
:10315000DF93EC018B01FB018581811581F00E94D9
:10316000290C8272FE01E053FC47E830F10538F487
:10317000E75AF64D0C942528811559F042D0B80134
:10318000CE01D6DFDF91CF911F910F910895811568
:10319000A9F336D0F4CF80E027D0F1CF81E0FCCF87
:1031A00082E0FACF83E0F8CF84E0F6CF85E0F4CF79
:1031B0009091BF02923069F48A3048F4875F90E0C2
:1031C0006AE070E00E94F027875A0C94D805865078
:1031D000FCCF43C40895FECF08958FEB92E00E9488
:1031E000400D8091BF02F7CFCF93C82F8093BF02CD
:1031F0008FEB92E00E94420D8C2FEDDFCF9108956E
:1032000008950895EED48093BE029091BF0291304C
:1032100029F481FF03C089E30E94D8050E94290C8C
:103220008093C0020E943D0C0E944E0C8091BF0210
:103230008230B9F030F481110FC082EE0E94600537
:1032400004C0843011F1853029F18FE39CE90197A6
:10325000F1F700C00000089588E193E00E94FB03AD
:10326000F4CF8091BE0280FD03C083E50E94D805A3
:1032700082EE0E9460058FE39CE90197F1F700C0A0
:10328000000087E50E94D805E0CF86EE0E94D805B1
:1032900088E1F8CF8BE191E00E94FB0385E290E0AA
:1032A0000E94FB0388E290E0D9CF8091BF02823078
:1032B000D1F030F481110CC082EE0E949B0504C055
:1032C0008430D1F08530D1F08091C0020C943A0C5A
:1032D0008CE20E94D8058091BE0281FFF5CF89E380
:1032E0000E94D805F1CF82EE0E949B058091BE021C
:1032F00080FDEACF83E5F4CF88E2F2CF88E290E068
:103300000E94FB03E1CFA0E0B0E0E9E8F9E10C9412
:1033100043285B016C01D091BF028CE1E82EF12CB7
:1033200007E010E021E0C501D6010E2C04C0B695DF
:10333000A795979587950A94D2F7C82FCF70211536
:1033400031F0D43041F4CA3030F080E031DF8C2FDE
:103350002FDF20E005C0C111FACF04301105BCF306
:103360000150110984E0E81AF1080F3F1007D9F65F
:10337000CDB7DEB7EAE00C945F28CF92DF92EF92F0
:10338000FF926B017C0181E1E816F10438F40E2C08
:103390000F2849F08091BF02823049F4FF90EF90EE
:1033A000DF90CF9008952EDFB601C70121C02ADF3C
:1033B0008091BF028111F8CF81E0E81AF1088D2DCC
:1033C0009E2DAF2DB0E0A69597958795A6959795DC
:1033D00087959852AF4FBF4FBC01CD0194DF83E07A
:1033E000D822E12CF12CB601C70174528F4F9F4FA8
:1033F0008ADF5BDFD3CF0C94A50D0895E4E9F2E0FA
:1034000088E011928A95E9F7F5C0FC01228130E04D
:103410002395237030E0938181E09217130609F021
:1034200080E008950F931F93CF93DF93EC01162F45
:10343000042FEBDF811114C08A81FE01E80FF11D1A
:10344000912F00FB97F994838F5F83708A83888123
:103450008F5F888381E0DF91CF911F910F91089555
:1034600080E0F9CFFC01A38182818A17B1F0AE0F11
:10347000BF2FB11D14968C9187FB992790F98F77F8
:10348000DB018C93DA019C9383818F5F837083834C
:1034900081818F5F818381E0089580E00895462FC8
:1034A000682F84E992E0BECFAB01BC0184E992E0D1
:1034B000D9CFAEE0B0E0EFE5FAE10C944528809179
:1034C0009302811551F0109293028091960280939D
:1034D00097028091940280939502C6D08CDFE82EEB
:1034E000811551F1E12C0CEF8DEFF82E1DC0CD842C
:1034F000DE84D982C11429F1FA8213D532E0E32E99
:10350000BC0149815A818E2D91E00E942905DF82FC
:10351000C114E1F0F88605D5BC014F8158858E2D88
:1035200090E00E942905E12ECE010D96BC01019686
:10353000BBDF182F8111DBCF8E2D2E96E8E00C9487
:1035400061280A83EED423E0E22EDACF0887E3CFA6
:103550008FE891E00197F1F700C00000089522E99B
:10356000611101C020E93AB12F7081E001C0880FDC
:103570002A95EAF7982F909593239AB99BB1892BB6
:103580008BB9089522E9611101C020E989B190E069
:103590002F7002C0959587952A95E2F7817008955E
:1035A0000895CF93DF93C0E080919C02C81750F03C
:1035B000CFDFC0E080919C02C81760F0F1DFDF919F
:1035C000CF91089560E08C2FCADF61E08C2FC7DFB8
:1035D000CF5FEACF60E08C2FD5DFD82F61E08C2F52
:1035E000D1DFEC2FF0E0E256FD4F880F8D2B80836A
:1035F000CF5FE0CF81E080939C02D3CF1F93CF9326
:10360000DF93182F440F642BC82FD0E0DE01A256A1
:10361000BD4FEC918E2F8370681711F1EE0FEE0FF6
:10362000E62BEC93EF70F0E0E153FE4FC356DD4F15
:1036300080819881890F888384301CF060E0812F1D
:103640002EDF88818D3F1CF461E0812F28DF888187
:10365000982F990F990B64E070E00E94F0278883FF
:10366000DF91CF911F910895CF93DF93C0E08091B8
:103670009C02C81718F0DF91CF91089561E08C2F5C
:1036800081DFD82F60E08C2F7DDF4D2F682F8C2FAE
:10369000B5DFCF5FECCF3F9A0895FC01EE0FFF1F1F
:1036A000E80FF91FEF53FD4F618340832283089594
:1036B000FF920F931F93CF93DF93182F062FF42EB3
:1036C000C0E0D0E02F2D402F612FCE01E6DF219604
:1036D000C530D105B9F7CDB7DEB7E5E00C94642865
:1036E00038B13F7728B120684FB7F89481EC92E069
:1036F000FC010196508168E028B9000000C057FF26
:1037000038B9550F000000C000C000C038B900C073
:103710006A9591F752E0803D950751F74FBF8FE5CD
:1037200094E00197F1F700C000000895CF93DF9374
:10373000EB0186319C4709F50E94290C9D8191156A
:1037400099F08A7A91E0811101C090E090939F02F4
:10375000811541F085E3F2D20E94B70C80E0DF9141
:10376000CF91089589E2F7CF80919F02811519F0DA
:1037700085E3EAD2F1CF89E2FCCF81E0F0CFCF93AD
:10378000DF93EC01FB018581811509F4CBC09E011B
:1037900030572332310508F0ABC082EB92E00E9433
:1037A0003C0DFE01E150F047E232F10520F4EF5903
:1037B000F64D0C9425288091B20281608093B2026C
:1037C00090C08091B30288608093B3028AC08091D8
:1037D000B2028260F3CF8091B2028460EFCF809119
:1037E000B2028860EBCF8091B3028160EDCF80910F
:1037F000B3028260E9CF8091B2028061DFCF809115
:10380000B2028062DBCF8091B2028064D7CF0E9487
:1038100001088091B2028068D1CF8091B2028C60A1
:10382000CDCF8091B3028360CFCF8091B2028E7FE3
:10383000C5CF8091B302877FC7CF8091B2028D7FC1
:10384000BDCF8091B2028B7FB9CF8091B202877FCA
:10385000B5CF8091B3028E7FB7CF8091B3028D7FB9
:10386000B3CF8091B2028F7EA9CF8091B2028F7DBB
:10387000A5CF8091B2028F7BA1CF0E9401088091D9
:10388000B2028F779BCF8091B202837F97CF8091D6
:10389000B3028C7F99CF9091B202892F8B7F92FFD8
:1038A0008460877F92FF886089CF8091B302982FD0
:1038B000909590FB80F990FB81F986CF9091B202B0
:1038C000892F8F7B96FF806479CF0E9401089091A9
:1038D000B202892F97FB87F9805870CF81E00E9450
:1038E000480D82EB92E00E943E0D0E94010880E0AC
:1038F000DF91CF91089580E0F2CF9091B202892FAD
:103900008F7E94FF80615ACF9091B202892F8E7F73
:1039100090FF816053CF9091B302892F877F93FFEF
:10392000886052CF81E0E4CFA0E0B0E0EAE9FCE1BA
:103930000C944428E82FF0E0EC52FD4F9491B92EFE
:10394000282F26952695269530E0F901EC58FC4F56
:10395000E4908770F12C082E02C0F594E7940A9445
:10396000E2F7F901EC59FC4FC490D12C082E02C0AB
:10397000D594C7940A94E2F72C5A3C4FF90104916C
:1039800010E002C0159507958A95E2F7C62FD0E0A2
:10399000E0FC25C0C0FE06C086EE0E946005CE0198
:1039A000009759F5BE018B2D0E94C205CE010097EC
:1039B00061F5C0FC32C0E0FE06C081EE0E949B05AE
:1039C000CE010097C1F500FF05C08CE20E94D8052A
:1039D0002097C9F5CDB7DEB7E9E00C94602881EEF9
:1039E0000E946005CE010097A9F2EFE9FFE0319750
:1039F000F1F700C000000197F6CFEFE9FFE0319743
:103A0000F1F700C000000197CBCFEFE9FFE031975D
:103A1000F1F700C000000197CACF86EE0E949B0517
:103A2000CE01009741F2EFE9FFE03197F1F700C0D6
:103A300000000197F6CFEFE9FFE03197F1F700C002
:103A400000000197BECF8FE99FE00197F1F700C01A
:103A500000002197BDCF60E067CF982F9F709A50EC
:103A6000963010F0805DF7CF895AFDCF0F931F93EA
:103A7000CF93DF93C42FD22FFC0185818115C9F02C
:103A80004093A2024ED28093A0029093A1028C2F69
:103A9000805E883048F481E0C1FD84E0C0FD880F7D
:103AA000C2FD82950E94DF05DF91CF911F910F919A
:103AB00008951091A202141333C08091A002909136
:103AC000A102C0D1883C910558F5CD2FC05E1D17CD
:103AD000C1F0812F805E883048F481E011FD84E0E0
:103AE00010FD880F12FD82950E94E405C83048F44D
:103AF00081E0D1FD84E0D0FD880FD2FD82950E9447
:103B0000DF05802F0E94D80581E0D1FD84E0D0FD43
:103B1000880FD2FD8295C83038F60E94E405C4CFE4
:103B20008C2F805E883008F0BFCF81E0C1FD84E03B
:103B3000C0FD880FC2FD8295F0CF0F93FC01CB0131
:103B4000E851FC47E730F10588F5ED57F64D0C9448
:103B5000252806E221EE41EE6AE17CE787DF80E07E
:103B60000F91089507E225EE45EE6BE17CE7F6CF75
:103B700006E221EE40EE68E17CE7F0CF07E225EEB9
:103B800044EE69E17CE7EACF06E221EE42EE6CE129
:103B90007CE7E4CF07E225EE46EE6DE17CE7DECF81
:103BA00008E221E045EE6EE17CE7D8CFFB0185819C
:103BB00081111092A20281E0D3CF8093A70290934B
:103BC000A8020895E091A702F091A802309739F079
:103BD0000190F081E02D309711F00995089580E073
:103BE0000895F0CF0895E091A702F091A8023097D0
:103BF00031F00280F381E02D309709F009950895A6
:103C0000A3E0B0E0E6E0FEE10C944B282091A50291
:103C10003091A60228173907B1F08093A50290933E
:103C2000A602E091A702F091A802309761F000840B
:103C3000F185E02D309739F023E029838A839B8337
:103C4000CE01019609952396E2E00C946728A3E043
:103C5000B0E0EDE2FEE10C944B282091A3023091FC
:103C6000A40228173907B1F08093A3029093A4020D
:103C7000E091A702F091A802309761F00084F185ED
:103C8000E02D309739F024E029838A839B83CE018D
:103C9000019609952396E2E00C946728409106016D
:103CA000509107019A012E5F3F4F485F5F4F80E0C0
:103CB000F90190812F5F3F4F91118F5F421753079A
:103CC000B9F70895811591F020910601309107010F
:103CD000F9013296285F3F4F9081981731F0319665
:103CE000E217F307C9F780E0089581E008959C0189
:103CF000FC01329680E09FEF4081461759F03196E3
:103D00009F3F19F4411101C0982F8F5F8630A1F7B2
:103D10009F3F09F40895290F311D97FD3A95F90148
:103D200062830895FC01329608962191261302C001
:103D3000DF011E92E817F907C1F70895682F8091F7
:103D4000060190910701D3CF682F809106019091D1
:103D50000701E8CFE0910601F0910701329686E075
:103D600011928A95E9F708950895FECF08958F5F1F
:103D700080931E0160911B0170911C0180911D01B7
:103D800090911E01F2CF83E080931E0160911B0190
:103D900070911C0180911D0190911E01E6CFE7CF2B
:103DA000089581E080931E0160911B0170911C01B8
:103DB00080911D0190911E01D8CFF3CF089591E01D
:103DC000811101C090E090931D0160911B017091E1
:103DD0001C0180911D0190911E01C7CF80911D0192
:103DE000089580931C0160911B0170911C018091CA
:103DF0001D0190911E01B9CF80911C0108958093FF
:103E00001B0160911B0170911C0180911D0190911B
:103E10001E01ABCF80911B01089508950895FECF38
:103E2000089508950895F9CF0895FBDF0E94811148
:103E3000F9DF80E00E942511982F81E0911101C0E7
:103E400080E00895CF93DF93EC016BD08C1B9D0B2A
:103E5000DF91CF91089585B7806885BF85B7806869
:103E600085BF08951F921FB61F9211248F939F93B1
:103E7000AF93BF938091A902811113C08091D002AA
:103E80009091D102A091D202B091D3024196A11D8E
:103E9000B11D8093D0029093D102A093D202B0932F
:103EA000D302BF91AF919F918F911F901FBE1F9022
:103EB00018958091D802843031F10E94ED0410925F
:103EC000A90288E190E020E40FB6F894A8958093C9
:103ED00060000FBE2093600083B7817F846083BF42
:103EE00083B7816083BF7894889583B78E7F83BFC3
:103EF0000FB6F894A8958091600088618093600067
:103F0000109260000FBE08950E9401080C94F30403
:103F100082E084BD93E095BD9AEF97BD80936E00DB
:103F200008952FB7F8948091D0029091D102A0917A
:103F3000D202B091D3022FBF08952FB7F8946091A9
:103F4000D0027091D1028091D2029091D3022FBF02
:103F5000089578941F921FB61F9211248F939F93F8
:103F6000AF93BF938091D0029091D102A091D202E1
:103F7000B091D3020196A11DB11D8093D002909300
:103F8000D102A093D202B093D302BF91AF919F917F
:103F90008F911F901FBE1F90189587E797E780931A
:103FA00000089093010888E19AE00FB6F894A8956C
:103FB000809360000FBE90936000FFCF88E19AE08D
:103FC0000FB6F894A895809360000FBE90936000A0
:103FD000FFCF089508959B01BA019091D8029430C3
:103FE000D9F48F708093E9009FEF8091E80085FD00
:103FF00006C085ED8A95F1F700009150B1F78091E8
:10400000E80085FF09C040E050E0C901EBD1809194
:10401000E8008E778093E8000895603229F440E24A
:1040200050E0BC0182E0D7CF089543E050E0BC01EE
:1040300084E0D1CFCF93DF93EC01D0DE48E050E0B5
:10404000BE0181E0C8DF88E0FE01AAEAB2E001908B
:104050000D928A95E1F7DF91CF910895A0E2B0E04B
:10406000E4E3F0E20C944B288091D8028430F1F420
:1040700083E08093E9008091E80082FF17C080917F
:10408000E80090E085FF07C040E050E0BD01CE01B0
:104090000196F4D191E08091E8008B778093E8005D
:1040A000911521F060E2CE01019641D8A096E2E0A0
:1040B0000C9467288091D702811107C066D3B6D3CC
:1040C0008091E20084608093E20008951092D7020C
:1040D000089567DE81E073CE6091D40281E06111C2
:1040E00001C080E050CE9091D80281E0943009F078
:1040F00080E06091D40253CE42E061EC81E0C1D215
:1041000042E261EC84E0BDD242E261EC82E0B9D2ED
:1041100042E260EC83E0B5D29091D80281E0943025
:1041200009F080E06091D40222CE8091DA028930D9
:1041300081F148F4823009F497C0833009F458C003
:10414000813041F008958A3009F481C08B3009F440
:1041500069C008958091D902813A09F048C08091E0
:10416000E800877F8093E8008091DD029091DE0275
:10417000892B59F060E080E090E070E0CBD1809135
:10418000E8008B778093E800089568E08AEA92E07F
:10419000F4CF8091D902813251F58091DD02909166
:1041A000DE028D7F892B19F58091E800877F80934F
:1041B000E8008091E80082FF16C02091F300809112
:1041C000F200922F029731F48091F100813011F0CA
:1041D000863019F48091F10004DE8091E8008B773D
:1041E0008093E80082C28091D8028111E2CF0895C5
:1041F0008091D902813AD9F78091DD029091DE0257
:10420000892BA9F78091E800877F8093E80080914F
:10421000E80080FFFCCFE2DD8093F1008091E800B0
:104220008E77DECF8091D902813209F78091DD024D
:104230009091DE02892BD9F68091E800877F8093E8
:10424000E80053D28091DB02BADD0C940108809122
:10425000D902813261F68091E800877F8093E8007F
:1042600044D28091DC02CBCD8091D902813A09F011
:10427000BECF8091E800877F8093E8008091E800BE
:1042800080FFFCCFC7DDC8CF84B7877F84BF0FB660
:10429000F894A895809160008861809360001092E6
:1042A00060000FBE80E890E00FB6F8948093610044
:1042B000909361000FBE81CD68D2B8D2E2EEF0E0FB
:1042C000808184608083789415C58FE191E075CCFE
:1042D0008091D802853029F48091D802853011F080
:1042E00013CE0895E6DDA1DD8115B1F38091D602EC
:1042F000811591F361D00E940108EECF08959A01D3
:104300004091DF025091E00200C0492F50E043305D
:104310005105D1F078F44130510509F448C04230DC
:10432000510571F48BE590E04AEB53E0F9014083CD
:104330005183089541325105E9F04232510539F176
:1043400080E090E040E0F2CF482F50E0813061F013
:104350004230510561F0E6EBF3E04115510581F77C
:10436000849190E0AF01E2CFE6E9F3E0F9CFE4E831
:10437000F3E0F6CF6330710518F7660F771FFB0186
:10438000E851FE4F4081518189E090E0CFCF63300A
:104390007105B0F6FB01EE0FFF1FEE51FE4F40819D
:1043A000518161527E4FFB01808190E0BFCF82E15D
:1043B00090E045E154E0BACF80E189BD82E189BD5A
:1043C00009B400FEFDCF8091D8008F7D8093D80086
:1043D0008091E00082608093E0008091E00081FDA8
:1043E000FCCF0895AF92BF92CF92DF92EF92FF92EF
:1043F0001F93CF93DF937C01EB016A0195D1182FB6
:10440000811122C0C114D10439F0F601808191815B
:10441000C81BD90BE80EF91EA12CB12C2097A1F0D6
:104420008091E80085FD20C08091E8008E77809320
:10443000E800C114D10499F0F601808191818A0DC0
:104440009B1D8083918315E0812FDF91CF911F9178
:10445000FF90EF90DF90CF90BF90AF90089564D120
:104460008115F1F2182FF0CFF70181917F01809330
:10447000F10021978FEFA81AB80AD0CFAF92BF9260
:10448000CF92DF92EF92FF921F93CF93DF937C0145
:10449000EB016A0149D1182F811122C0C114D10446
:1044A00039F0F60180819181C81BD90BE80EF91E05
:1044B000A12CB12C2097A1F08091E80085FD20C0AF
:1044C0008091E8008B778093E800C114D10499F0C3
:1044D000F601808191818A0D9B1D8083918315E077
:1044E000812FDF91CF911F91FF90EF90DF90CF90C0
:1044F000BF90AF90089518D18115F1F2182FF0CF29
:104500008091F100F70181937F0121978FEFA81A25
:10451000B80AD0CFFC018091DF029091E0028617AB
:10452000970720F06115710561F0CB0140E000971D
:1045300071F441110CC08091E80082FF36C080E028
:1045400008958091E8008E778093E800EECF209167
:10455000D8022115B1F12530B1F12091E80023FDF9
:104560002EC02091E80022FDE6CF2091E80020FF38
:10457000DECF4091F3002091F200342F009719F024
:104580002830310558F041E02830310509F040E08D
:104590002091E8002E772093E800C9CF4191409305
:1045A000F10001972F5F3F4FE9CF8091D80281152D
:1045B00041F0853041F08091E80083FFBCCF81E07D
:1045C000089582E0089583E00895FC018091DF0260
:1045D0009091E0028617970720F06115710561F050
:1045E000CB0140E0009771F441110CC08091E800CC
:1045F00082FF37C080E008958091E8008E77809335
:10460000E800EECF2091D8022115B9F12530B9F19B
:104610002091E80023FD2FC02091E80022FDE6CF85
:104620002091E80020FFDECF4091F3002091F200BE
:10463000342F009719F02830310558F041E0283028
:10464000310509F040E02091E8002E772093E80042
:10465000C9CF44914093F100319601972F5F3F4FAE
:10466000E8CF8091D802811541F0853041F08091EA
:10467000E80083FFBBCF81E0089582E0089583E0E6
:104680000895982F973028F08F708093E90081E08B
:1046900008959093E900242F762F50E0981731F079
:1046A0007091EC002091ED005091F00021FD02C0CE
:1046B0009F5FE8CF3091EB003E7F3093EB0030916D
:1046C000ED003D7F3093ED003091EB003160309391
:1046D000EB007093EC002093ED005093F0002091DC
:1046E000EE0027FDE5CF80E008958091D90287FF95
:1046F00013C08091E80082FF06C08091E8008B77AC
:104700008093E80008958091D8028111F2CF089536
:104710008091D8028115D9F38091E80080FFF8CF0D
:104720008091E8008E77ECCF2091E4003091E50095
:1047300095E6A9012091EC00822F817020FF06C030
:104740008091E80080FF06C080E008952091E80095
:1047500022FD1AC08091D802811589F0853089F038
:104760008091EB0085FD0FC02091E4003091E500C1
:1047700042175307F9F29150E1F684E0089582E080
:10478000089583E0089581E008955FD066D0E0EE5B
:10479000F0E0808181608083E8ED80818F77808385
:1047A00019BCA7EDB0E08C918E7F8C9380818F7EB9
:1047B00080831092D7020895CF93DF9346D04DD0D7
:1047C000C8EDD0E088818F7788838881806888836E
:1047D00088818F7D888319BC1092D8021092D402F0
:1047E0001092D6021092D502E0EEF0E080818B7F2D
:1047F000808388818160888342E060E080E041DFDF
:10480000E1EEF0E080818E7F8083E2EE8081816046
:104810008083808188608083E0EE80818E7F8083CA
:10482000888180618883DF91CF910895E8EDF0E081
:1048300080818F7E8083E7ED80818160808384E04A
:1048400082BF81E08093D702B7CFE8EDF0E08081AE
:104850008E7F80831092E20008951092DA00109209
:10486000E10008951F920F920FB60F9211242F931B
:104870003F934F935F936F937F938F939F93AF93E8
:10488000BF93EF93FF938091E10082FF0AC0809174
:10489000E20082FF06C08091E1008B7F8093E100FF
:1048A00028D28091DA0080FF18C08091D80080FF64
:1048B00014C08091DA008E7F8093DA008091D90055
:1048C00080FF8FC080E189BD82E189BD09B400FE0F
:1048D000FDCF81E08093D802EDDB8091E10080FF85
:1048E00018C08091E20080FF14C08091E2008E7FAA
:1048F0008093E2008091E20080618093E2008091E9
:10490000D80080628093D80019BC85E08093D802DB
:10491000E3DB8091E10084FF28C08091E20084FF06
:1049200024C080E189BD82E189BD09B400FEFDCFCC
:104930008091D8008F7D8093D8008091E1008F7E98
:104940008093E1008091E2008F7E8093E20080916D
:10495000E20081608093E2008091D402811509F425
:1049600045C084E08093D802BEDB8091E10083FFE4
:1049700027C08091E20083FF23C08091E100877F00
:104980008093E10082E08093D8021092D40280915B
:10499000E1008E7F8093E1008091E2008E7F809322
:1049A000E2008091E20080618093E20042E060E0FA
:1049B00080E067DE8091F00088608093F00089DB02
:1049C000FF91EF91BF91AF919F918F917F916F91E7
:1049D0005F914F913F912F910F900FBE0F901F90BD
:1049E000189519BC1092D80271DB77CF8091E30043
:1049F00087FF02C083E0B6CF81E0B4CF1F920F9251
:104A00000FB60F9211241F932F933F934F935F93F1
:104A10006F937F938F939F93AF93BF93CF93DF93C6
:104A2000EF93FF93E9EEF0E080811091EC008F703E
:104A300010FB112717F9182B1082C0EFD0E08881E6
:104A4000877F888378941CD0E9EEF0E0108288811B
:104A5000886088831F701083FF91EF91DF91CF9161
:104A6000BF91AF919F918F917F916F915F914F9186
:104A70003F912F911F910F900FBE0F901F9018958F
:104A8000AAE2B0E0E5E4F5E205C389ED92E0FC01BD
:104A900001962091F100208322E0813E9207B9F730
:104AA00044DB8091E80083FF37C08091D902909168
:104AB000DA029A3088F5E92FF0E0E657F64DC5C2E4
:104AC000803889F0823841F58091DD028F7087301F
:104AD00018F58093E9008091EB0085FB882780F929
:104AE0001092E90006C08091D602880F9091D502FD
:104AF000892B9091E800977F9093E8008093F100D4
:104B00001092F1008091E8008E7722C0811115C0CB
:104B10008091DB02813001F18091E80083FF0AC0BF
:104B20008091E800877F8093E8008091EB008062AD
:104B30008093EB00AA96E3E0C9C2823069F78091C6
:104B4000DB02811579F01092E9008091E800877FFF
:104B50008093E800CADDE0CF933009F080E08093D5
:104B6000D602F1CF8091DD028F70282F21502630A0
:104B700098F68093E9002091EB0020FFE4CF93307A
:104B800031F48091EB0080628093EB00DCCF909158
:104B9000EB0090619093EB0021E001C0220F8A9519
:104BA000EAF72093EA001092EA008091EB00886017
:104BB000EBCF8111B1CF8091DB028F77182F8091DD
:104BC000E3008078812B8093E3008091E800877F69
:104BD0008093E8008ADD8091E80080FFFCCF80911F
:104BE000E30080688093E30083E0111101C082E05C
:104BF0008093D80291CF8058823008F08DCF809179
:104C0000DB029091DC028C3D23E0920789F583E082
:104C10008A838AE289834FB7F894DE01139620E0F5
:104C20003EE051E2E32FF0E050935700849120FFE3
:104C300003C082958F703F5F8F708A30B8F0895CB7
:104C40008D931D922F5F243169F74FBF8091E8004B
:104C5000877F8093E8006AE270E0CE0101965ADC1B
:104C60008091E8008B778093E80056CF805DE8CF95
:104C70006091DD027091DE029E012F5F3F4FA9011E
:104C80003EDBBC01892B09F447CF9091E800977F68
:104C90009093E80089819A8198DCE2CF803809F00E
:104CA0003BCF8091E800877F8093E8008091D40219
:104CB0008093F10027CF81112FCF9091DB029230AA
:104CC00008F02ACF8091E800877F8093E8009093D6
:104CD000D4020BDD8091D402811529F084E0809309
:104CE000D8020ADA19CF8091E30087FDF7CF81E07F
:104CF000F6CF0895CF938091D802811591F08091DD
:104D0000E900C091EC008F70C0FBCC27C7F9C82B1D
:104D10001092E9008091E80083FDB2DECF70C0936D
:104D2000E900CF9108955058BB27AA270ED0B4C0F0
:104D3000A5D030F0AAD020F031F49F3F11F41EF43A
:104D40009AC00EF4E095E7FB90C0E92FB6D080F34F
:104D5000BA17620773078407950718F071F49EF578
:104D6000CEC00EF4E0950B2EBA2FA02D0B01B90189
:104D700090010C01CA01A0011124FF27591B99F0D1
:104D8000593F50F4503E68F11A16F040A22F232FDD
:104D9000342F4427585FF3CF469537952795A7952D
:104DA000F0405395C9F77EF41F16BA0B620B730BD4
:104DB000840BBAF09150A1F0FF0FBB1F661F771F45
:104DC000881FC2F70EC0BA0F621F731F841F48F4FA
:104DD000879577956795B795F7959E3F08F0B3CF80
:104DE0009395880F08F09927EE0F9795879508956A
:104DF000E89409C097FB3EF4909580957095619575
:104E00007F4F8F4F9F4F9923A9F0F92F96E9BB272A
:104E10009395F695879577956795B795F111F8CFA6
:104E2000FAF4BB0F11F460FF1BC06F5F7F4F8F4F11
:104E30009F4F16C0882311F096E911C0772321F007
:104E40009EE8872F762F05C0662371F096E8862F9F
:104E500070E060E02AF09A95660F771F881FDAF7F6
:104E6000880F9695879597F9089597F99F6780E839
:104E700070E060E008959FEF80EC089500240A94AC
:104E80001616170618060906089500240A94121625
:104E90001306140605060895092E0394000C11F458
:104EA000882352F0BB0F40F4BF2B11F460FF04C005
:104EB0006F5F7F4F8F4F9F4F089557FD9058440F5E
:104EC000551F59F05F3F71F04795880F97FB991F69
:104ED00061F09F3F79F08795089512161306140626
:104EE000551FF2CF4695F1DF08C0161617061806B3
:104EF000991FF1CF86957105610508940895E8948E
:104F0000BB2766277727CB0197F9089503D008F4CC
:104F10008FEF0895990F0008550FAA0BE0E8FEEFF8
:104F200016161706E807F907C0F012161306E4076D
:104F3000F50798F0621B730B840B950B39F40A2666
:104F400061F0232B242B252B21F408950A2609F444
:104F5000A140A6958FEF811D811D089505D03323B3
:104F600012F48A1B9B0B78C0A29FB001B39FC001B3
:104F7000A39F700D811D1124911DB29F700D811D85
:104F80001124911D0895992778E0880F991F96178D
:104F900008F0961B881F7A95C9F78095089587FBBE
:104FA000082E062687FD819567FD6195ECDF0EF4DE
:104FB000919507FC81950895AA1BBB1B51E107C081
:104FC000AA1FBB1FA617B70710F0A61BB70B881F99
:104FD000991F5A95A9F780959095BC01CD01089528
:104FE00097FB072E16F4009406D077FD08D0E4DF77
:104FF00007FC05D03EF4909581959F4F08957095DC
:1050000061957F4F0895A1E21A2EAA1BBB1BFD01DB
:105010000DC0AA1FBB1FEE1FFF1FA217B307E40797
:10502000F50720F0A21BB30BE40BF50B661F771FEF
:10503000881F991F1A9469F76095709580959095CF
:105040009B01AC01BD01CF010895EE0FFF1F05903C
:10505000F491E02D099488DFB7FF0895821B930B2C
:10506000089582DFA59F900DB49F900DA49F800DA1
:10507000911D112408952F923F924F925F926F924B
:105080007F928F929F92AF92BF92CF92DF92EF92D8
:10509000FF920F931F93CF93DF93CDB7DEB7CA1B59
:1050A000DB0B0FB6F894DEBF0FBECDBF09942A8884
:1050B000398848885F846E847D848C849B84AA842C
:1050C000B984C884DF80EE80FD800C811B81AA81B9
:1050D000B981CE0FD11D0FB6F894DEBF0FBECDBF84
:1050E000ED0108958F929F92AF92BF92CF92DF927F
:1050F000EF92FF92CF93DF93EC01688179818A81EF
:105100009B81611571058105910521F464E279EDBA
:105110008BE597E02DE133EF41E050E09BD0490172
:105120005A019B01AC01A7EAB1E49BDF6B017C0152
:10513000ACEEB4EFA5019401ABD0DC01CB018C0D3A
:105140009D1DAE1DBF1DB7FF03C00197A109B0484B
:1051500088839983AA83BB839F77DF91CF91FF9048
:10516000EF90DF90CF90BF90AF909F908F90089579
:10517000B9CF80E091E0B6CFB0E0A0E0809300012D
:1051800090930101A0930201B09303010895FC01E3
:105190004150504030F001900616D1F73197CF01C1
:1051A0000895882799270895FB01DC0104C08D919B
:1051B0000190801921F441505040C8F7881B990B89
:1051C0000895FB01DC0102C001900D924150504056
:1051D000D8F70895F999FECF92BD81BDF89A992725
:1051E00080B50895A6E1B0E044E050E025C0A8E114
:1051F000B0E042E050E020C0262FF999FECF92BDEA
:1052000081BDF89A019700B4021639F01FBA20BD8B
:105210000FB6F894FA9AF99A0FBE08950396272FBD
:10522000ECDFEADF252FE9DF242FE7CF0196272FD8
:10523000E4DFE2CFDC01CB01FC01F999FECF06C02F
:10524000F2BDE1BDF89A319600B40D924150504044
:10525000B8F70895052E97FB16F400940FD057FD6C
:1052600005D0D1DE07FC02D046F408C05095409529
:10527000309521953F4F4F4F5F4F08959095809502
:10528000709561957F4F8F4F9F4F0895B7FFE9CE7F
:10529000E8DE821B930B0895F894FFCF0E121112D3
:1052A000151219121D122112251229122D12311256
:1052B0003512BC18C718CB18CE18D018D218D4186D
:1052C000D618151C841C1D1CE71BEB1B211CEF1B97
:1052D000251C311CFB1B7D1CFF1B351C031C391CB2
:1052E0005E1C071C3D1C651C0D1C431C4B1CF31B4A
:1052F000291CF71B2D1C111C471C551C6E1C7B1CEC
:10530000E11B191C8B1CB81DBE1DA91DB21DC41D9F
:10531000CA1DD01D602586258C2586258C25D9257E
:08532000FB258C254E265B26BF
:1053280001000000E8035002010102000500050524
:1053380001191A1B1C1D1E1F20212200000100FC40
:105348001E1A20EA1FE91F15200D20E200E900EAD5
:1053580000B500B600B700CD008301CC008A0192E9
:105368000194012102230224022502260227022A8F
:1053780002B300B4006F0070009F01CB019F02A030
:1053880002E200E900EA00B500B600B700CD0083EC
:1053980001CC008A019201940121022302240225F2
:1053A80002260227022A02B300B4006F0070009F91
:1053B80001CB019F02A002379496F6F70001020282
:1053C80002020606060909090909090F0F0F0F0F3E
:1053D8000F15151518191919191919191919192342
:1053E800242525252525254B1B4D1B581B701B00E7
:1053F800FF0100010000FFFF0000010001FF004461
:0E54080022327B0427044904CC03E50305048B
:00000001FF
