:1000000084C200009FC200009DC200009BC200008D
:1000100099C2000097C2000095C2000093C2000080
:1000200091C200008FC200000C9411260C94DD26B2
:100030000C940E2187C2000085C2000083C200001C
:1000400081C200007FC200007DC200007BC20000B0
:1000500079C200000C94852175C2000073C20000B3
:1000600071C200006FC200006DC200006BC20000D0
:1000700069C2000067C2000065C2000063C20000E0
:1000800061C200005FC200005DC200005BC20000F0
:1000900059C2000057C2000055C2000053C2000000
:1000A00051C200004FC200004DC20000005768005E
:1000B00069006A006B0000576C006D006E006F00F5
:1000C000005770007100720073001E0F0500047F5E
:1000D0003F1F643214643214783C1E1E140A052239
:1000E00023252628292A2C2D2F3032333536383A2D
:1000F0003B3D3E4042434547494A4C4E5051535583
:1001000057595A5C5E6062646668696B6D6F7173A3
:100110007577797B7D7F81838587898A8C8E9092A4
:100120009496989A9C9E9FA1A3A5A7A8AAACAEAFAF
:10013000B1B3B4B6B8B9BBBCBEBFC1C2C3C5C6C7F4
:10014000C9CACBCCCDCED0D1D2D2D3D4D5D6D7D7A5
:10015000D8D9D9DADADBDBDBDCDCDCDCDCDDDDDDED
:10016000DDDCDCDCDCDCDBDBDBDADAD9D9D8D7D7E9
:10017000D6D5D4D3D2D2D1D0CECDCCCBCAC9C7C696
:10018000C5C3C2C1BFBEBCBBB9B8B6B4B3B1AFAED4
:10019000ACAAA8A7A5A3A19F9E9C9A98969492907A
:1001A0008E8C8A89878583817F7D7B797775737152
:1001B0006F6D6B6968666462605E5C5A595755532F
:1001C00051504E4C4A4947454342403E3D3B3A38E8
:1001D00036353332302F2D2C2A292826252322FF8D
:1001E000AA7F554000010101010101010101020244
:1001F00002020202020202030303030303030304D5
:10020000040404040404050505050506060606069F
:10021000070707070708080808090909090A0A0A59
:100220000B0B0B0C0C0C0D0D0D0E0E0E0F0F0F10FB
:100230001011111112121313141415151616171785
:10024000181819191A1A1B1B1C1D1D1E1E1F2020F1
:10025000212222232424252626272829292A2B2C3B
:100260002D2D2E2F30313232333435363738393A5E
:100270003B3C3D3E3F404142434445464748494A56
:100280004C4D4E4F50515354555658595A5B5D5E24
:100290005F616264656668696B6C6D6F70727375BF
:1002A00077787A7B7D7E8082838587888A8C8E8F23
:1002B00091939596989A9C9EA0A2A3A5A7A9ABAD51
:1002C000AFB1B3B5B7BABCBEC0C2C4C6C9CBCDCF3F
:1002D000D1D4D6D8DBDDDFE2E4E7E9EBEEF0F3F5ED
:1002E000F8FAFDFF00000000000000002A2B2800A3
:1002F00000000000000000000000000000000029D5
:10030000000000002C1E3420212224342627252E14
:10031000362D3738271E1F2021222324252633334C
:10032000362E37381F0405060708090A0B0C0D0E78
:100330000F101112131415161718191A1B1C1D2F44
:100340003130232D350405060708090A0B0C0D0E64
:100350000F101112131415161718191A1B1C1D2F24
:100360003130354C000000000000000000000000AB
:10037000000000000000000000000000000000007D
:1003800000000000000000007E0F00D4FFFFFFC748
:100390000000007810036200690067004B004E0007
:1003A0004F00420000001E036C0065006100660003
:1003B0006300750074007400650072006C006100D9
:1003C0006200730000000403090409025B000301DA
:1003D00000A0FA0904000001030101000921110134
:1003E00000012244000705810308000109040100FF
:1003F000020300000009211101000122220007056B
:100400008203200001070503032000010904020004
:100410000103000000092111010001226D00070500
:1004200084032000011201000200000008EBCE0747
:10043000000100010200010660FF0961A1010962DB
:10044000150026FF00952075088102096315002616
:10045000FF00952075089102C005010980A1018562
:100460000319012AB700150126B7009501751081FF
:1004700000C0050C0901A101850419012AA002157B
:100480000126A002950175108100C005010906A191
:10049000018506050719E029E7150025019508756E
:1004A0000181020507190029EF1500250195F07556
:1004B000018102050819012905950575019102952B
:1004C0000175039101C005010906A101050719E0A5
:1004D00029E7150025019508750181029501750828
:1004E00081010507190029FF150026FF00950675F3
:1004F00008810005081901290515002501950575D4
:10050000019102950175039101C011241FBECFEF27
:10051000DAE0DEBFCDBF12E0A0E0B1E0E0EBF4E551
:1005200002C005900D92A230B107D9F723E0A2E0F6
:10053000B2E001C01D92A633B207E1F70E946D122E
:100540000C94102A5DCDFC019281913031F48581AB
:1005500082FD07C081708E5F0895923021F484E09F
:10056000089582E0089581E008951F93CF93DF936B
:100570000E949A13182F811101C0B7D0C4E0D0E0B7
:100580004FEF6FEF80E00E940F158FE79AE126E0B2
:10059000815090402040E1F700C000004FEF6FEF26
:1005A0008BE20E940F158FE79AE126E08150904080
:1005B0002040E1F700C00000219711F7111105C09C
:1005C00094D0DF91CF911F91089565D0FACF97FD18
:1005D00008C02091040130910501281739070CF05B
:1005E000FDC5C3CF0E94481881E00E94221880E018
:1005F00090E0EDCF20910602822F90E0409104011F
:10060000509105012417150614F40196E0CF80E0FF
:10061000FDCF80910602811519F08150990BD7CF3B
:100620008091040190910501FACF811121C0809140
:100630000402909105026115E9F097FF02C080E085
:1006400090E0019680930402909305029C0197FF2D
:1006500004C022273327281B390B409116015091E3
:1006600017012417350724F01816190654F4C2DFB1
:1006700080E008951816190614F480E090E00197C0
:10068000E1CFC7DFF5CFFC012081213019F4818152
:1006900090E09DCF6ACF80910602813059F0823080
:1006A00071F04FEF6FEF811541F05FDF4FEF6FEFAC
:1006B0008BE203C04FEF6FEF85E50C940F154FEF02
:1006C0006FEF8AEAFACFCF93DF93EC011092040226
:1006D00010920502BC0180E090E0C2D18093060236
:1006E000DADFCE01DF91CF9108950E941C180E949D
:1006F0009A138111D0CF089526DF833029F08430FA
:1007000021F0823019F476CF84CFEFCF0895833073
:10071000A0F4611112C0453080F4E42FF0E095E0C0
:10072000899FE00DF11D1124EE0FFF1FE455FF4FCF
:1007300085919491282F822F089521E090E0FBCF9E
:10074000E6CF089581E090E00895892B19F486E0C2
:1007500091E0089580E090E008959C0191509F31D0
:10076000B0F4832F817034FF0AC08295807F31FD01
:10077000806232FD806433FF0BC08068089531FDD4
:10078000826032FD846033FF03C08860089580E09A
:100790000895CF93DF93EB01E0DFFE010995DF9130
:1007A000CF910895CF93DF93EC01805E9109089774
:1007B00020F061E678E0209711F466E576E0CE015E
:1007C000E8DF8C2FF4D1DF91CF910895CF93DF93A1
:1007D000EC0128D2CE01805E9109089720F066E6F0
:1007E00078E0209711F46BE576E0CE01D2DFDF915F
:1007F000CF9108950F931F93CF93DF938C01EB015B
:10080000D1DF209739F4C801E1DFDF91CF911F914B
:100810000F9108958FE99FE00197F1F700C0000064
:100820002197EFCF60E570E08933910511F060E02A
:1008300070E0E0CF81E0089581E00895FBCF089556
:1008400081E0089581E00895FDCF08950895089509
:10085000FDCF089508950895A6E0B0E0E2E3F4E046
:100860000C940E2949835A839E8330910C0289810E
:100870009A81311117C03E81311589F0211579F027
:1008800064D5182F682F89819A8146D569817A812C
:10089000812F0E94B00F2696E3E00C942A2948D5B8
:1008A000182FF4CF52D569817A81F3CFFC01262F1E
:1008B000408151816281738184819581CDCFCF93B5
:1008C000DF93EC0161E0F2DFBE01B6DF811529F0B4
:1008D00061E0CE01EBDFBE01B1DFDF91CF91089582
:1008E0000F931F93CF93DF93EC0160E0DFDF8C0168
:1008F000BE01ADDFBE01C801ABDFDF91CF911F911B
:100900000F9108950F931F93CF93DF938C0161E0B4
:10091000CDDFD82FC92FB8010E94761E811529F08E
:1009200061E0C801C3DFD82FC92FF801858181118B
:100930000E940019B8018D2F9C2F82DF811106C003
:1009400080E0DF91CF911F910F910895B8018D2F15
:100950009C2F7ADF8115A1F3B8018D2F9C2F0E9467
:100960009A1E811569F3B8018D2F9C2F0E941019D2
:10097000811531F3B8018D2F9C2F0E94F81D811530
:10098000F9F2B8018D2F9C2F0E941A1C8115C1F21B
:10099000B8018D2F9C2F0E94F11B811589F2B8019F
:1009A0008D2F9C2F0E948512811551F2B8018D2F39
:1009B0009C2F0E94B110811519F2B8018D2F9C2F28
:1009C0000E94C310811509F4BBCFB8018D2F9C2F55
:1009D0000E94DD10B6CF21E030E002C0220F331FAD
:1009E0008A95E2F7C901D5C3CF93C82F81E090E083
:1009F0000C2E02C0880F991F0A94E2F70E94D20DB4
:100A00008C2FE9DFCF91089581E0089581E008956A
:100A1000FBCF0895CF93C82F6BD38C2FF7DF8C2F8C
:100A2000F7DF8FEF94E32CE0815090402040E1F716
:100A300000C00000CF91089581E0ECDF0C94A92163
:100A400080E0E8DF0C94BA2105DF0E94EB205BD048
:100A50000C949B175AD00E945018FDDE0C94EF2086
:100A6000AB01BC01A0E0B0E020E1109790408040D5
:100A700019F4CA01DB0120E0492F5A2F6B2F70E0D7
:100A8000411551056105710519F0285FCA01DB01A7
:100A9000AC01BD01F4E07695679557954795FA95B9
:100AA000D1F7411551056105710519F02C5FCA0197
:100AB000DB01AC01BD01E2E076956795579547955E
:100AC000EA95D1F7411551056105710519F02E5FC1
:100AD000CA01DB01B695A79597958795820F089572
:100AE00081E008950895CF93DF93C82FF9DFD82FC1
:100AF000811511F08C2FF6DF8D2FDF91CF910895A6
:100B00000895F1CF089580E0FCCF0E94201FF9CF17
:100B1000CF930E94201FC82F809107028C1771F07D
:100B2000C09307020E947921609308027093090222
:100B300080930A0290930B028C2FE3DFCF910895EC
:100B4000ADE0B0E0E6EAF5E00C940F29488759875C
:100B50006A877B878C879D8791110BD71F8286E0E0
:100B6000FE0138969E012F5F3F4FD90101900D92F3
:100B70008A95E1F78D8181110CC029813A814B81E1
:100B80005C816D817E818F8139D62D96E2E00C9457
:100B90002B29CE01019693DE8111EFCFF6CFFC0118
:100BA0002481213019F48081918102C40895CF936A
:100BB000C82F811581F08450813A78F48C2F0E94DF
:100BC000C41F811521F08C2F0E94612060D78C2FCB
:100BD0000E944A205CD7CF9108958C2F805E883088
:100BE00048F481E0C1FD84E0C0FD880FC2FD82951C
:100BF0009BD6F0CF8C2F855A833030F48C2F8452C3
:100C0000990B0E94501FE7CFC85ACB3120F7EC2F29
:100C1000F0E0EE0FFF1FE15CFE4F808191810E94AA
:100C2000771FD9CF811521F1982F9450913A18F45C
:100C30000E9461202CC7982F905E983050F4982F16
:100C400081E091FD84E090FD880F92FD829572D63F
:100C5000F1CF982F955A933020F480E090E00C94D7
:100C6000501F885A8B3120F480E090E00C94771F5D
:100C700008951F93CF93DF93182FEB0198DF2097F0
:100C800031F4812FCFDFDF91CF911F9108958FE94C
:100C90009FE00197F1F700C000002197F0CF60E5D9
:100CA00070E0893311F060E070E0E3CF811511F05E
:100CB0003BD6EDC60895811511F03CD6E8C60895DF
:100CC000A0E0B0E0E6E6F6E00C9409296C01D62F2E
:100CD000C72FFC011581068102950F701AD6E82EE8
:100CE0008115E9F0E12E1115D1F08C2F807F803431
:100CF00061F08D2F805E883098F18C2F807E80325D
:100D000021F4D23068F1011559F18091080382FF76
:100D100027C082E0E0D6FDD591E08927E82E8C2F10
:100D200082958F70883009F4CAC068F58430D0F499
:100D3000823008F438C08C2F8F70F82EC07FC032FC
:100D400019F0F29480EFF822D13008F456C009F47B
:100D50007EC0111509F487C0011509F467C036C0BB
:100D6000E12CDDCF09F48FC0E11409F4D8C0CDD552
:100D700080FDD5C0F6011582C2D539D2C60183D116
:100D8000BED543D2CCC0893009F40BC18A5F8F70C5
:100D9000823050F7D23F09F011C18C2F8F711111A1
:100DA0000BC125D2B9C00C2F0F70C03110F00295C5
:100DB000007F111581F0011549F08D2F805E88307C
:100DC00010F0D11105C0802FAFD561D68D2F21C075
:100DD000802FC1D5FACF8D2F25DF011509F4C4CF9F
:100DE0008D2F805E883010F0D11103C0802FA2D5E6
:100DF00002C0802FB6D54BD6B7CF8091080382FDB5
:100E000011C0111541F0F11419F08F2D8DD53FD679
:100E100080E0CDDEA9CF80E005DFF11409F4A4CF96
:100E20008F2DE5CF111551F0013018F48F2D3EDFD5
:100E30009BCF09F099CF8F2DB3D596CF011194CFC9
:100E40008F2D39DF8F2DB7D58F2D9CD58DCF1115D7
:100E500021F0063008F088CFE9CF053008F084CFC4
:100E60008F2D29DF81CF0115D9F3D93349F48FEFC5
:100E700097EE23E0815090402040E1F700C0000051
:100E80008D2FD0DE71CF8C2F869586958370813023
:100E900060F009F069CF8D2F9C2F9370111102C063
:100EA00080E090E00E94771F5FCF8D2F9C2F937082
:100EB000111102C080E090E00E94501F55CF8C2F8E
:100EC0008370C1F5111128C04D2F4295469547708A
:100ED000440F440F2D2F2F7030E0042E02C0220F3C
:100EE000331F0A94E2F780E090E0D4FF09C08FE05E
:100EF00090E002C0880F991F4A95E2F7809590957F
:100F0000C695C695C370822B932BC23079F0C3303F
:100F100079F0C13049F046D10E94201FF2DDCDB7F3
:100F2000DEB7E8E00C94252936D1F6CF42D1F4CFD4
:100F300030D1F2CF111559F1C0FFEECF4D2F4295B0
:100F400046954770440F440F2D2F2F7030E0042E2C
:100F500002C0220F331F0A94E2F780E090E0D4FF32
:100F600009C08FE090E002C0880F991F4A95E2F710
:100F700080959095C695C695C370822B932BC230F1
:100F800061F0C33061F0C13031F064D1C5CF82303F
:100F900008F4C2CFD3CF57D1BFCF63D1BDCF14D1C7
:100FA000BBCFCF70111529F08C2F21D18D2F7EDE74
:100FB000B3CF8D2F80DE8C2F28D1AECF58F4D03F09
:100FC000B1F0D13F79F01115B9F1011591F18D2FE3
:100FD000EEDDA2CFD33FB1F0D43FA9F78091080353
:100FE00082FD18C08C2F8F71111531F3DACE1115D7
:100FF00039F0053008F090CF8C2F8F7116D18CCF3F
:101000000630F8CF111521F08C2F8F71E7D084CFE7
:10101000E2D082CF111529F063E08C2F8F7144D577
:101020007BCF81E058D5023008F476CF82E053D5EB
:1010300073CF8C2F8F71B5CE011571F0D93349F470
:101040008FEF97EE23E0815090402040E1F700C001
:1010500000008D2FE7DD60CF8C2F8F71ADCF0F9308
:101060001F93CF93DF93EC01688179818D81A9D1A2
:101070008C01FED08DD0B801CE0122DEDF91CF9160
:101080001F910F910895CF93DF93EC018C8181150F
:1010900081F0CE0137DC81110FC03BD4811549F0BE
:1010A0008D81811531F08091080382FF02C082E0BA
:1010B00012D5DF91CF910895CE01D1DFCE0110DCA2
:1010C000F8CF811511F047D4E2C40895811511F0CD
:1010D00048D4DDC4089580E090E00E94501F80E075
:1010E00090E00E94771F45D4D2C40E947820F3CFAD
:1010F0002CD4FBCF282F92959F70963099F060F4F6
:10110000925F9F70923030F4203FB1F038F481E06C
:10111000283E38F080E008959A5FF3CF81E0243FC5
:10112000C9F7089591E0813F09F090E081E0283E01
:1011300008F080E0892B089581E00895FC01248166
:10114000211521F08081918133D1D4CF80E00895A1
:10115000A6E0B0E0EEEAF8E00C940F292696E2E073
:101160000C942B29A7E0B0E0E8EBF8E00C940F29F1
:101170002796E2E00C942B290895FECF0895FDCF29
:101180000895FADFFCDF8093130290931402089510
:101190000895F7CF08952091130230911402822B05
:1011A000932BEFCF209113023091140282239323CB
:1011B000E8CF209113023091140282279327E1CFC8
:1011C00082CA0895D9CF0895FDDFFADF8093110216
:1011D00090931202089580E090E0F6CF21E030E095
:1011E00002C0220F331F8A95E2F7C901EDCF21E03B
:1011F00030E002C0220F331F8A95E2F7809111027E
:1012000090911202822B932BDFCF21E030E002C0BD
:10121000220F331F8A95E2F72095309580911102B5
:101220009091120282239323CFCF21E030E002C0BD
:10123000220F331F8A95E2F78091110290911202DA
:1012400082279327C1CF2091110230911202822B65
:10125000932BBACF20911102309112028223932353
:10126000B3CF209111023091120282279327ACCF85
:101270000895CF93C1E061FDC4E060FDCC0F62FD35
:10128000C29593E0769567959A95E1F7660F771F7B
:10129000660F771F460F571FFA0140E050E090E0BD
:1012A0006191DF019C01042E02C0369527950A94B6
:1012B000E2F72695220B26272C2326272E934F5F15
:1012C0005F4F4430510561F7CF910895A82FA77063
:1012D00023E0969587952A95E1F7880F991F880F47
:1012E000991F680F791FFB0140E050E080E02191D9
:1012F00030E00A2E02C0369527950A94E2F7217055
:10130000042E01C0220F0A94EAF7822B4F5F5F4F31
:101310004430510561F70895262F911108C085309A
:1013200030F4682F70E04DE052E0822FA2CF089594
:10133000911109C0853028F46DE072E090E0C6DFBD
:10134000982F892F089590E0FCCFCF92DF92FF92E3
:101350000F931F93CF93DF936C01009111021091B3
:1013600012028091130290911402082B192BCFE0E6
:10137000D0E081E090E00C2E02C0880F991F0A9403
:10138000E2F780239123892B61F4219790F7F12CC8
:101390008F2DDF91CF911F910F91FF90DF90CF9014
:1013A0000895FC2EB6018C2FE6D5019771F3F0CF8E
:1013B000CF93DF93EC01C9DFBE01DDD5DF91CF9183
:1013C00008950F931F93CF938B0190910C02911569
:1013D00031F0CB01EDDFCF911F910F910895811571
:1013E00051F0CB01B2DFC82F682FC80195DFB801DB
:1013F0008C2FC1D5F0CFCB019BDFC82FF8CF0F9337
:101400001F930091150280911602801303C01F9153
:101410000F91089587E0089FF0011124E95EFD4FC8
:1014200020813181428153816481758186819ADE78
:101430000F5F1F4F0770E7CF20914F02309150028E
:1014400040915102509152026091530270915402A6
:101450008091550287CE80915502803170F4809141
:101460005402811551F0E09115022091160230913D
:10147000500240914F022E1301C00895BF0187E032
:10148000E89FF0011124DF01A95EBD4F14968C91F5
:101490001497811549F111968C911197831324C0EB
:1014A0008C91841321C015968C91159781111CC0C5
:1014B00012968D919D91A0915102B09152028A1B7A
:1014C0009B0B8A3F910580F4809155028F7080615B
:1014D00080935502E35EFD4F80818F708061808331
:1014E0008FE492E0D0DD8BCF6F5F7F4FFB01E77021
:1014F000C2CFE091150290911602E91302C080E07C
:1015000008959F0157E0E59FF0011124E95EFD4F2A
:101510005181561306C05081581303C0558154138E
:1015200005C02F5F3F4FF901E770E7CF81E00895D5
:101530008F929F92AF92BF92DF92EF92FF920F93A2
:101540001F93CF93DF93CDB7DEB72D970FB6F894E7
:10155000DEBF0FBECDBF8C0186E0F801DE0118961C
:1015600001900D928A95E1F7F801F58084819FE45E
:10157000892E92E0992E90915302911117C08115F6
:1015800009F4EFC0F11409F42EC1C801D7DD8115AB
:1015900009F429C187E0F801D40101900D928A95E0
:1015A000E1F7C401FCDA57DF47DFDBC0E080A2804F
:1015B000B380D09054022091510230915202A50183
:1015C000421B530BD11409F4CFC04A3F510508F018
:1015D0009EC0811509F4C5C0909150029180809100
:1015E0005502803108F065C0991226C090914F02D3
:1015F0009E1122C0F11057C08F70806180935502F8
:101600001BDF8FE492E03FDD80915502F801868375
:10161000F12C8F2D2D960FB6F894DEBF0FBECDBFE7
:10162000DF91CF911F910F91FF90EF90DF90BF90CE
:10163000AF909F908F900895F11035C040E0692DD4
:101640008E2D57DF40E0692D8E2D53DFF82E81114E
:10165000DFCF88859985ACDE292F22952F709034B5
:1016600050F49F70223078F0911591F0F801968136
:10167000903170F4CECF2A5F2F70223070F0C80105
:1016800002DDFD2CC6CF911519F0811509F4C1CFEB
:10169000805E883008F4BDCFF2CF803F08F4B9CF28
:1016A000815F8330F7CF809155028160809355022E
:1016B000AFCF991207C090914F029E1103C0F11451
:1016C00009F473C0C8013ADD811509F48CC0F11426
:1016D00009F489C080915502803280F020914F0238
:1016E0003091500229833A83AB82BC82909153029D
:1016F0009D831E828F83CE010196C5DC87E0F801B1
:10170000AFE4B2E001900D928A95E1F74CCF909151
:101710005502903188F4488559856A857B858C858A
:101720009D8516DD8FE492E0AEDCF40187E0119236
:101730008A95E9F781DE6CCF811599F020915002EE
:1017400081812813BFCF80914F028E11BBCFF11042
:10175000B9CF9683C80197DCF40187E011928A958E
:10176000E9F7FF24F39455CF4A3F510508F03EC0F6
:101770008115B9F3F114B9F1909150028181981358
:1017800029C080914F028E1125C08091550280FDA5
:1017900018C08031B0F08683807F803F39F0868129
:1017A000982F907F905F8F70892B8683C8016BDCA8
:1017B00087E0F801AFE4B2E001900D928A95E1F77D
:1017C000F3CE87E0F801AFE4B2E001900D928A9584
:1017D000E1F7C7CFC801B2DC811190CF80915502EB
:1017E000816080935502C8014EDCBBCF4885598586
:1017F0006A857B858C859D85ABDC97CFAEE0B0E0BC
:10180000E4E0FCE00C940E29288739874A875B873F
:101810006C877D878E87CE0108968ADE6C85811560
:1018200099F0611539F0288539854A855B857D8574
:101830008E8598DC809115029091160289133DC027
:101840002E96E3E00C942A2987E09E01285F3F4F03
:10185000F90127503109D90101900D928A95E1F7DC
:10186000611541F3A09116028A2F90E0839587704D
:1018700090E0AC01209115022417150691F097E035
:101880009A9FD0011124A95EBD4F9E012F5F3F4F4B
:10189000F90101900D929A95E1F740931602AFDDA0
:1018A000C9CF26DC1092160210921502EFE4F2E086
:1018B00087E011928A95E9F7BDCF17E0189FC00124
:1018C0001124895E9D4F34DE811509F4B9CFE09172
:1018D00015021E9FF0011124E95EFD4F2081318128
:1018E000428153816481758186813CDC809115023F
:1018F0009091160201968770809315029BCF80917C
:101900007E02869586958695089580917E028770E1
:10191000089590917E02977081E0911101C080E05E
:1019200008958091AA0208959091AA02982B90930D
:10193000AA0208958095982F8091AA028923809306
:10194000AA0208958093AA0208951092AA02089507
:101950008091A90208959091A902982B9093A902D1
:1019600008958095982F8091A90289238093A902D8
:1019700008951092A9020895809180020895089513
:10198000FECF089590917F02292F282329F080957A
:10199000892380937F02F4CF08950895FECF0895A0
:1019A00090918002292F2823281721F0982B9093BB
:1019B0008002F4CF089590918002292F282329F0E6
:1019C0008095892380938002E9CF089580918002D9
:1019D000811521F01092800280E0E0CF0895CF932E
:1019E000C091AA028091A902C82B80918002811522
:1019F00029F0C82B0E949E1F8111E8DF8C2FCF9108
:101A00000895CF93DF93C0911A01D0911B01E7DFB6
:101A10008883C0911A01D0911B0148E050E066E72D
:101A200072E0CE010E949829892B59F088E0FE01CE
:101A3000A6E7B2E001900D928A95E1F7CE010E94EF
:101A4000311FDF91CF910895CF93DF93C09118019B
:101A5000D0911901C4DF8983C0911801D091190177
:101A600040E250E066E572E0CE010E949829892BA1
:101A700059F080E2FE01A6E5B2E001900D928A9550
:101A8000E1F7CE010E943E1FDF91CF9108950E94A1
:101A9000191F811529F08091070387FF01C0D4CF5A
:101AA000B0CF0895FECF08959091080392FF0EC025
:101AB000982F990F990F990F962B90937E0297DB91
:101AC00080917E02869586958695ECCF90CB10927C
:101AD0007E0280E0E7CF90917E02809589238093FB
:101AE0007E02282F277059F4891749F09091080336
:101AF00092FF05C086958695869587DBE8CF089589
:101B00009091080392FB222720F9281749F080FBC7
:101B100092F99093080387E093E048D082E0DBCF0E
:101B2000089580910803002482FF0394802DE8CF5C
:101B300081E0E6CF80E0E4CF80E090E0BC0102C429
:101B400080E090E0BC01F8D3F7CFA4E0B0E0EBEA8E
:101B5000FDE00C940F294BD356D31C82CE01049682
:101B600069D381E090E080931302109214026ED347
:101B7000198284E18A83CE01019679D3CBD51B8269
:101B8000CE01039686D3DCDF2496E2E00C942B2969
:101B9000DCCF08953EC308952BC3089540C3089534
:101BA0004FC3089553C3089556C3089560C308955D
:101BB00065C308956EC3089572C30895A4C30895BC
:101BC000C7C30895A6E0B0E0E8EEFDE00C940D294F
:101BD0000E946D218C018091AB029091AC02801724
:101BE000910779F019821A820E946D21BC01498106
:101BF0005A8180E090E00E94A0050093AB02109310
:101C0000AC022696E4E00C9429290E947921609385
:101C1000B6027093B7028093B8029093B9026093B2
:101C2000B2027093B3028093B4029093B502089508
:101C30000E9479216093B6027093B7028093B80234
:101C40009093B9026093AE027093AF028093B0029A
:101C50009093B102089508950895FDCF08950895D1
:101C6000FEDFFBCF0C94F20208950895FEDFFACF59
:101C70008FEA90E145D4F0DFF3CF81E0089581E071
:101C80000895FBCF0895089508950895FCDFFCDFC3
:101C9000FCCF82DF811101C07BDF8AEB92E07EDF27
:101CA00087E093E081DF7CDF74DA8091110290910C
:101CB000120286CA0E9464210E94691AA8D3E9DF31
:101CC0000E9480050E9458190E942418CFCFA6E0D8
:101CD000B0E0EDE6FEE00C940A29D1DF81110FC0DF
:101CE00071DF0E94FC1E0E9401190E94D81A811106
:101CF0009FDF0E9488052696E7E00C9426298FD363
:101D00001091AD0280E02FD3181751F38091BA02E1
:101D100081FD2FD3B6DFD82E80E025D3E82E809129
:101D2000AD02E81202C071DFDCCF8E25182F00E073
:101D3000FF24F394812F8F2139F40F5FFF0C0530BE
:101D4000C9F7E092AD02EFCFD114B9F309831A823B
:101D50000E946D218B839C8381E08D8391E08E2D89
:101D60008F2109F490E049815A816B817C818D81BA
:101D70000E94A005E2CF0F931F93CF93DF93FDD076
:101D8000EC01D23508F050C0D03508F0C8C0C03ED4
:101D9000D10530F5CD3CD10508F09DC0C83AD1053C
:101DA00078F4C53AD10508F093C0C130D105B1F13E
:101DB000CE010497813A910588F1C0E0D0E02EC0B1
:101DC000CE01885A91094B97C0F7C85AD0E0CC0F82
:101DD000DD1FCB58DE4F0990D881C02DD4641EC0C2
:101DE000D034A8F4D03208F0ADC0C83ED105B0F070
:101DF000CE0191509F3108F78D2F62D1082F8C2F83
:101E000090E0BBD0D02FDF71C82FD92B07C08C2F0B
:101E100090E0B3D0DF70C82FD92BD06ACE01DF910C
:101E2000CF911F910F910895C03882E5D807B8F57A
:101E3000C03682E5D80708F056C0C03482E5D8071E
:101E4000C8F4C03282E5D80708F047C08C2F8695C9
:101E5000869520E2829FC0011124C37021E030E00A
:101E600002C0220F331FCA95E2F7E901C82BD92B14
:101E7000DD68D4CF8C2F86958695877020E2829F6F
:101E8000C0011124C37021E030E002C0220F331FD3
:101E9000CA95E2F7E901C82BD92BDC68BFCFC03C5B
:101EA00082E5D80750F48C2F8F71C03AD24580F567
:101EB000982F84EF906AEC01B1CFCE01805C9245FF
:101EC000809708F07ACFDC2FDF71C0EFD06AA6CF01
:101ED000A497D064A3CFD065A1CF8C2F8F71D82FBA
:101EE000C1EFD06A9BCF8C2F86958695877020E2B4
:101EF000829FC0011124C37021E030E002C0220F94
:101F0000331FCA95E2F7E901C82BD92BDA6886CFCF
:101F1000D7D0982F80E09F71EC01D0627FCF8C2FBB
:101F20008F71CED053E0CC0FDD1F5A95E1F7DF70F3
:101F3000282F84FF04C090E1899F90011124C22FB3
:101F4000D0696CCF8D2F8F71BBD0082F8C2F90E074
:101F500014D0302F3F71282F392B3062E9015ECF2A
:101F6000462F711105C0653018F460E00C94A00391
:101F700080E090E00895F4DFFECE803E9105D1F13F
:101F8000C8F48133910509F481C048F48932910580
:101F900009F471C08A32910509F47FC0089589332C
:101FA0009105E1F082389105C9F08533910509F476
:101FB0005DC00895843E9105D1F148F4823E9105BB
:101FC00031F1833E910541F181EE90E00895863E26
:101FD0009105C1F1873E9105F1F108952091070324
:101FE000237009F064C02091080323FF14C089E224
:101FF00090E008952091070320FD45C0309108032B
:1020000030FF09C024FD24C083EE90E008952091A4
:10201000070322FDF7CF08952091070322FD44C056
:102020003091080330FD43C024FFF5CF11C020914B
:10203000080321FFF0CF8091070384FD09C087EEDC
:1020400090E008952091070323FFE5CF24FFF7CF09
:1020500080E090E008952091070323FD2BC030918C
:10206000080331FFE1CF84EE90E00895209107034B
:1020700025FFD1CFBCCF2091070325FD1EC02091A5
:10208000080323FFC8CF89E390E008952091070358
:1020900026FFC1CF8AE290E008952091070326FF32
:1020A000BACF81E390E0089582EE90E0089580EE4B
:1020B00090E0089586EE90E0089585E390E008951D
:1020C0009091070392FF10C041E0282F2471243023
:1020D00009F040E031E0282F2871283009F030E085
:1020E000431711F02CE0822793FF10C041E0282F06
:1020F0002471243109F040E031E0282F2871283183
:1021000009F030E0431711F02CE0822730910803EA
:1021100030FF10C051E0282F2171213009F050E02C
:1021200041E0282F2871283009F040E0541711F0C1
:1021300029E0822731FF10C041E0282F2171213191
:1021400009F040E031E0282F2871283109F030E013
:10215000431711F029E0822794FD877E089580E0DF
:102160000895CF939C01205E3245C1E020323105B5
:1021700038F4FB01C581C11103C08F710E94F404C2
:102180008C2FCF9108959C01FB018581811599F0D9
:102190002B359CE7390769F02C359CE7390721F08E
:1021A0002A353C4721F00895BCDC80E00895C0DC6E
:1021B000FCCFC0DCFACF81E008959C01FB01858152
:1021C000811599F021309CE7390761F023309CE7B5
:1021D000390739F021153C4749F40E941C0580E07D
:1021E0000895D8DC0E942005FACF81E00895089573
:1021F00080E090E00E94BB299C0181E0233E3E4F9D
:1022000009F080E0089563EE7EEF80E090E00C94AA
:10221000DA296FEF7FEF80E090E00C94DA29CF931A
:10222000DF93EC0182E090E00E94AE298883DF9189
:10223000CF910895FC01608182E090E00C94C02968
:1022400083E090E00E94AE2990E00895682F83E03B
:1022500090E00C94C029CF93DF93EC0184E090E0F0
:102260000E94BB2988839983DF91CF910895FC0157
:102270006081718184E090E00C94DA29CF93DF9340
:10228000EC018CE090E00E94AE298883DF91CF9131
:102290000895FC0160818CE090E00C94C0298F923D
:1022A0009F92AF92BF92CF92DF92EF92FF920F93E5
:1022B000CF93DF93EC0188E090E00E94B6294B01B8
:1022C0005C01688399828A83BB821C821D821E8284
:1022D0001F8283E290E00E94AE299401A5018882CA
:1022E0003983AA825B838C831D821E821F82DF91C9
:1022F000CF910F91FF90EF90DF90CF90BF90AF9074
:102300009F908F9008950F93CF93DF93EC014881B6
:1023100059816A817B8188E090E00E94D2296C819A
:10232000262F60E070E0CB01622F83E20E94C0297B
:10233000DF91CF910F910895AB01BC018FE090E048
:102340000C94D229AB01BC0183E190E00C94D2291A
:10235000682F8EE090E00C94C0290895FECF089578
:102360000895FECF0895E82FF0E0E65FFC4F8081EE
:1023700008950895CF93DF93ABEAB1E020EB31E00D
:1023800061E08D918F3F31F42A173B07D1F7DF9140
:10239000CF910895E82FE295EF70F0E041A18F70A2
:1023A000C62F01C0CC0F8A95EAF79C2F90959423F5
:1023B00091A392A18C2F892B82A3E6CFCF93AC015E
:1023C00085E0689FD0011124A555BE4F70E0C1E0A3
:1023D00080E09D919F3F79F0E92FE295EF70E05EFC
:1023E000F0E0208130E09F7002C0359527959A95E6
:1023F000E2F79C2F20FD90E0892B7F5FCC0F75309A
:1024000041F7460F511DFA018083CF910895B2DF45
:1024100010920A031092090381E023D09FCFA1E01C
:10242000B0E0E5E1F2E10C940E29198260E0CE0102
:102430000196C4DF90910903898121E098130EC0B1
:1024400020E041E06AE073E089E093E00BD0182FD0
:1024500088DF812F2196E3E00C942A2980930903D9
:10246000F0CF0895A0E0B0E0E8E3F2E10C94092990
:102470007C016B01042FC22F211579F081E080933C
:10248000BD020E946D218093BB029093BC0280E04C
:10249000CDB7DEB7E8E00C942529D091BD02D11567
:1024A000B1F38091BB029091BC020E94FE2005977F
:1024B00070F310E0A801B701C6010E949829892B8A
:1024C00031F0A801B701C6010E94A529CD2F1092B5
:1024D000BD028C2FDDCFFBCB08950E9407210E9407
:1024E0002323C6DB0E943B23E5DB0E9444230E949A
:1024F0004723F1DF0E945D230E940E22C7DBF7CF46
:1025000080930202909303020895CF93DF93EC012E
:10251000FB018581811104C081E0DF91CF91089595
:1025200000DA8272FE01E052F847EB30F105A0F7C5
:10253000EE5EF54D0C94E9287FD580E0EECF811555
:1025400021F06ED5FACF8115E1F35ED5F6CF811576
:1025500021F02FD2F2CF8115E1F321D2EECF8115F8
:1025600021F041D2EACF8115E1F330D2E6CF8115D7
:1025700021F053D2E2CF8115E1F342D2DECF8115B3
:1025800021F0F8D0DACF8115E1F3E5D0D6CFA0E085
:10259000B0E0EDECF2E10C940829062FB72EE82FFD
:1025A00071110EC0411521F0F0E0EC51FE4FE491A5
:1025B0006E2F7E2F8E2FCDB7DEB7E9E00C94242945
:1025C000411521F0F0E0EC51FE4FE49186E0089FC8
:1025D000E00111242FEF30E0CE01B9010E94A028C4
:1025E000AB01C801880F991FF5E5F49FB001F59F75
:1025F000700D1124861B682F660F680FC9018B1997
:102600009109E89FD001E99FB00D11248B2FB69E50
:1026100060011124CD2CD12C89010C191D096801F0
:10262000E09F7001E19FF00C11244330510551F1FE
:102630008901061B1109B09E6001B19ED00C1124C6
:10264000CD2CD12C2C193D09E29F8001E39F100D68
:102650001124712FCC3FD34050F441305105B1F0DB
:102660004230510561F47E2FEB2F812F08C044309A
:10267000510579F04630510511F07B2F8F2D6E2FCB
:10268000E82F98CF7F2D8E2FEB2FF9CF7E2FEF2DB8
:10269000F6CF8E2FE12F7B2FF2CF41E078CF089538
:1026A000FCCF089590911F01291B922FE091DD012D
:1026B000F091DE01242F462F682F892F90E0099595
:1026C0000895CF93DF93762FE901682F842FE8DFF9
:1026D000962F672F9E01482F892FE4DFDF91CF913E
:1026E0000895413808F040E8ECCF80910B03843026
:1026F00060F48370846080930B0380910E038138B3
:1027000018F080E880930E0308958C3AB0F383703C
:10271000886AF1CF85E080930B0310920C038FEF52
:1027200080930D0380E880930E0310920F038BE0DB
:1027300093E044CA80910B038170089590910F0338
:10274000933018F49F5F90930F03811519F08BE07D
:1027500093E034CA089581E0F1CF90910F03911571
:1027600019F0915090930F03811519F08BE093E0CD
:1027700025CA089581E0F1CF0F931F93CF938091E5
:102780000B0380FF09C0E091E101F091E20109959E
:10279000CF911F910F910895C09121018091DD018A
:1027A0009091DE018C0180912201C81760F7809121
:1027B0001F019C2F981B20E040E060E0892F90E0F3
:1027C000F8010995CF5FEFCFEF92FF920F931F9320
:1027D000CF93DF93D82FF62EE42E80910B0380FF4A
:1027E0000CC0C09121018091DD019091DE018C012E
:1027F00080912201C81730F0BFDFCDB7DEB7E6E029
:102800000C94272980911F019C2F981B2E2D4F2D52
:102810006D2F892F90E0F8010995CF5FE9CF762FD2
:1028200090910B0390FF0BC0413808F040E8682FEF
:10283000842F36DF962F672F482F892FC5CF089515
:10284000CF93DF93EC01EC81F0E0E152FF4F449134
:10285000EBE0F3E062818181E2DF8C818F5F8C832A
:10286000DF91CF910895CF93DF93EC01EBE0F3E09C
:10287000438162818C81D3DF8C818F5F8C83DF9178
:10288000CF910895CF93DF93EC0120910E039C81AB
:10289000892F817090FD822F692F627091FD622FC8
:1028A000492F447092FD422F8FDF8C8101968770F3
:1028B0008C83DF91CF910895A0E0B0E0E2E6F4E1EF
:1028C0000C940A29D82FE62EC42FD22E90910B03F8
:1028D00090FF24C0292F26952695E22FF0E0E055A1
:1028E000FE4F80818093E2029C7F9430E1F4842F3C
:1028F000413808F080E86D2F7E2DD2DE962F672FAD
:10290000482F892F61DFD0930C03E0920D03C09311
:102910000E03D11419F08BE093E050D9CDB7DEB798
:10292000E7E00C942629823019F4C0910E03EBCF16
:10293000863019F4D0910C03E6CF8930D9F3893170
:1029400011F787EEF82EF20EEF2DE695F0E0E1524A
:10295000FE4F049110E060912301161710F00CDF78
:10296000D2CF109FC001112470E00E94A028862FB2
:102970008D0FF0FE02C08D2F861B20912101210FAB
:102980003327331F4C2F6E2DACDE1F5FE4CFEBE0FF
:10299000F3E0282F438162818181885F8DCF81E0C0
:1029A000F6CFEBE0F3E0282F4381628181818850EC
:1029B00083CF81E0F6CFEBE0F3E0628121E1620FAB
:1029C00008F46FEF282F4381818176CF81E0F3CF28
:1029D000EBE0F3E0628121E1621B08F460E0282F64
:1029E0004381818169CF81E0F3CFEBE0F3E0438164
:1029F00021E1420F08F44FEF282F628181815CCFE3
:102A000081E0F3CFEBE0F3E0438121E1421B08F4E6
:102A100040E0282F628181814FCF81E0F3CF21E018
:102A20004BCF20E049CF0F931F93CF938C01C0E091
:102A300060912301C61768F09FDEF80184819281BE
:102A400090FF1DC08F5FF8018483CF911F910F917C
:102A50000895209121012C0F3327331F70E08FEF51
:102A600090E00E94B428F801848140910E03C69F33
:102A7000800D112460910D0334DECF5FD9CF8150DA
:102A8000E2CFAF92BF92DF92EF92FF920F931F932C
:102A9000CF93DF93FC018281D1E080FDDFEFC0E0C6
:102AA0008091DD019091DE015C0180912301C817C6
:102AB000B8F062DE8091BF02D13009F050C08111C0
:102AC00002C08091230181508093BF02DF91CF919A
:102AD0001F910F91FF90EF90DF90BF90AF900895FE
:102AE0008091210190911F01891B8C0F20E040E013
:102AF00060E090E0F501099504E010E0D12CEC2EA7
:102B0000F12C8091BF028D0D86301CF165E00E9492
:102B10009328892F082E001C00088E150F0499F4A5
:102B2000809121019701280F311D40910E0304036C
:102B3000A0011124559547955595479560910D0332
:102B400080910C03CEDDDD0E01501040D1F6CF5F39
:102B5000ACCF87FFDFCF90912301890FDBCF90E0CF
:102B600001966091230170E00E94B428ADCF0F93CD
:102B70001F93CF93C09121018091DD019091DE01DF
:102B80008C0180912201C81750F1C0E08091DD01D5
:102B90009091DE018C0160912301C61768F1ECDD94
:102BA00080911D019091BE02980F9093BE022091DA
:102BB0001E01280F20931E01121654F420912301A8
:102BC0002150330B092E001C0008921703061CF03D
:102BD000819580931D01CF911F910F910895809150
:102BE0001F019C2F981B20E040E060E0892F90E0BF
:102BF000F8010995CF5FC5CFEC2FF0E070E0CF0171
:102C00000E94B42820912101820F9091BE02092ECA
:102C1000001C0008E917F0059CF090911E01092E98
:102C2000001C00089E170F065CF0282F30E0409132
:102C30000E0360910D0380910C0353DDCF5FABCF8A
:102C400090911F01891B20E040E060E090E0F801D6
:102C50000995F4CFA0E0B0E0E0E3F6E10C94072999
:102C6000EC01FC812F2F30E0D9010E9478289B01D4
:102C7000AC010E94F5287B018C0180E290E08F1B63
:102C80009109FC01A5E59701A8010E94F5285B01C7
:102C90006C019F01DF010E9472289B010E94EF28B6
:102CA0009B01AC012E0D3F1D401F511FB501C601F8
:102CB0000E94C728022F30E00A3220F5A901440FF4
:102CC000551F420F531F55954795142F1095F12C02
:102CD00085E5801BE82E80912301F81600F14CDD7C
:102CE0009C8181E0911519F0903219F48FEF809357
:102CF0001C0180911C01890F8C83CDB7DEB7EAE0FF
:102D00000C94232985E590E0821B930BAC01440FC2
:102D1000551F480F591FBAF64F5F5F4FD4CF8E2D06
:102D2000F1FC802F209121012F0D3327331F412FDC
:102D300060910D03D6DCF394CECF0F931F93CF9306
:102D4000DF938C01C0E0D0E090912301C917D10539
:102D50005CF012DDF8018481019681708483DF913B
:102D6000CF911F910F910895F80144818091210125
:102D70009E01280F311D60910D0380910C039695E3
:102D8000C917D1053CF4411539F040910E03A9DC77
:102D90002196DACF4115C9F340E0F9CFA0E0B0E0C9
:102DA000E4EDF6E10C940329FC018281882E9480E5
:102DB00081E08483EFEDF0E0A490EEE5F1E0E491B2
:102DC000C0910E03C695C158D0E0CC0FDD1FED2E8B
:102DD000F12CB12C05E01FEFEA198E2F90E03C0199
:102DE00080912301B81630F0C7DCCDB7DEB7EEE036
:102DF0000C941F29CB2CD12C882D833058F40B9D9B
:102E0000F0011124E054FD4F80910C0380838091E8
:102E10000D03818391101BC00C9DF0010D9DF00DE1
:102E20001124E054FD4F13821282809121019601FA
:102E3000280F311D0C9DF0010D9DF00D1124E05463
:102E4000FD4F4281618180814CDCB394C9CF0C9DE0
:102E5000E0010D9DD00D1124C054DD4F8B818115F3
:102E6000E1F081508B83189FC00111246C8170E0C8
:102E70000E94A02870E0FB01E152FF4F84918A1963
:102E8000189FC0011124B3010E94A02880910E0355
:102E9000689FB00111247A83C8CF0E947D296FEF0B
:102EA00070E00E94B4288E159F050CF0BECF882DCF
:102EB000833090F00E947D296FEF70E00E94B4286B
:102EC00088830E947D2920910D032695622F70E052
:102ED0000E94B428280F29830C9DF0010D9DF00D50
:102EE0001124E054FD4F128280910E03893C58F06A
:102EF00088EC0C9DF0010D9DF00D1124E054FD4F68
:102F00008483838392CF8431A0F784E1F2CF8091D0
:102F10000B038E7F80930B038BE093E00E94DE0D0A
:102F20001092E30229CC80910B038E7F80930B03D8
:102F30001092E30221CC1092E3028091E002811111
:102F400009C081E08093E00280910B03817080933F
:102F5000DF02E9CF089560910B036695669570E0F6
:102F60004BE050E084E291E00E948B29892B19F418
:102F700081E08093E3020E946D218093D9029093B7
:102F8000DA02089590910B0390FF2CC0811559F13E
:102F90008B3258F58F73880F880F90910B039370C5
:102FA000892B80930B03611521F08BE093E00E9445
:102FB000DE0D60910B036695669570E04BE050E086
:102FC00084E291E00E948B29892B89F01092E30220
:102FD00081E08093DC0240910E0360910D038091AB
:102FE0000C031FCD089581E0D6CF8AE2D4CFB3DFA2
:102FF000EFCF682F90910B0396959695892F8F5F51
:103000008B3208F081E0BECF81E0F3CF682F909142
:103010000B0396959695892F815009F48AE2B2CFD9
:1030200081E0F4CF61E0AECF80910B0381608093AB
:103030000B0386958695F6CF80910B0380FF01C028
:1030400066CFF2CF60E09ECF8091E10281111FC078
:103050008BE093E00E94DC0D80910B03843028F418
:1030600059DB8BE093E00E94DC0D3FDB1092E30222
:10307000E091DB01F091DC01099580910B0380FF69
:1030800003C086958695DEDF81E08093E102089596
:1030900080910B03816080930B0386958695D2CF38
:1030A0001092E0028091DF028111F2DF54CF0F9382
:1030B0001F93CF93DF938091E302811509F441C000
:1030C0008091E202E0910B03E695E695E81BE09320
:1030D000DB02853109F48BC008F044C0893009F463
:1030E0007CC0A0F5823009F466C0863009F46CC05B
:1030F000C0EDD7E00FE413E18091DC02811561F0AF
:103100001092DC020E946D218093D9029093DA0222
:103110001092DD021092DE020E946D212091D902F0
:103120003091DA02821B930B8F3F9F4750F42C0F94
:103130003D1F2093D9023093DA0289ED92E0F80125
:103140000995DF91CF911F910F9108958F3081F6EE
:10315000E695F0E0EE52FF4FE491CE2FD0E001E48F
:1031600015E1CACFC4EFD1E00DE916E1843221F2B6
:1031700088F4C8E2D0E00AE216E1883109F4BCCF55
:10318000833209F0B5CFEDECF0E0C591D49102E4C3
:1031900014E1B2CF853209F0ABCF8E2F63E00E94ED
:1031A0008728E92FF0E0E653FF4FE491CE2FD0E0DF
:1031B0000EEC16E1A1CFF0E0E552FF4FE491CE2FE7
:1031C000D0E000E214E198CFF0E0E852FF4FE49144
:1031D000CE2FD0E003E314E18FCFE695F0E0EB5281
:1031E000FF4FE491CE2FD0E003E115E185CFF0E071
:1031F000E153FF4FE491CE2FD0E007EB15E17CCFF8
:10320000089555CF0895FB012581211539F097FFC9
:1032100005C09F77BC0180E090E01AD181E008955D
:103220000F931F93CF93DF93EC018B01FB018581FB
:10323000811581F00E94910C8272FE01E053FC47DF
:10324000E830F10538F4E35EF54D0C94E92881157A
:1032500059F042D0B801CE01D6DFDF91CF911F9156
:103260000F9108958115A9F336D0F4CF80E027D0CF
:10327000F1CF81E0FCCF82E0FACF83E0F8CF84E0A9
:10328000F6CF85E0F4CF90911403923069F48A3040
:1032900048F4875F90E06AE070E00E94B428875AA3
:1032A0000C944F068650FCCF33C40895FECF08958A
:1032B00084E193E00E94D80D80911403F7CFCF935F
:1032C000C82F8093140384E193E00E94DA0D8C2FC1
:1032D000EDDFCF91089508950895C1D5809313032C
:1032E00090911403913029F481FF03C089E30E9477
:1032F0004F060E94910C809315030E94A50C0E941A
:10330000B90C809114038230B9F030F481110FC0F0
:1033100082EE0E94D70504C0843011F1853029F176
:103320008FE39CE90197F1F700C00000089588E160
:1033300093E00E941204F4CF8091130380FD03C038
:1033400083E50E944F0682EE0E94D7058FE39CE939
:103350000197F1F700C0000087E50E944F06E0CF1B
:1033600086EE0E944F0688E1F8CF8BE191E00E9443
:10337000120485E290E00E94120488E290E0D9CF26
:10338000809114038230D1F030F481110CC082EEB0
:103390000E94120604C08430D1F08530D1F08091B3
:1033A00015030C94A20C8CE20E944F06809113032B
:1033B00081FFF5CF89E30E944F06F1CF82EE0E9494
:1033C00012068091130380FDEACF83E5F4CF88E2F3
:1033D000F2CF88E290E00E941204E1CFA0E0B0E0DA
:1033E000E4EFF9E10C9407295B016C01D09114031F
:1033F0008CE1E82EF12C07E010E021E0C501D601B8
:103400000E2C04C0B695A795979587950A94D2F788
:10341000C82FCF70211531F0D43041F4CA3030F0CC
:1034200080E031DF8C2F2FDF20E005C0C111FACF03
:1034300004301105BCF30150110984E0E81AF108C9
:103440000F3F1007D9F6CDB7DEB7EAE00C94232979
:10345000CF92DF92EF92FF926B017C0181E1E8163F
:10346000F10438F40E2C0F2849F0809114038230B7
:1034700049F4FF90EF90DF90CF9008952EDFB601D2
:10348000C70121C02ADF809114038111F8CF81E0A8
:10349000E81AF1088D2D9E2DAF2DB0E0A6959795D9
:1034A0008795A695979587959852AF4FBF4FBC01CA
:1034B000CD0194DF83E0D822E12CF12CB601C701C5
:1034C00074528F4F9F4F8ADF5BDFD3CF0C943D0E3A
:1034D0000895E5EEF2E088E011928A95E9F7E5C0FB
:1034E000FC01228130E02395237030E0938181E05C
:1034F0009217130609F080E008950F931F93CF935E
:10350000DF93EC01162F042FEBDF811114C08A81A9
:10351000FE01E80FF11D912F00FB97F994838F5F57
:1035200083708A8388818F5F888381E0DF91CF9168
:103530001F910F91089580E0F9CFFC01A381828152
:103540008A17B1F0AE0FBF2FB11D14968C9187FB77
:10355000992790F98F77DB018C93DA019C93838113
:103560008F5F8370838381818F5F818381E0089582
:1035700080E00895462F682F85EE92E0BECFAB0124
:10358000BC0185EE92E0D9CFCF93DF93C62F0E9486
:103590001503D82F811541F06AE070E089EAC11166
:1035A00001C08AEA0E9439068D2FDF91CF910895DC
:1035B000A2E0B0E0EEEDFAE10C940D298091E40276
:1035C000811551F01092E4028091E7028093E802A5
:1035D0008091E5028093E602A2D078DF182F811552
:1035E00069F010E004C06981182F8A81CDDFCE0117
:1035F0000196BC010196C3DF8111F5CF812F229680
:10360000E4E00C9429298FE891E00197F1F700C0DC
:103610000000089522E9611101C020E93AB12F703C
:1036200081E001C0880F2A95EAF7982F909593239F
:103630009AB99BB1892B8BB9089522E9611101C018
:1036400020E989B190E02F7002C0959587952A9561
:10365000E2F7817008950895CF93DF93C0E08091E1
:10366000ED02C81750F0CFDFC0E08091ED02C8171F
:1036700060F0F1DFDF91CF91089560E08C2FCADF19
:1036800061E08C2FC7DFCF5FEACF60E08C2FD5DF02
:10369000D82F61E08C2FD1DFEC2FF0E0E151FD4F0E
:1036A000880F8D2B8083CF5FE0CF81E08093ED0288
:1036B000D3CF1F93CF93DF93182F440F642BC82FC2
:1036C000D0E0DE01A151BD4FEC918E2F83706817C1
:1036D00011F1EE0FEE0FE62BEC93EF70F0E0ED51F1
:1036E000FE4FC251DD4F80819881890F88838430DD
:1036F0001CF060E0812F3EDF88818D3F1CF461E08B
:10370000812F38DF8881982F990F990B64E070E042
:103710000E94B4288883DF91CF911F910895CF93A1
:10372000DF93C0E08091ED02C81718F0DF91CF91D0
:10373000089561E08C2F81DFD82F60E08C2F7DDF32
:103740004D2F682F8C2FB5DFCF5FECCF3F9A0895B8
:10375000FC01EE0FFF1FE80FF91FEA5EFC4F6183CB
:10376000408322830895FF920F931F93CF93DF939B
:10377000182F062FF42EC0E0D0E02F2D402F612F00
:10378000CE01E6DF2196C530D105B9F7CDB7DEB75A
:10379000E5E00C94282938B13F7728B120684FB76D
:1037A000F89486E193E0FC010196508168E028B925
:1037B000000000C057FF38B9550F000000C000C01E
:1037C00000C038B900C06A9591F753E0853295077B
:1037D00051F74FBF8FE594E00197F1F700C000006B
:1037E0000895CF93DF93EB0186319C4709F50E9442
:1037F000910C9D81911599F08A7A91E0811101C017
:1038000090E09093F002811541F085E343D40E944B
:10381000470D80E0DF91CF91089589E2F7CF809145
:10382000F002811519F085E34CD4F1CF89E2FCCF89
:1038300081E0F0CFCF93DF93EC01FB01858181150F
:1038400009F4CBC09E0130572332310508F0ABC0DC
:1038500087E093E00E94D40DFE01E150F047E23290
:10386000F10520F4EB5DF54D0C94E92880910703F8
:1038700081608093070390C08091080388608093E3
:1038800008038AC0809107038260F3CF8091070309
:103890008460EFCF809107038860EBCF80910803AD
:1038A0008160EDCF809108038260E9CF80910703AA
:1038B0008061DFCF809107038062DBCF80910703B7
:1038C0008064D7CF0E947808809107038068D1CFA9
:1038D000809107038C60CDCF809108038360CFCFA8
:1038E000809107038E7FC5CF80910803877FC7CF64
:1038F000809107038D7FBDCF809107038B7FB9CF68
:1039000080910703877FB5CF809108038E7FB7CF63
:10391000809108038D7FB3CF809107038F7EA9CF5D
:10392000809107038F7DA5CF809107038F7BA1CF67
:103930000E947808809107038F779BCF80910703BF
:10394000837F97CF809108038C7F99CF9091070355
:10395000892F8B7F92FF8460877F92FF886089CF59
:1039600080910803982F909590FB80F990FB81F946
:1039700086CF90910703892F8F7B96FF806479CF44
:103980000E94780890910703892F97FB87F9805848
:1039900070CF81E00E94E00D87E093E00E94D60D99
:1039A0000E94780880E0DF91CF91089580E0F2CF07
:1039B00090910703892F8F7E94FF80615ACF909159
:1039C0000703892F8E7F90FF816053CF909108036A
:1039D000892F877F93FF886052CF81E0E4CFA0E0FA
:1039E000B0E0E5EFFCE10C940829E82FF0E0EC51A1
:1039F000FD4F9491B92E282F26952695269530E0D7
:103A0000F901EC57FC4FE4908770F12C082E02C0AE
:103A1000F594E7940A94E2F7F901EC58FC4FC4904E
:103A2000D12C082E02C0D594C7940A94E2F72C59E1
:103A30003C4FF901049110E002C0159507958A9555
:103A4000E2F7C62FD0E0E0FC25C0C0FE06C086EE3F
:103A50000E94D705CE01009759F5BE018B2D0E941B
:103A60003906CE01009761F5C0FC32C0E0FE06C009
:103A700081EE0E941206CE010097C1F500FF05C03D
:103A80008CE20E944F062097C9F5CDB7DEB7E9E07A
:103A90000C94242981EE0E94D705CE010097A9F24B
:103AA000EFE9FFE03197F1F700C000000197F6CF92
:103AB000EFE9FFE03197F1F700C000000197CBCFAD
:103AC000EFE9FFE03197F1F700C000000197CACF9E
:103AD00086EE0E941206CE01009741F2EFE9FFE068
:103AE0003197F1F700C000000197F6CFEFE9FFE052
:103AF0003197F1F700C000000197BECF8FE99FE03A
:103B00000197F1F700C000002197BDCF60E067CFBB
:103B1000982F9F709A50963010F0805DF7CF895A99
:103B2000FDCF0F931F93CF93DF93C42FD22FFC01B0
:103B300085818115C9F04093F302CFD38093F102C0
:103B40009093F2028C2F805E883048F481E0C1FDB2
:103B500084E0C0FD880FC2FD82950E945606DF9169
:103B6000CF911F910F9108951091F302141333C058
:103B70008091F1029091F20241D38A3F910558F56C
:103B8000CD2FC05E1D17C1F0812F805E883048F4B4
:103B900081E011FD84E010FD880F12FD82950E94E6
:103BA0005B06C83048F481E0D1FD84E0D0FD880F89
:103BB000D2FD82950E945606802F0E944F0681E01A
:103BC000D1FD84E0D0FD880FD2FD8295C83038F653
:103BD0000E945B06C4CF8C2F805E883008F0BFCF78
:103BE00081E0C1FD84E0C0FD880FC2FD8295F0CF69
:103BF0000F93FC01CB01E851FC47E730F10588F554
:103C0000E95BF54D0C94E92806E221EE41EE6AE10C
:103C10007CE787DF80E00F91089507E225EE45EE0F
:103C20006BE17CE7F6CF06E221EE40EE68E17CE74F
:103C3000F0CF07E225EE44EE69E17CE7EACF06E249
:103C400021EE42EE6CE17CE7E4CF07E225EE46EEA2
:103C50006DE17CE7DECF08E221E045EE6EE17CE736
:103C6000D8CFFB01858181111092F30281E0D3CF7F
:103C7000FA01309709F009950895CF93DF93EC018D
:103C80004A855B856E857F85F3DF8B810E94B10C51
:103C90008C810E949A0C0E94470D86E019928A95A9
:103CA000E9F7DF91CF910895CF93DF93EC018D81F8
:103CB00081FD10C082608D838B810E94AB0C8C8152
:103CC0000E94940C0E94470D488559856E857F851A
:103CD000CE01CEDF1092F6021092F7028D8180FDA8
:103CE00002C0CE01CADFDF91CF9108950F931F93D9
:103CF000CF938C01FB01C581C115A9F08091F6021B
:103D00009091F7020097A1F08017910789F090E059
:103D10000E94A503FC012581246025830083118373
:103D2000C3DF0E94B90C8C2FCF911F910F91089582
:103D3000C0E0F9CFEF92FF920F931F93CF93DF93E1
:103D40008C017B01912F975531F081E0CDB7DEB723
:103D5000E6E00C942729C02FD0E00E94A203C817E8
:103D6000D90708F047C0CE010E94A503EC01F70176
:103D700085819D8180FB90F99D83811519F1ADD2DC
:103D80008093F4029093F5028A818F5F8A830E9468
:103D9000910C8B830E94A80C9B81982B9B830E9483
:103DA000BC0C8C834E815F816E857F85CE0160DF88
:103DB0008D8181FF02C000E010E00093F6021093B5
:103DC000F702C3CF4C855D856E857F85CE0150DFC0
:103DD0008D8181FFBACFCE0150DF8091F6029091A4
:103DE000F7028017910709F0B0CF1092F6021092F7
:103DF000F702ABCF80E0AACF8091F6029091F70254
:103E0000892B89F08091F4029091F502F7D18B3FD4
:103E1000910548F08091F60290E00E94A503FC0114
:103E2000258122FF41CF08958093FC029093FD02EB
:103E30000895B0D1982F81E0913009F080E0089585
:103E4000E091FC02F091FD02309739F00190F08191
:103E5000E02D309711F00995089580E00895F0CF96
:103E60000895E091FC02F091FD02309731F002805C
:103E7000F381E02D309709F009950895E091FC0257
:103E8000F091FD02309759F024813581232B39F0D0
:103E900026E0DC012C930480F581E02D099508953E
:103EA000A3E0B0E0E6E5FFE10C940F292091FA02CF
:103EB0003091FB0228173907B1F08093FA029093F2
:103EC000FB02E091FC02F091FD02309761F000846A
:103ED000F185E02D309739F023E029838A839B8395
:103EE000CE01019609952396E2E00C942B29A3E0DC
:103EF000B0E0EDE7FFE10C940F292091F80230913A
:103F0000F90228173907B1F08093F8029093F9026B
:103F1000E091FC02F091FD02309761F00084F185A0
:103F2000E02D309739F024E029838A839B83CE01EA
:103F3000019609952396E2E00C942B29CF93DF9309
:103F4000C0911A01D0911B0174DF811521F080917D
:103F5000070387FD11C09E012E5F3F4F96E080E072
:103F60009150F90140812F5F3F4F41118F5F9111B7
:103F7000F7CFDF91CF910895209118013091190169
:103F80002E5F3F4F9EE1EBCFCF93C82F811102C030
:103F900080E02EC04EDF811521F08091070387FD60
:103FA0000FC080911A0190911B01FC013296089676
:103FB00020812C17F9F03196E817F907C9F7E8CFF7
:103FC0008C2F869586958695C03F10F7E091180155
:103FD000F0911901E80FF11D228130E0C77081E0F6
:103FE00001C0880FCA95EAF7282381E0232B81F2CC
:103FF000CF91089581E0FCCF9C01FC01329680E0D6
:104000009FEF4081461759F031969F3F19F44111B7
:1040100001C0982F8F5F8630A1F79F3F09F4089564
:10402000290F311D97FD3A95F90162830895FC012E
:10403000329608962191261302C0DF011E92E817DE
:10404000F907C1F70895262F269526952695603FF6
:1040500060F4820F911DFC01677021E001C0220F06
:104060006A95EAF78281822B82830895262F26950E
:1040700026952695603F68F4820F911DFC019DEF07
:1040800061FD97EF60FF959562FD9295828189238E
:1040900082830895CF93C82FCCDE6C2F811559F001
:1040A0008091070387FF07C0809118019091190143
:1040B000CADFCF91089580911A0190911B019CDF76
:1040C000F8CFCF93C82FB5DE6C2F811559F08091B2
:1040D000070387FF07C08091180190911901C6DF7F
:1040E000CF91089580911A0190911B01A0DFF8CF24
:1040F000A0DE811571F08091070387FF0AC0E0916F
:104100001801F091190132968EE111928A95E9F722
:104110000895E0911A01F0911B01329686E0F5CFE7
:104120000895FECF08958F5F8093320160912F0133
:10413000709130018091310190913201F2CF83E092
:104140008093320160912F01709130018091310193
:1041500090913201E6CFE7CF089581E0809332015C
:1041600060912F0170913001809131019091320165
:10417000D8CFF3CF089591E0811101C090E09093E2
:10418000310160912F017091300180913101909146
:104190003201C7CF80913101089580933001609141
:1041A0002F01709130018091310190913201B9CF8E
:1041B00080913001089580932F0160912F017091BB
:1041C00030018091310190913201ABCF80912F016C
:1041D000089508950895FECF089508950895F9CF9C
:1041E0000895FBDF0E940F12F9DF80E00E94B311F7
:1041F000982F81E0911101C080E00895CF93DF9363
:10420000EC016BD08C1B9D0BDF91CF91089585B78E
:10421000806885BF85B7806885BF08951F921FB6E7
:104220001F9211248F939F93AF93BF938091FE02AF
:10423000811113C08091250390912603A09127033B
:10424000B09128034196A11DB11D80932503909341
:104250002603A0932703B0932803BF91AF919F91AA
:104260008F911F901FBE1F90189580912D03843051
:1042700031F10E9424051092FE0288E190E020E4D2
:104280000FB6F894A895809360000FBE209360004D
:1042900083B7817F846083BF83B7816083BF789455
:1042A000889583B78E7F83BF0FB6F894A8958091C9
:1042B0006000886180936000109260000FBE0895D6
:1042C0000E9478080C942A0582E084BD93E095BD95
:1042D0009AEF97BD80936E0008952FB7F894809160
:1042E000250390912603A0912703B09128032FBFA7
:1042F00008952FB7F894609125037091260380915B
:104300002703909128032FBF089578941F921FB61A
:104310001F9211248F939F93AF93BF938091250396
:1043200090912603A0912703B09128030196A11D27
:10433000B11D8093250390932603A0932703B09388
:104340002803BF91AF919F918F911F901FBE1F9027
:10435000189587E797E7809300089093010888E114
:104360009AE00FB6F894A895809360000FBE9093E2
:104370006000FFCF88E19AE00FB6F894A89580938B
:1043800060000FBE90936000FFCF08959B01BA01BB
:1043900090912D039430D9F48F708093E9009FEFB2
:1043A0008091E80085FD06C085ED8A95F1F7000053
:1043B0009150B1F78091E80085FF09C040E050E0DE
:1043C000C901EFD18091E8008E778093E8000895CD
:1043D000603229F440E250E0BC0182E0D7CF08957A
:1043E00043E050E0BC0184E0D1CF40E250E0BC01AA
:1043F00084E0CCCFCF93DF93EC01CCDE48E050E0FB
:10440000BE0181E0C3DF88E0FE01AFEFB2E00190C2
:104410000D928A95E1F7DF91CF910895A0E2B0E087
:10442000E3E1F2E2FCC680912D038430F9F483E0ED
:104430008093E9008091E80082FF18C08091E80035
:1044400090E085FF07C040E050E0BD01CE0101963D
:10445000F4D191E08091E8008B778093E80091158A
:1044600029F060E2CE0101960E944303A096E2E0AB
:10447000F2C680912C03811107C066D3B6D3809118
:10448000E20084608093E200089510922C03089566
:1044900064DE81E070CE6091290381E0611101C08A
:1044A00080E04DCE90912D0381E0943009F080E0C2
:1044B0006091290350CE42E061EC81E0C1D242E23A
:1044C00061EC84E0BDD242E261EC82E0B9D242E22A
:1044D00060EC83E0B5D290912D0381E0943009F037
:1044E00080E0609129031FCE80912F03893081F1F4
:1044F00048F4823009F497C0833009F458C0813001
:1045000041F008958A3009F481C08B3009F469C004
:10451000089580912E03813A09F048C08091E80007
:10452000877F8093E8008091320390913303892B39
:1045300059F060E080E090E070E0CBD18091E8003D
:104540008B778093E800089568E08FEF92E0F4CFD6
:1045500080912E03813251F5809132039091330383
:104560008D7F892B19F58091E800877F8093E80083
:104570008091E80082FF16C02091F3008091F20044
:10458000922F029731F48091F100813011F0863042
:1045900019F48091F10001DE8091E8008B7780931F
:1045A000E80082C280912D038111E2CF08958091AD
:1045B0002E03813AD9F78091320390913303892BEE
:1045C000A9F78091E800877F8093E8008091E80058
:1045D00080FFFCCFDFDD8093F1008091E8008E77D3
:1045E000DECF80912E03813209F7809132039091C2
:1045F0003303892BD9F68091E800877F8093E80008
:1046000053D280913003B7DD0C94780880912E034B
:10461000813261F68091E800877F8093E80044D280
:1046200080913103C8CD80912E03813A09F0BECF2D
:104630008091E800877F8093E8008091E80080FF08
:10464000FCCFC4DDC8CF84B7877F84BF0FB6F89492
:10465000A89580916000886180936000109260004E
:104660000FBE80E890E00FB6F894809361009093BD
:1046700061000FBE7ECD68D2B8D2E2EEF0E080815C
:1046800084608083789415C583E391E0CDCB8091DD
:104690002D03853029F480912D03853011F010CE43
:1046A0000895E3DD9EDD8115B1F380912B03811523
:1046B00091F361D00E947808EECF08959A0140915D
:1046C00034035091350300C0492F50E04330510569
:1046D000D1F078F44130510509F448C04230510519
:1046E00071F48BE590E04AEC53E0F901408351838B
:1046F000089541325105E9F04232510539F180E027
:1047000090E040E0F2CF482F50E0813061F042303D
:10471000510561F0E6ECF3E04115510581F7849114
:1047200090E0AF01E2CFE6EAF3E0F9CFE4E9F3E0AD
:10473000F6CF6330710518F7660F771FFB01E45061
:10474000FE4F4081518189E090E0CFCF6330710509
:10475000B0F6FB01EE0FFF1FEA50FE4F4081518182
:104760006D507E4FFB01808190E0BFCF82E190E0F1
:1047700045E254E0BACF80E189BD82E189BD09B448
:1047800000FEFDCF8091D8008F7D8093D80080916E
:10479000E00082608093E0008091E00081FDFCCF2A
:1047A0000895AF92BF92CF92DF92EF92FF921F9344
:1047B000CF93DF937C01EB016A0195D1182F811112
:1047C00022C0C114D10439F0F60180819181C81B47
:1047D000D90BE80EF91EA12CB12C2097A1F08091E5
:1047E000E80085FD20C08091E8008E778093E80086
:1047F000C114D10499F0F601808191818A0D9B1D2D
:104800008083918315E0812FDF91CF911F91FF90DD
:10481000EF90DF90CF90BF90AF90089564D1811555
:10482000F1F2182FF0CFF70181917F018093F10011
:1048300021978FEFA81AB80AD0CFAF92BF92CF922C
:10484000DF92EF92FF921F93CF93DF937C01EB01F6
:104850006A0149D1182F811122C0C114D10439F045
:10486000F60180819181C81BD90BE80EF91EA12C9D
:10487000B12C2097A1F08091E80085FD20C08091A7
:10488000E8008B778093E800C114D10499F0F60119
:10489000808191818A0D9B1D8083918315E0812FFA
:1048A000DF91CF911F91FF90EF90DF90CF90BF905D
:1048B000AF90089518D18115F1F2182FF0CF8091A3
:1048C000F100F70181937F0121978FEFA81AB80AB1
:1048D000D0CFFC0180913403909135038617970760
:1048E00020F06115710561F0CB0140E0009771F493
:1048F00041110CC08091E80082FF36C080E008952D
:104900008091E8008E778093E800EECF20912D0310
:104910002115B1F12530B1F12091E80023FD2EC021
:104920002091E80022FDE6CF2091E80020FFDECFB5
:104930004091F3002091F200342F009719F02830B5
:10494000310558F041E02830310509F040E0209170
:10495000E8002E772093E800C9CF41914093F10001
:1049600001972F5F3F4FE9CF80912D03811541F0D3
:10497000853041F08091E80083FFBCCF81E008954D
:1049800082E0089583E00895FC01809134039091C2
:1049900035038617970720F06115710561F0CB018B
:1049A00040E0009771F441110CC08091E80082FF53
:1049B00037C080E008958091E8008E778093E8000A
:1049C000EECF20912D032115B9F12530B9F12091B9
:1049D000E80023FD2FC02091E80022FDE6CF2091C2
:1049E000E80020FFDECF4091F3002091F200342F49
:1049F000009719F02830310558F041E02830310592
:104A000009F040E02091E8002E772093E800C9CF1C
:104A100044914093F100319601972F5F3F4FE8CFCB
:104A200080912D03811541F0853041F08091E8009F
:104A300083FFBBCF81E0089582E0089583E008956D
:104A4000982F973028F08F708093E90081E00895C7
:104A50009093E900242F762F50E0981731F0709151
:104A6000EC002091ED005091F00021FD02C09F5F0D
:104A7000E8CF3091EB003E7F3093EB003091ED00BA
:104A80003D7F3093ED003091EB0031603093EB00CF
:104A90007093EC002093ED005093F0002091EE0015
:104AA00027FDE5CF80E0089580912E0387FF13C096
:104AB0008091E80082FF06C08091E8008B778093A8
:104AC000E800089580912D038111F2CF089580911F
:104AD0002D038115D9F38091E80080FFF8CF8091F4
:104AE000E8008E77ECCF2091E4003091E50095E668
:104AF000A9012091EC00822F817020FF06C08091D7
:104B0000E80080FF06C080E008952091E80022FDC3
:104B10001AC080912D03811589F0853089F080912C
:104B2000EB0085FD0FC02091E4003091E5004217B5
:104B30005307F9F29150E1F684E0089582E0089578
:104B400083E0089581E008955FD066D0E0EEF0E064
:104B5000808181608083E8ED80818F77808319BCBC
:104B6000A7EDB0E08C918E7F8C9380818F7E8083C7
:104B700010922C030895CF93DF9346D04DD0C8ED0B
:104B8000D0E088818F778883888180688883888156
:104B90008F7D888319BC10922D03109229031092E7
:104BA0002B0310922A03E0EEF0E080818B7F80835C
:104BB00088818160888342E060E080E041DFE1EE4F
:104BC000F0E080818E7F8083E2EE8081816080834F
:104BD000808188608083E0EE80818E7F8083888101
:104BE00080618883DF91CF910895E8EDF0E08081C6
:104BF0008F7E8083E7ED80818160808384E082BF47
:104C000081E080932C03B7CFE8EDF0E080818E7FC8
:104C100080831092E20008951092DA001092E10071
:104C200008951F920F920FB60F9211242F933F9366
:104C30004F935F936F937F938F939F93AF93BF93A4
:104C4000EF93FF938091E10082FF0AC08091E20020
:104C500082FF06C08091E1008B7F8093E10028D223
:104C60008091DA0080FF18C08091D80080FF14C0C6
:104C70008091DA008E7F8093DA008091D90080FFE6
:104C80008FC080E189BD82E189BD09B400FEFDCFFE
:104C900081E080932D03EDDB8091E10080FF18C05F
:104CA0008091E20080FF14C08091E2008E7F8093AB
:104CB000E2008091E20080618093E2008091D80060
:104CC00080628093D80019BC85E080932D03E3DBDC
:104CD0008091E10084FF28C08091E20084FF24C01D
:104CE00080E189BD82E189BD09B400FEFDCF8091DC
:104CF000D8008F7D8093D8008091E1008F7E8093D3
:104D0000E1008091E2008F7E8093E2008091E200DA
:104D100081608093E20080912903811509F445C0E8
:104D200084E080932D03BEDB8091E10083FF27C0E8
:104D30008091E20083FF23C08091E100877F809310
:104D4000E10082E080932D03109229038091E1001D
:104D50008E7F8093E1008091E2008E7F8093E2005D
:104D60008091E20080618093E20042E060E080E0B8
:104D700067DE8091F00088608093F00089DBFF910E
:104D8000EF91BF91AF919F918F917F916F915F91C3
:104D90004F913F912F910F900FBE0F901F9018953C
:104DA00019BC10922D0371DB77CF8091E30087FF50
:104DB00002C083E0B6CF81E0B4CF1F920F920FB64E
:104DC0000F9211241F932F933F934F935F936F93F1
:104DD0007F938F939F93AF93BF93CF93DF93EF9383
:104DE000FF93E9EEF0E080811091EC008F7010FBF2
:104DF000112717F9182B1082C0EFD0E08881877F28
:104E0000888378941CD0E9EEF0E010828881886075
:104E100088831F701083FF91EF91DF91CF91BF9135
:104E2000AF919F918F917F916F915F914F913F9142
:104E30002F911F910F900FBE0F901F901895AAE20F
:104E4000B0E0E4E2F7E2EAC18EE293E0FC01019611
:104E50002091F100208323E086339207B9F744DBE9
:104E60008091E80083FF37C080912E0390912F033B
:104E70009A3088F5E92FF0E0E25BF54DAAC1803861
:104E800089F0823841F5809132038F70873018F5B0
:104E90008093E9008091EB0085FB882780F91092D0
:104EA000E90006C080912B03880F90912A03892B7B
:104EB0009091E800977F9093E8008093F100109222
:104EC000F1008091E8008E7722C0811115C0809199
:104ED0003003813001F18091E80083FF0AC08091A6
:104EE000E800877F8093E8008091EB0080628093E8
:104EF000EB00AA96E3E0AEC1823069F780913003FF
:104F0000811579F01092E9008091E800877F809305
:104F1000E800CADDE0CF933009F080E080932B03F6
:104F2000F1CF809132038F70282F2150263098F6D0
:104F30008093E9002091EB0020FFE4CF933031F41F
:104F40008091EB0080628093EB00DCCF9091EB00CE
:104F500090619093EB0021E001C0220F8A95EAF75F
:104F60002093EA001092EA008091EB008860EBCF7A
:104F70008111B1CF809130038F77182F8091E3009A
:104F80008078812B8093E3008091E800877F809375
:104F9000E8008ADD8091E80080FFFCCF8091E3008B
:104FA00080688093E30083E0111101C082E0809368
:104FB0002D0391CF8058823008F08DCF809130033F
:104FC000909131038C3D23E0920789F583E08A8339
:104FD0008AE289834FB7F894DE01139620E03EE021
:104FE00051E2E32FF0E050935700849120FF03C07B
:104FF00082958F703F5F8F708A30B8F0895C8D9397
:105000001D922F5F243169F74FBF8091E800877FA1
:105010008093E8006AE270E0CE0101965ADC80914C
:10502000E8008B778093E80056CF805DE8CF6091F1
:105030003203709133039E012F5F3F4FA9013EDB86
:10504000BC01892B09F447CF9091E800977F90939A
:10505000E80089819A8198DCE2CF803809F03BCF63
:105060008091E800877F8093E800809129038093F6
:10507000F10027CF81112FCF90913003923008F0AB
:105080002ACF8091E800877F8093E80090932903DE
:105090000BDD80912903811529F084E080932D0395
:1050A0000ADA19CF8091E30087FDF7CF81E0F6CFD0
:1050B0000895CF9380912D03811591F08091E9009F
:1050C000C091EC008F70C0FBCC27C7F9C82B1092A1
:1050D000E9008091E80083FDB2DECF70C093E90063
:1050E000CF91089505D0332312F48A1B9B0B78C00F
:1050F000A29FB001B39FC001A39F700D811D112419
:10510000911DB29F700D811D1124911D0895992745
:1051100078E0880F991F961708F0961B881F7A95DC
:10512000C9F78095089587FB082E062687FD81958F
:1051300067FD6195ECDF0EF4919507FC819508956C
:10514000AA1BBB1B51E107C0AA1FBB1FA617B707AD
:1051500010F0A61BB70B881F991F5A95A9F78095C9
:105160009095BC01CD01089597FB072E16F400948D
:1051700006D077FD08D0E4DF07FC05D03EF490951B
:1051800081959F4F0895709561957F4F0895A1E295
:105190001A2EAA1BBB1BFD010DC0AA1FBB1FEE1FB1
:1051A000FF1FA217B307E407F50720F0A21BB30BFC
:1051B000E40BF50B661F771F881F991F1A9469F778
:1051C00060957095809590959B01AC01BD01CF01D4
:1051D0000895EE0FFF1F0590F491E02D099488DFEC
:1051E000B7FF0895821B930B089582DFA59F900D52
:1051F000B49F900DA49F800D911D112408952F92AE
:105200003F924F925F926F927F928F929F92AF9256
:10521000BF92CF92DF92EF92FF920F931F93CF93A3
:10522000DF93CDB7DEB7CA1BDB0B0FB6F894DEBF3A
:105230000FBECDBF09942A88398848885F846E8460
:105240007D848C849B84AA84B984C884DF80EE80AA
:10525000FD800C811B81AA81B981CE0FD11D0FB6B3
:10526000F894DEBF0FBECDBFED0108958F929F92DF
:10527000AF92BF92CF92DF92EF92FF92CF93DF93E4
:10528000EC01688179818A819B81611571058105B5
:10529000910521F464E279ED8BE597E02DE133EFA0
:1052A00041E050E09BD049015A019B01AC01A7EAC3
:1052B000B1E49BDF6B017C01ACEEB4EFA50194017E
:1052C000ABD0DC01CB018C0D9D1DAE1DBF1DB7FF0A
:1052D00003C00197A109B04888839983AA83BB833F
:1052E0009F77DF91CF91FF90EF90DF90CF90BF90AD
:1052F000AF909F908F900895B9CF80E091E0B6CFA6
:10530000B0E0A0E08093000190930101A09302011E
:10531000B09303010895FC014150504030F00190DA
:105320000616D1F73197CF01089588279927089558
:10533000FB01DC0104C08D910190801921F44150E2
:105340005040C8F7881B990B0895FB01DC0102C08F
:1053500001900D9241505040D8F70895F999FECF31
:1053600092BD81BDF89A992780B50895A6E1B0E075
:1053700044E050E025C0A8E1B0E042E050E020C0A9
:10538000262FF999FECF92BD81BDF89A019700B4FE
:10539000021639F01FBA20BD0FB6F894FA9AF99A9E
:1053A0000FBE08950396272FECDFEADF252FE9DFF4
:1053B000242FE7CF0196272FE4DFE2CFDC01CB01DA
:1053C000FC01F999FECF06C0F2BDE1BDF89A319615
:1053D00000B40D9241505040B8F70895052E97FB48
:1053E00016F400940FD057FD05D0D1DE07FC02D093
:1053F00046F408C050954095309521953F4F4F4F4A
:105400005F4F089590958095709561957F4F8F4F70
:105410009F4F0895B7FFE9CEE8DE821B930B0895F6
:10542000F894FFCF9C129F12A312A712AB12AF12D7
:10543000B312B712BB12BF12C31227193219361991
:1054400039193B193D193F194119701CDF1C781C93
:10545000421C461C7C1C4A1C801C8C1C561CD81CE4
:105460005A1C901C5E1C941CB91C621C981CC01C0D
:10547000681C9E1CA61C4E1C841C521C881C6C1C88
:10548000A21CB01CC91CD61C3C1C741CE61C131EA0
:10549000191E041E0D1E1F1E251E2B1E3F276527CD
:1054A0006B2765276B27B827DA276B272D283A2823
:1054B00001000000020000000000000000007C036A
:1054C00000000000000003008102A10201010200AF
:1054D0000500050501191A1B1C1D1E1F2021220095
:1054E000000100D820FA21F521C521F021E821E2B0
:1054F00000E900EA00B500B600B700CD008301CC9A
:10550000008A01920194012102230224022502262D
:105510000227022A02B300B4006F0070009F01CB83
:10552000019F02A002E200E900EA00B500B600B760
:1055300000CD008301CC008A019201940121022355
:105540000224022502260227022A02B300B4006FB9
:105550000070009F01CB019F02A002379496F6F7DE
:105560000001020202020606060909090909090FDB
:105570000F0F0F0F0F1515151819191919191919DA
:105580001919192324252525252525A61BA81BB374
:105590001BCB1B00FF0100010000FFFF000001000A
:1055A00001FF0044226DC60437045904DC03F503EF
:0255B0001504E0
:00000001FF
